{
  "_format": "hh-sol-artifact-1",
  "contractName": "Timelock",
  "sourceName": "contracts/stdGovernance/Timelock.sol",
  "abi": [
    {
      "inputs": [
        {
          "internalType": "uint256",
          "name": "minDelay",
          "type": "uint256"
        },
        {
          "internalType": "address[]",
          "name": "proposers",
          "type": "address[]"
        },
        {
          "internalType": "address[]",
          "name": "executors",
          "type": "address[]"
        },
        {
          "internalType": "address",
          "name": "admin",
          "type": "address"
        }
      ],
      "stateMutability": "nonpayable",
      "type": "constructor"
    },
    {
      "inputs": [],
      "name": "AccessControlBadConfirmation",
      "type": "error"
    },
    {
      "inputs": [
        {
          "internalType": "address",
          "name": "account",
          "type": "address"
        },
        {
          "internalType": "bytes32",
          "name": "neededRole",
          "type": "bytes32"
        }
      ],
      "name": "AccessControlUnauthorizedAccount",
      "type": "error"
    },
    {
      "inputs": [],
      "name": "FailedInnerCall",
      "type": "error"
    },
    {
      "inputs": [
        {
          "internalType": "uint256",
          "name": "delay",
          "type": "uint256"
        },
        {
          "internalType": "uint256",
          "name": "minDelay",
          "type": "uint256"
        }
      ],
      "name": "TimelockInsufficientDelay",
      "type": "error"
    },
    {
      "inputs": [
        {
          "internalType": "uint256",
          "name": "targets",
          "type": "uint256"
        },
        {
          "internalType": "uint256",
          "name": "payloads",
          "type": "uint256"
        },
        {
          "internalType": "uint256",
          "name": "values",
          "type": "uint256"
        }
      ],
      "name": "TimelockInvalidOperationLength",
      "type": "error"
    },
    {
      "inputs": [
        {
          "internalType": "address",
          "name": "caller",
          "type": "address"
        }
      ],
      "name": "TimelockUnauthorizedCaller",
      "type": "error"
    },
    {
      "inputs": [
        {
          "internalType": "bytes32",
          "name": "predecessorId",
          "type": "bytes32"
        }
      ],
      "name": "TimelockUnexecutedPredecessor",
      "type": "error"
    },
    {
      "inputs": [
        {
          "internalType": "bytes32",
          "name": "operationId",
          "type": "bytes32"
        },
        {
          "internalType": "bytes32",
          "name": "expectedStates",
          "type": "bytes32"
        }
      ],
      "name": "TimelockUnexpectedOperationState",
      "type": "error"
    },
    {
      "anonymous": false,
      "inputs": [
        {
          "indexed": true,
          "internalType": "bytes32",
          "name": "id",
          "type": "bytes32"
        },
        {
          "indexed": true,
          "internalType": "uint256",
          "name": "index",
          "type": "uint256"
        },
        {
          "indexed": false,
          "internalType": "address",
          "name": "target",
          "type": "address"
        },
        {
          "indexed": false,
          "internalType": "uint256",
          "name": "value",
          "type": "uint256"
        },
        {
          "indexed": false,
          "internalType": "bytes",
          "name": "data",
          "type": "bytes"
        }
      ],
      "name": "CallExecuted",
      "type": "event"
    },
    {
      "anonymous": false,
      "inputs": [
        {
          "indexed": true,
          "internalType": "bytes32",
          "name": "id",
          "type": "bytes32"
        },
        {
          "indexed": false,
          "internalType": "bytes32",
          "name": "salt",
          "type": "bytes32"
        }
      ],
      "name": "CallSalt",
      "type": "event"
    },
    {
      "anonymous": false,
      "inputs": [
        {
          "indexed": true,
          "internalType": "bytes32",
          "name": "id",
          "type": "bytes32"
        },
        {
          "indexed": true,
          "internalType": "uint256",
          "name": "index",
          "type": "uint256"
        },
        {
          "indexed": false,
          "internalType": "address",
          "name": "target",
          "type": "address"
        },
        {
          "indexed": false,
          "internalType": "uint256",
          "name": "value",
          "type": "uint256"
        },
        {
          "indexed": false,
          "internalType": "bytes",
          "name": "data",
          "type": "bytes"
        },
        {
          "indexed": false,
          "internalType": "bytes32",
          "name": "predecessor",
          "type": "bytes32"
        },
        {
          "indexed": false,
          "internalType": "uint256",
          "name": "delay",
          "type": "uint256"
        }
      ],
      "name": "CallScheduled",
      "type": "event"
    },
    {
      "anonymous": false,
      "inputs": [
        {
          "indexed": true,
          "internalType": "bytes32",
          "name": "id",
          "type": "bytes32"
        }
      ],
      "name": "Cancelled",
      "type": "event"
    },
    {
      "anonymous": false,
      "inputs": [
        {
          "indexed": false,
          "internalType": "uint256",
          "name": "oldDuration",
          "type": "uint256"
        },
        {
          "indexed": false,
          "internalType": "uint256",
          "name": "newDuration",
          "type": "uint256"
        }
      ],
      "name": "MinDelayChange",
      "type": "event"
    },
    {
      "anonymous": false,
      "inputs": [
        {
          "indexed": true,
          "internalType": "bytes32",
          "name": "role",
          "type": "bytes32"
        },
        {
          "indexed": true,
          "internalType": "bytes32",
          "name": "previousAdminRole",
          "type": "bytes32"
        },
        {
          "indexed": true,
          "internalType": "bytes32",
          "name": "newAdminRole",
          "type": "bytes32"
        }
      ],
      "name": "RoleAdminChanged",
      "type": "event"
    },
    {
      "anonymous": false,
      "inputs": [
        {
          "indexed": true,
          "internalType": "bytes32",
          "name": "role",
          "type": "bytes32"
        },
        {
          "indexed": true,
          "internalType": "address",
          "name": "account",
          "type": "address"
        },
        {
          "indexed": true,
          "internalType": "address",
          "name": "sender",
          "type": "address"
        }
      ],
      "name": "RoleGranted",
      "type": "event"
    },
    {
      "anonymous": false,
      "inputs": [
        {
          "indexed": true,
          "internalType": "bytes32",
          "name": "role",
          "type": "bytes32"
        },
        {
          "indexed": true,
          "internalType": "address",
          "name": "account",
          "type": "address"
        },
        {
          "indexed": true,
          "internalType": "address",
          "name": "sender",
          "type": "address"
        }
      ],
      "name": "RoleRevoked",
      "type": "event"
    },
    {
      "inputs": [],
      "name": "CANCELLER_ROLE",
      "outputs": [
        {
          "internalType": "bytes32",
          "name": "",
          "type": "bytes32"
        }
      ],
      "stateMutability": "view",
      "type": "function"
    },
    {
      "inputs": [],
      "name": "DEFAULT_ADMIN_ROLE",
      "outputs": [
        {
          "internalType": "bytes32",
          "name": "",
          "type": "bytes32"
        }
      ],
      "stateMutability": "view",
      "type": "function"
    },
    {
      "inputs": [],
      "name": "EXECUTOR_ROLE",
      "outputs": [
        {
          "internalType": "bytes32",
          "name": "",
          "type": "bytes32"
        }
      ],
      "stateMutability": "view",
      "type": "function"
    },
    {
      "inputs": [],
      "name": "PROPOSER_ROLE",
      "outputs": [
        {
          "internalType": "bytes32",
          "name": "",
          "type": "bytes32"
        }
      ],
      "stateMutability": "view",
      "type": "function"
    },
    {
      "inputs": [
        {
          "internalType": "bytes32",
          "name": "id",
          "type": "bytes32"
        }
      ],
      "name": "cancel",
      "outputs": [],
      "stateMutability": "nonpayable",
      "type": "function"
    },
    {
      "inputs": [
        {
          "internalType": "address",
          "name": "target",
          "type": "address"
        },
        {
          "internalType": "uint256",
          "name": "value",
          "type": "uint256"
        },
        {
          "internalType": "bytes",
          "name": "payload",
          "type": "bytes"
        },
        {
          "internalType": "bytes32",
          "name": "predecessor",
          "type": "bytes32"
        },
        {
          "internalType": "bytes32",
          "name": "salt",
          "type": "bytes32"
        }
      ],
      "name": "execute",
      "outputs": [],
      "stateMutability": "payable",
      "type": "function"
    },
    {
      "inputs": [
        {
          "internalType": "address[]",
          "name": "targets",
          "type": "address[]"
        },
        {
          "internalType": "uint256[]",
          "name": "values",
          "type": "uint256[]"
        },
        {
          "internalType": "bytes[]",
          "name": "payloads",
          "type": "bytes[]"
        },
        {
          "internalType": "bytes32",
          "name": "predecessor",
          "type": "bytes32"
        },
        {
          "internalType": "bytes32",
          "name": "salt",
          "type": "bytes32"
        }
      ],
      "name": "executeBatch",
      "outputs": [],
      "stateMutability": "payable",
      "type": "function"
    },
    {
      "inputs": [],
      "name": "getMinDelay",
      "outputs": [
        {
          "internalType": "uint256",
          "name": "",
          "type": "uint256"
        }
      ],
      "stateMutability": "view",
      "type": "function"
    },
    {
      "inputs": [
        {
          "internalType": "bytes32",
          "name": "id",
          "type": "bytes32"
        }
      ],
      "name": "getOperationState",
      "outputs": [
        {
          "internalType": "enum TimelockController.OperationState",
          "name": "",
          "type": "uint8"
        }
      ],
      "stateMutability": "view",
      "type": "function"
    },
    {
      "inputs": [
        {
          "internalType": "bytes32",
          "name": "role",
          "type": "bytes32"
        }
      ],
      "name": "getRoleAdmin",
      "outputs": [
        {
          "internalType": "bytes32",
          "name": "",
          "type": "bytes32"
        }
      ],
      "stateMutability": "view",
      "type": "function"
    },
    {
      "inputs": [
        {
          "internalType": "bytes32",
          "name": "id",
          "type": "bytes32"
        }
      ],
      "name": "getTimestamp",
      "outputs": [
        {
          "internalType": "uint256",
          "name": "",
          "type": "uint256"
        }
      ],
      "stateMutability": "view",
      "type": "function"
    },
    {
      "inputs": [
        {
          "internalType": "bytes32",
          "name": "role",
          "type": "bytes32"
        },
        {
          "internalType": "address",
          "name": "account",
          "type": "address"
        }
      ],
      "name": "grantRole",
      "outputs": [],
      "stateMutability": "nonpayable",
      "type": "function"
    },
    {
      "inputs": [
        {
          "internalType": "bytes32",
          "name": "role",
          "type": "bytes32"
        },
        {
          "internalType": "address",
          "name": "account",
          "type": "address"
        }
      ],
      "name": "hasRole",
      "outputs": [
        {
          "internalType": "bool",
          "name": "",
          "type": "bool"
        }
      ],
      "stateMutability": "view",
      "type": "function"
    },
    {
      "inputs": [
        {
          "internalType": "address",
          "name": "target",
          "type": "address"
        },
        {
          "internalType": "uint256",
          "name": "value",
          "type": "uint256"
        },
        {
          "internalType": "bytes",
          "name": "data",
          "type": "bytes"
        },
        {
          "internalType": "bytes32",
          "name": "predecessor",
          "type": "bytes32"
        },
        {
          "internalType": "bytes32",
          "name": "salt",
          "type": "bytes32"
        }
      ],
      "name": "hashOperation",
      "outputs": [
        {
          "internalType": "bytes32",
          "name": "",
          "type": "bytes32"
        }
      ],
      "stateMutability": "pure",
      "type": "function"
    },
    {
      "inputs": [
        {
          "internalType": "address[]",
          "name": "targets",
          "type": "address[]"
        },
        {
          "internalType": "uint256[]",
          "name": "values",
          "type": "uint256[]"
        },
        {
          "internalType": "bytes[]",
          "name": "payloads",
          "type": "bytes[]"
        },
        {
          "internalType": "bytes32",
          "name": "predecessor",
          "type": "bytes32"
        },
        {
          "internalType": "bytes32",
          "name": "salt",
          "type": "bytes32"
        }
      ],
      "name": "hashOperationBatch",
      "outputs": [
        {
          "internalType": "bytes32",
          "name": "",
          "type": "bytes32"
        }
      ],
      "stateMutability": "pure",
      "type": "function"
    },
    {
      "inputs": [
        {
          "internalType": "bytes32",
          "name": "id",
          "type": "bytes32"
        }
      ],
      "name": "isOperation",
      "outputs": [
        {
          "internalType": "bool",
          "name": "",
          "type": "bool"
        }
      ],
      "stateMutability": "view",
      "type": "function"
    },
    {
      "inputs": [
        {
          "internalType": "bytes32",
          "name": "id",
          "type": "bytes32"
        }
      ],
      "name": "isOperationDone",
      "outputs": [
        {
          "internalType": "bool",
          "name": "",
          "type": "bool"
        }
      ],
      "stateMutability": "view",
      "type": "function"
    },
    {
      "inputs": [
        {
          "internalType": "bytes32",
          "name": "id",
          "type": "bytes32"
        }
      ],
      "name": "isOperationPending",
      "outputs": [
        {
          "internalType": "bool",
          "name": "",
          "type": "bool"
        }
      ],
      "stateMutability": "view",
      "type": "function"
    },
    {
      "inputs": [
        {
          "internalType": "bytes32",
          "name": "id",
          "type": "bytes32"
        }
      ],
      "name": "isOperationReady",
      "outputs": [
        {
          "internalType": "bool",
          "name": "",
          "type": "bool"
        }
      ],
      "stateMutability": "view",
      "type": "function"
    },
    {
      "inputs": [
        {
          "internalType": "address",
          "name": "",
          "type": "address"
        },
        {
          "internalType": "address",
          "name": "",
          "type": "address"
        },
        {
          "internalType": "uint256[]",
          "name": "",
          "type": "uint256[]"
        },
        {
          "internalType": "uint256[]",
          "name": "",
          "type": "uint256[]"
        },
        {
          "internalType": "bytes",
          "name": "",
          "type": "bytes"
        }
      ],
      "name": "onERC1155BatchReceived",
      "outputs": [
        {
          "internalType": "bytes4",
          "name": "",
          "type": "bytes4"
        }
      ],
      "stateMutability": "nonpayable",
      "type": "function"
    },
    {
      "inputs": [
        {
          "internalType": "address",
          "name": "",
          "type": "address"
        },
        {
          "internalType": "address",
          "name": "",
          "type": "address"
        },
        {
          "internalType": "uint256",
          "name": "",
          "type": "uint256"
        },
        {
          "internalType": "uint256",
          "name": "",
          "type": "uint256"
        },
        {
          "internalType": "bytes",
          "name": "",
          "type": "bytes"
        }
      ],
      "name": "onERC1155Received",
      "outputs": [
        {
          "internalType": "bytes4",
          "name": "",
          "type": "bytes4"
        }
      ],
      "stateMutability": "nonpayable",
      "type": "function"
    },
    {
      "inputs": [
        {
          "internalType": "address",
          "name": "",
          "type": "address"
        },
        {
          "internalType": "address",
          "name": "",
          "type": "address"
        },
        {
          "internalType": "uint256",
          "name": "",
          "type": "uint256"
        },
        {
          "internalType": "bytes",
          "name": "",
          "type": "bytes"
        }
      ],
      "name": "onERC721Received",
      "outputs": [
        {
          "internalType": "bytes4",
          "name": "",
          "type": "bytes4"
        }
      ],
      "stateMutability": "nonpayable",
      "type": "function"
    },
    {
      "inputs": [
        {
          "internalType": "bytes32",
          "name": "role",
          "type": "bytes32"
        },
        {
          "internalType": "address",
          "name": "callerConfirmation",
          "type": "address"
        }
      ],
      "name": "renounceRole",
      "outputs": [],
      "stateMutability": "nonpayable",
      "type": "function"
    },
    {
      "inputs": [
        {
          "internalType": "address",
          "name": "admin",
          "type": "address"
        }
      ],
      "name": "revokeAdminRole",
      "outputs": [],
      "stateMutability": "nonpayable",
      "type": "function"
    },
    {
      "inputs": [
        {
          "internalType": "bytes32",
          "name": "role",
          "type": "bytes32"
        },
        {
          "internalType": "address",
          "name": "account",
          "type": "address"
        }
      ],
      "name": "revokeRole",
      "outputs": [],
      "stateMutability": "nonpayable",
      "type": "function"
    },
    {
      "inputs": [
        {
          "internalType": "address",
          "name": "target",
          "type": "address"
        },
        {
          "internalType": "uint256",
          "name": "value",
          "type": "uint256"
        },
        {
          "internalType": "bytes",
          "name": "data",
          "type": "bytes"
        },
        {
          "internalType": "bytes32",
          "name": "predecessor",
          "type": "bytes32"
        },
        {
          "internalType": "bytes32",
          "name": "salt",
          "type": "bytes32"
        },
        {
          "internalType": "uint256",
          "name": "delay",
          "type": "uint256"
        }
      ],
      "name": "schedule",
      "outputs": [],
      "stateMutability": "nonpayable",
      "type": "function"
    },
    {
      "inputs": [
        {
          "internalType": "address[]",
          "name": "targets",
          "type": "address[]"
        },
        {
          "internalType": "uint256[]",
          "name": "values",
          "type": "uint256[]"
        },
        {
          "internalType": "bytes[]",
          "name": "payloads",
          "type": "bytes[]"
        },
        {
          "internalType": "bytes32",
          "name": "predecessor",
          "type": "bytes32"
        },
        {
          "internalType": "bytes32",
          "name": "salt",
          "type": "bytes32"
        },
        {
          "internalType": "uint256",
          "name": "delay",
          "type": "uint256"
        }
      ],
      "name": "scheduleBatch",
      "outputs": [],
      "stateMutability": "nonpayable",
      "type": "function"
    },
    {
      "inputs": [
        {
          "internalType": "bytes4",
          "name": "interfaceId",
          "type": "bytes4"
        }
      ],
      "name": "supportsInterface",
      "outputs": [
        {
          "internalType": "bool",
          "name": "",
          "type": "bool"
        }
      ],
      "stateMutability": "view",
      "type": "function"
    },
    {
      "inputs": [
        {
          "internalType": "uint256",
          "name": "newDelay",
          "type": "uint256"
        }
      ],
      "name": "updateDelay",
      "outputs": [],
      "stateMutability": "nonpayable",
      "type": "function"
    },
    {
      "stateMutability": "payable",
      "type": "receive"
    }
  ],
  "bytecode": "0x608060405234801562000010575f80fd5b5060405162001e3638038062001e36833981016040819052620000339162000339565b83838383620000435f30620001b3565b506001600160a01b038116156200006257620000605f82620001b3565b505b5f5b83518110156200010b57620000bc7fb09aa5aeb3702cfd50b6b62bc4532604938f21248a27a1d5ca736082b6819cc1858381518110620000a857620000a8620003bb565b6020026020010151620001b360201b60201c565b50620000f77ffd643c72710c63c0180259aba6b2d05451e3591a24e58b62239378085726f783858381518110620000a857620000a8620003bb565b506200010381620003cf565b905062000064565b505f5b82518110156200016657620001527fd8aa0f3194971a2a116679f7c2090f6939c8d4e01a2a8d7e41d55e5351469e63848381518110620000a857620000a8620003bb565b506200015e81620003cf565b90506200010e565b506002849055604080515f8152602081018690527f11c24f4ead16507c69ac467fbd5e4eed5fb5c699626d2cc6d66421df253886d5910160405180910390a15050505050505050620003f4565b5f828152602081815260408083206001600160a01b038516845290915281205460ff1662000256575f838152602081815260408083206001600160a01b03861684529091529020805460ff191660011790556200020d3390565b6001600160a01b0316826001600160a01b0316847f2f8788117e7eff1d82e926ec794901d17c78024a50270940304540a733656f0d60405160405180910390a450600162000259565b505f5b92915050565b634e487b7160e01b5f52604160045260245ffd5b80516001600160a01b03811681146200028a575f80fd5b919050565b5f82601f8301126200029f575f80fd5b815160206001600160401b0380831115620002be57620002be6200025f565b8260051b604051601f19603f83011681018181108482111715620002e657620002e66200025f565b60405293845285810183019383810192508785111562000304575f80fd5b83870191505b848210156200032e576200031e8262000273565b835291830191908301906200030a565b979650505050505050565b5f805f80608085870312156200034d575f80fd5b845160208601519094506001600160401b03808211156200036c575f80fd5b6200037a888389016200028f565b9450604087015191508082111562000390575f80fd5b506200039f878288016200028f565b925050620003b06060860162000273565b905092959194509250565b634e487b7160e01b5f52603260045260245ffd5b5f60018201620003ed57634e487b7160e01b5f52601160045260245ffd5b5060010190565b611a3480620004025f395ff3fe6080604052600436106101bd575f3560e01c80638065657f116100f2578063b1c5f42711610092578063d547741f11610062578063d547741f14610570578063e38335e51461058f578063f23a6e61146105a2578063f27a0c92146105cd575f80fd5b8063b1c5f427146104dc578063bc197c81146104fb578063c4d252f514610526578063d45c443514610545575f80fd5b806391d14854116100cd57806391d14854146104585780639a19c7b014610477578063a217fddf14610496578063b08e51c0146104a9575f80fd5b80638065657f146103e75780638f2a0bb0146104065780638f61f4f514610425575f80fd5b80632ab0f5291161015d57806336568abe1161013857806336568abe1461035e578063584b153e1461037d57806364d623531461039c5780637958004c146103bb575f80fd5b80632ab0f529146103015780632f2ff15d1461032057806331d507501461033f575f80fd5b8063134008d311610198578063134008d31461025e57806313bc9f2014610271578063150b7a0214610290578063248a9ca3146102d3575f80fd5b806301d5062a146101c857806301ffc9a7146101e957806307bd02651461021d575f80fd5b366101c457005b5f80fd5b3480156101d3575f80fd5b506101e76101e23660046111f4565b6105e1565b005b3480156101f4575f80fd5b50610208610203366004611262565b6106b5565b60405190151581526020015b60405180910390f35b348015610228575f80fd5b506102507fd8aa0f3194971a2a116679f7c2090f6939c8d4e01a2a8d7e41d55e5351469e6381565b604051908152602001610214565b6101e761026c366004611289565b6106c5565b34801561027c575f80fd5b5061020861028b3660046112ef565b610777565b34801561029b575f80fd5b506102ba6102aa3660046113b5565b630a85bd0160e11b949350505050565b6040516001600160e01b03199091168152602001610214565b3480156102de575f80fd5b506102506102ed3660046112ef565b5f9081526020819052604090206001015490565b34801561030c575f80fd5b5061020861031b3660046112ef565b61079c565b34801561032b575f80fd5b506101e761033a366004611418565b6107a4565b34801561034a575f80fd5b506102086103593660046112ef565b6107ce565b348015610369575f80fd5b506101e7610378366004611418565b6107f2565b348015610388575f80fd5b506102086103973660046112ef565b61082a565b3480156103a7575f80fd5b506101e76103b63660046112ef565b61086f565b3480156103c6575f80fd5b506103da6103d53660046112ef565b6108e2565b6040516102149190611456565b3480156103f2575f80fd5b50610250610401366004611289565b61092a565b348015610411575f80fd5b506101e76104203660046114bc565b610968565b348015610430575f80fd5b506102507fb09aa5aeb3702cfd50b6b62bc4532604938f21248a27a1d5ca736082b6819cc181565b348015610463575f80fd5b50610208610472366004611418565b610afc565b348015610482575f80fd5b506101e7610491366004611564565b610b24565b3480156104a1575f80fd5b506102505f81565b3480156104b4575f80fd5b506102507ffd643c72710c63c0180259aba6b2d05451e3591a24e58b62239378085726f78381565b3480156104e7575f80fd5b506102506104f636600461157d565b610b80565b348015610506575f80fd5b506102ba610515366004611699565b63bc197c8160e01b95945050505050565b348015610531575f80fd5b506101e76105403660046112ef565b610bc4565b348015610550575f80fd5b5061025061055f3660046112ef565b5f9081526001602052604090205490565b34801561057b575f80fd5b506101e761058a366004611418565b610c6e565b6101e761059d36600461157d565b610c92565b3480156105ad575f80fd5b506102ba6105bc36600461173b565b63f23a6e6160e01b95945050505050565b3480156105d8575f80fd5b50600254610250565b7fb09aa5aeb3702cfd50b6b62bc4532604938f21248a27a1d5ca736082b6819cc161060b81610e19565b5f61061a89898989898961092a565b90506106268184610e23565b5f817f4cf4410cc57040e44862ef0f45f3dd5a5e02db8eb8add648d4b0e236f1d07dca8b8b8b8b8b8a604051610661969594939291906117c2565b60405180910390a383156106aa57807f20fda5fd27a1ea7bf5b9567f143ac5470bb059374a27e8f67cb44f946f6d0387856040516106a191815260200190565b60405180910390a25b505050505050505050565b5f6106bf82610eb4565b92915050565b7fd8aa0f3194971a2a116679f7c2090f6939c8d4e01a2a8d7e41d55e5351469e636106f0815f610afc565b6106fe576106fe8133610ed8565b5f61070d88888888888861092a565b90506107198185610f15565b61072588888888610f63565b5f817fc2617efa69bab66782fa219543714338489c4e9e178271560a91b82c3f612b588a8a8a8a60405161075c94939291906117fe565b60405180910390a361076d81610fd7565b5050505050505050565b5f60025b610784836108e2565b600381111561079557610795611442565b1492915050565b5f600361077b565b5f828152602081905260409020600101546107be81610e19565b6107c88383611002565b50505050565b5f806107d9836108e2565b60038111156107ea576107ea611442565b141592915050565b6001600160a01b038116331461081b5760405163334bd91960e11b815260040160405180910390fd5b6108258282611091565b505050565b5f80610835836108e2565b9050600181600381111561084b5761084b611442565b14806108685750600281600381111561086657610866611442565b145b9392505050565b333081146108a05760405163e2850c5960e01b81526001600160a01b03821660048201526024015b60405180910390fd5b60025460408051918252602082018490527f11c24f4ead16507c69ac467fbd5e4eed5fb5c699626d2cc6d66421df253886d5910160405180910390a150600255565b5f81815260016020526040812054805f036108ff57505f92915050565b600181036109105750600392915050565b428111156109215750600192915050565b50600292915050565b5f868686868686604051602001610946969594939291906117c2565b6040516020818303038152906040528051906020012090509695505050505050565b7fb09aa5aeb3702cfd50b6b62bc4532604938f21248a27a1d5ca736082b6819cc161099281610e19565b88871415806109a15750888514155b156109d3576040516001624fcdef60e01b03198152600481018a90526024810186905260448101889052606401610897565b5f6109e48b8b8b8b8b8b8b8b610b80565b90506109f08184610e23565b5f5b8a811015610aad5780827f4cf4410cc57040e44862ef0f45f3dd5a5e02db8eb8add648d4b0e236f1d07dca8e8e85818110610a2f57610a2f61182f565b9050602002016020810190610a449190611564565b8d8d86818110610a5657610a5661182f565b905060200201358c8c87818110610a6f57610a6f61182f565b9050602002810190610a819190611843565b8c8b604051610a95969594939291906117c2565b60405180910390a3610aa681611899565b90506109f2565b508315610aef57807f20fda5fd27a1ea7bf5b9567f143ac5470bb059374a27e8f67cb44f946f6d038785604051610ae691815260200190565b60405180910390a25b5050505050505050505050565b5f918252602082815260408084206001600160a01b0393909316845291905290205460ff1690565b610b2e5f82610afc565b610b735760405162461bcd60e51b815260206004820152601660248201527521b0b63632b91034b9903737ba1030b71030b236b4b760511b6044820152606401610897565b610b7d5f82610c6e565b50565b5f8888888888888888604051602001610ba098979695949392919061193d565b60405160208183030381529060405280519060200120905098975050505050505050565b7ffd643c72710c63c0180259aba6b2d05451e3591a24e58b62239378085726f783610bee81610e19565b610bf78261082a565b610c335781610c0660026110fa565b610c1060016110fa565b604051635ead8eb560e01b81526004810193909352176024820152604401610897565b5f828152600160205260408082208290555183917fbaa1eb22f2a492ba1a5fea61b8df4d27c6c8b5f3971e63bb58fa14ff72eedb7091a25050565b5f82815260208190526040902060010154610c8881610e19565b6107c88383611091565b7fd8aa0f3194971a2a116679f7c2090f6939c8d4e01a2a8d7e41d55e5351469e63610cbd815f610afc565b610ccb57610ccb8133610ed8565b8786141580610cda5750878414155b15610d0c576040516001624fcdef60e01b03198152600481018990526024810185905260448101879052606401610897565b5f610d1d8a8a8a8a8a8a8a8a610b80565b9050610d298185610f15565b5f5b89811015610e03575f8b8b83818110610d4657610d4661182f565b9050602002016020810190610d5b9190611564565b90505f8a8a84818110610d7057610d7061182f565b905060200201359050365f8a8a86818110610d8d57610d8d61182f565b9050602002810190610d9f9190611843565b91509150610daf84848484610f63565b84867fc2617efa69bab66782fa219543714338489c4e9e178271560a91b82c3f612b5886868686604051610de694939291906117fe565b60405180910390a35050505080610dfc90611899565b9050610d2b565b50610e0d81610fd7565b50505050505050505050565b610b7d8133610ed8565b610e2c826107ce565b15610e5d5781610e3b5f6110fa565b604051635ead8eb560e01b815260048101929092526024820152604401610897565b5f610e6760025490565b905080821015610e9457604051635433660960e01b81526004810183905260248101829052604401610897565b610e9e82426119dc565b5f93845260016020526040909320929092555050565b5f6001600160e01b03198216630271189760e51b14806106bf57506106bf8261111c565b610ee28282610afc565b610f115760405163e2517d3f60e01b81526001600160a01b038216600482015260248101839052604401610897565b5050565b610f1e82610777565b610f2d5781610e3b60026110fa565b8015801590610f425750610f408161079c565b155b15610f115760405163121534c360e31b815260048101829052602401610897565b5f80856001600160a01b0316858585604051610f809291906119ef565b5f6040518083038185875af1925050503d805f8114610fba576040519150601f19603f3d011682016040523d82523d5f602084013e610fbf565b606091505b5091509150610fce8282611150565b50505050505050565b610fe081610777565b610fef5780610e3b60026110fa565b5f90815260016020819052604090912055565b5f61100d8383610afc565b61108a575f838152602081815260408083206001600160a01b03861684529091529020805460ff191660011790556110423390565b6001600160a01b0316826001600160a01b0316847f2f8788117e7eff1d82e926ec794901d17c78024a50270940304540a733656f0d60405160405180910390a45060016106bf565b505f6106bf565b5f61109c8383610afc565b1561108a575f838152602081815260408083206001600160a01b0386168085529252808320805460ff1916905551339286917ff6391f5c32d9c69d2a47ea670b442974b53935d1edc7fd64eb21e047a839171b9190a45060016106bf565b5f81600381111561110d5761110d611442565b600160ff919091161b92915050565b5f6001600160e01b03198216637965db0b60e01b14806106bf57506301ffc9a760e01b6001600160e01b03198316146106bf565b606082611165576111608261116c565b6106bf565b50806106bf565b80511561117c5780518082602001fd5b604051630a12f52160e11b815260040160405180910390fd5b80356001600160a01b03811681146111ab575f80fd5b919050565b5f8083601f8401126111c0575f80fd5b5081356001600160401b038111156111d6575f80fd5b6020830191508360208285010111156111ed575f80fd5b9250929050565b5f805f805f805f60c0888a03121561120a575f80fd5b61121388611195565b96506020880135955060408801356001600160401b03811115611234575f80fd5b6112408a828b016111b0565b989b979a50986060810135976080820135975060a09091013595509350505050565b5f60208284031215611272575f80fd5b81356001600160e01b031981168114610868575f80fd5b5f805f805f8060a0878903121561129e575f80fd5b6112a787611195565b95506020870135945060408701356001600160401b038111156112c8575f80fd5b6112d489828a016111b0565b979a9699509760608101359660809091013595509350505050565b5f602082840312156112ff575f80fd5b5035919050565b634e487b7160e01b5f52604160045260245ffd5b604051601f8201601f191681016001600160401b038111828210171561134257611342611306565b604052919050565b5f82601f830112611359575f80fd5b81356001600160401b0381111561137257611372611306565b611385601f8201601f191660200161131a565b818152846020838601011115611399575f80fd5b816020850160208301375f918101602001919091529392505050565b5f805f80608085870312156113c8575f80fd5b6113d185611195565b93506113df60208601611195565b92506040850135915060608501356001600160401b03811115611400575f80fd5b61140c8782880161134a565b91505092959194509250565b5f8060408385031215611429575f80fd5b8235915061143960208401611195565b90509250929050565b634e487b7160e01b5f52602160045260245ffd5b602081016004831061147657634e487b7160e01b5f52602160045260245ffd5b91905290565b5f8083601f84011261148c575f80fd5b5081356001600160401b038111156114a2575f80fd5b6020830191508360208260051b85010111156111ed575f80fd5b5f805f805f805f805f60c08a8c0312156114d4575f80fd5b89356001600160401b03808211156114ea575f80fd5b6114f68d838e0161147c565b909b50995060208c013591508082111561150e575f80fd5b61151a8d838e0161147c565b909950975060408c0135915080821115611532575f80fd5b5061153f8c828d0161147c565b9a9d999c50979a969997986060880135976080810135975060a0013595509350505050565b5f60208284031215611574575f80fd5b61086882611195565b5f805f805f805f8060a0898b031215611594575f80fd5b88356001600160401b03808211156115aa575f80fd5b6115b68c838d0161147c565b909a50985060208b01359150808211156115ce575f80fd5b6115da8c838d0161147c565b909850965060408b01359150808211156115f2575f80fd5b506115ff8b828c0161147c565b999c989b509699959896976060870135966080013595509350505050565b5f82601f83011261162c575f80fd5b813560206001600160401b0382111561164757611647611306565b8160051b61165682820161131a565b928352848101820192828101908785111561166f575f80fd5b83870192505b8483101561168e57823582529183019190830190611675565b979650505050505050565b5f805f805f60a086880312156116ad575f80fd5b6116b686611195565b94506116c460208701611195565b935060408601356001600160401b03808211156116df575f80fd5b6116eb89838a0161161d565b94506060880135915080821115611700575f80fd5b61170c89838a0161161d565b93506080880135915080821115611721575f80fd5b5061172e8882890161134a565b9150509295509295909350565b5f805f805f60a0868803121561174f575f80fd5b61175886611195565b945061176660208701611195565b9350604086013592506060860135915060808601356001600160401b0381111561178e575f80fd5b61172e8882890161134a565b81835281816020850137505f828201602090810191909152601f909101601f19169091010190565b60018060a01b038716815285602082015260a060408201525f6117e960a08301868861179a565b60608301949094525060800152949350505050565b60018060a01b0385168152836020820152606060408201525f61182560608301848661179a565b9695505050505050565b634e487b7160e01b5f52603260045260245ffd5b5f808335601e19843603018112611858575f80fd5b8301803591506001600160401b03821115611871575f80fd5b6020019150368190038213156111ed575f80fd5b634e487b7160e01b5f52601160045260245ffd5b5f600182016118aa576118aa611885565b5060010190565b8183525f6020808501808196508560051b81019150845f5b878110156119305782840389528135601e198836030181126118e9575f80fd5b870185810190356001600160401b03811115611903575f80fd5b803603821315611911575f80fd5b61191c86828461179a565b9a87019a95505050908401906001016118c9565b5091979650505050505050565b60a080825281018890525f8960c08301825b8b81101561197d576001600160a01b0361196884611195565b1682526020928301929091019060010161194f565b5083810360208501528881526001600160fb1b0389111561199c575f80fd5b8860051b9150818a602083013701828103602090810160408501526119c490820187896118b1565b60608401959095525050608001529695505050505050565b808201808211156106bf576106bf611885565b818382375f910190815291905056fea26469706673582212209ad9315d7f7730c1f7da2177f3e6b654f9bdf26a9e834e25126f53bce10b33f664736f6c63430008140033",
  "linkReferences": {},
  "deployedLinkReferences": {}
}