{
  "address": "0x5FbDB2315678afecb367f032d93F642f64180aa3",
  "abi": [
    {
      "inputs": [],
      "stateMutability": "nonpayable",
      "type": "constructor"
    },
    {
      "inputs": [],
      "name": "CheckpointUnorderedInsertion",
      "type": "error"
    },
    {
      "inputs": [],
      "name": "ECDSAInvalidSignature",
      "type": "error"
    },
    {
      "inputs": [
        {
          "internalType": "uint256",
          "name": "length",
          "type": "uint256"
        }
      ],
      "name": "ECDSAInvalidSignatureLength",
      "type": "error"
    },
    {
      "inputs": [
        {
          "internalType": "bytes32",
          "name": "s",
          "type": "bytes32"
        }
      ],
      "name": "ECDSAInvalidSignatureS",
      "type": "error"
    },
    {
      "inputs": [
        {
          "internalType": "uint256",
          "name": "increasedSupply",
          "type": "uint256"
        },
        {
          "internalType": "uint256",
          "name": "cap",
          "type": "uint256"
        }
      ],
      "name": "ERC20ExceededSafeSupply",
      "type": "error"
    },
    {
      "inputs": [
        {
          "internalType": "address",
          "name": "spender",
          "type": "address"
        },
        {
          "internalType": "uint256",
          "name": "allowance",
          "type": "uint256"
        },
        {
          "internalType": "uint256",
          "name": "needed",
          "type": "uint256"
        }
      ],
      "name": "ERC20InsufficientAllowance",
      "type": "error"
    },
    {
      "inputs": [
        {
          "internalType": "address",
          "name": "sender",
          "type": "address"
        },
        {
          "internalType": "uint256",
          "name": "balance",
          "type": "uint256"
        },
        {
          "internalType": "uint256",
          "name": "needed",
          "type": "uint256"
        }
      ],
      "name": "ERC20InsufficientBalance",
      "type": "error"
    },
    {
      "inputs": [
        {
          "internalType": "address",
          "name": "approver",
          "type": "address"
        }
      ],
      "name": "ERC20InvalidApprover",
      "type": "error"
    },
    {
      "inputs": [
        {
          "internalType": "address",
          "name": "receiver",
          "type": "address"
        }
      ],
      "name": "ERC20InvalidReceiver",
      "type": "error"
    },
    {
      "inputs": [
        {
          "internalType": "address",
          "name": "sender",
          "type": "address"
        }
      ],
      "name": "ERC20InvalidSender",
      "type": "error"
    },
    {
      "inputs": [
        {
          "internalType": "address",
          "name": "spender",
          "type": "address"
        }
      ],
      "name": "ERC20InvalidSpender",
      "type": "error"
    },
    {
      "inputs": [
        {
          "internalType": "uint256",
          "name": "deadline",
          "type": "uint256"
        }
      ],
      "name": "ERC2612ExpiredSignature",
      "type": "error"
    },
    {
      "inputs": [
        {
          "internalType": "address",
          "name": "signer",
          "type": "address"
        },
        {
          "internalType": "address",
          "name": "owner",
          "type": "address"
        }
      ],
      "name": "ERC2612InvalidSigner",
      "type": "error"
    },
    {
      "inputs": [
        {
          "internalType": "uint256",
          "name": "timepoint",
          "type": "uint256"
        },
        {
          "internalType": "uint48",
          "name": "clock",
          "type": "uint48"
        }
      ],
      "name": "ERC5805FutureLookup",
      "type": "error"
    },
    {
      "inputs": [],
      "name": "ERC6372InconsistentClock",
      "type": "error"
    },
    {
      "inputs": [
        {
          "internalType": "address",
          "name": "account",
          "type": "address"
        },
        {
          "internalType": "uint256",
          "name": "currentNonce",
          "type": "uint256"
        }
      ],
      "name": "InvalidAccountNonce",
      "type": "error"
    },
    {
      "inputs": [],
      "name": "InvalidShortString",
      "type": "error"
    },
    {
      "inputs": [
        {
          "internalType": "address",
          "name": "owner",
          "type": "address"
        }
      ],
      "name": "OwnableInvalidOwner",
      "type": "error"
    },
    {
      "inputs": [
        {
          "internalType": "address",
          "name": "account",
          "type": "address"
        }
      ],
      "name": "OwnableUnauthorizedAccount",
      "type": "error"
    },
    {
      "inputs": [
        {
          "internalType": "uint8",
          "name": "bits",
          "type": "uint8"
        },
        {
          "internalType": "uint256",
          "name": "value",
          "type": "uint256"
        }
      ],
      "name": "SafeCastOverflowedUintDowncast",
      "type": "error"
    },
    {
      "inputs": [
        {
          "internalType": "string",
          "name": "str",
          "type": "string"
        }
      ],
      "name": "StringTooLong",
      "type": "error"
    },
    {
      "inputs": [
        {
          "internalType": "uint256",
          "name": "expiry",
          "type": "uint256"
        }
      ],
      "name": "VotesExpiredSignature",
      "type": "error"
    },
    {
      "anonymous": false,
      "inputs": [
        {
          "indexed": true,
          "internalType": "address",
          "name": "owner",
          "type": "address"
        },
        {
          "indexed": true,
          "internalType": "address",
          "name": "spender",
          "type": "address"
        },
        {
          "indexed": false,
          "internalType": "uint256",
          "name": "value",
          "type": "uint256"
        }
      ],
      "name": "Approval",
      "type": "event"
    },
    {
      "anonymous": false,
      "inputs": [
        {
          "indexed": true,
          "internalType": "address",
          "name": "delegator",
          "type": "address"
        },
        {
          "indexed": true,
          "internalType": "address",
          "name": "fromDelegate",
          "type": "address"
        },
        {
          "indexed": true,
          "internalType": "address",
          "name": "toDelegate",
          "type": "address"
        }
      ],
      "name": "DelegateChanged",
      "type": "event"
    },
    {
      "anonymous": false,
      "inputs": [
        {
          "indexed": true,
          "internalType": "address",
          "name": "delegate",
          "type": "address"
        },
        {
          "indexed": false,
          "internalType": "uint256",
          "name": "previousVotes",
          "type": "uint256"
        },
        {
          "indexed": false,
          "internalType": "uint256",
          "name": "newVotes",
          "type": "uint256"
        }
      ],
      "name": "DelegateVotesChanged",
      "type": "event"
    },
    {
      "anonymous": false,
      "inputs": [],
      "name": "EIP712DomainChanged",
      "type": "event"
    },
    {
      "anonymous": false,
      "inputs": [
        {
          "indexed": true,
          "internalType": "address",
          "name": "previousOwner",
          "type": "address"
        },
        {
          "indexed": true,
          "internalType": "address",
          "name": "newOwner",
          "type": "address"
        }
      ],
      "name": "OwnershipTransferred",
      "type": "event"
    },
    {
      "anonymous": false,
      "inputs": [
        {
          "indexed": true,
          "internalType": "address",
          "name": "from",
          "type": "address"
        },
        {
          "indexed": true,
          "internalType": "address",
          "name": "to",
          "type": "address"
        },
        {
          "indexed": false,
          "internalType": "uint256",
          "name": "value",
          "type": "uint256"
        }
      ],
      "name": "Transfer",
      "type": "event"
    },
    {
      "inputs": [],
      "name": "CLOCK_MODE",
      "outputs": [
        {
          "internalType": "string",
          "name": "",
          "type": "string"
        }
      ],
      "stateMutability": "view",
      "type": "function"
    },
    {
      "inputs": [],
      "name": "DOMAIN_SEPARATOR",
      "outputs": [
        {
          "internalType": "bytes32",
          "name": "",
          "type": "bytes32"
        }
      ],
      "stateMutability": "view",
      "type": "function"
    },
    {
      "inputs": [
        {
          "internalType": "address",
          "name": "owner",
          "type": "address"
        },
        {
          "internalType": "address",
          "name": "spender",
          "type": "address"
        }
      ],
      "name": "allowance",
      "outputs": [
        {
          "internalType": "uint256",
          "name": "",
          "type": "uint256"
        }
      ],
      "stateMutability": "view",
      "type": "function"
    },
    {
      "inputs": [
        {
          "internalType": "address",
          "name": "spender",
          "type": "address"
        },
        {
          "internalType": "uint256",
          "name": "value",
          "type": "uint256"
        }
      ],
      "name": "approve",
      "outputs": [
        {
          "internalType": "bool",
          "name": "",
          "type": "bool"
        }
      ],
      "stateMutability": "nonpayable",
      "type": "function"
    },
    {
      "inputs": [
        {
          "internalType": "address",
          "name": "account",
          "type": "address"
        }
      ],
      "name": "balanceOf",
      "outputs": [
        {
          "internalType": "uint256",
          "name": "",
          "type": "uint256"
        }
      ],
      "stateMutability": "view",
      "type": "function"
    },
    {
      "inputs": [
        {
          "internalType": "address",
          "name": "account",
          "type": "address"
        },
        {
          "internalType": "uint32",
          "name": "pos",
          "type": "uint32"
        }
      ],
      "name": "checkpoints",
      "outputs": [
        {
          "components": [
            {
              "internalType": "uint48",
              "name": "_key",
              "type": "uint48"
            },
            {
              "internalType": "uint208",
              "name": "_value",
              "type": "uint208"
            }
          ],
          "internalType": "struct Checkpoints.Checkpoint208",
          "name": "",
          "type": "tuple"
        }
      ],
      "stateMutability": "view",
      "type": "function"
    },
    {
      "inputs": [],
      "name": "clock",
      "outputs": [
        {
          "internalType": "uint48",
          "name": "",
          "type": "uint48"
        }
      ],
      "stateMutability": "view",
      "type": "function"
    },
    {
      "inputs": [],
      "name": "decimals",
      "outputs": [
        {
          "internalType": "uint8",
          "name": "",
          "type": "uint8"
        }
      ],
      "stateMutability": "view",
      "type": "function"
    },
    {
      "inputs": [
        {
          "internalType": "address",
          "name": "delegatee",
          "type": "address"
        }
      ],
      "name": "delegate",
      "outputs": [],
      "stateMutability": "nonpayable",
      "type": "function"
    },
    {
      "inputs": [
        {
          "internalType": "address",
          "name": "delegatee",
          "type": "address"
        },
        {
          "internalType": "uint256",
          "name": "nonce",
          "type": "uint256"
        },
        {
          "internalType": "uint256",
          "name": "expiry",
          "type": "uint256"
        },
        {
          "internalType": "uint8",
          "name": "v",
          "type": "uint8"
        },
        {
          "internalType": "bytes32",
          "name": "r",
          "type": "bytes32"
        },
        {
          "internalType": "bytes32",
          "name": "s",
          "type": "bytes32"
        }
      ],
      "name": "delegateBySig",
      "outputs": [],
      "stateMutability": "nonpayable",
      "type": "function"
    },
    {
      "inputs": [
        {
          "internalType": "address",
          "name": "account",
          "type": "address"
        }
      ],
      "name": "delegates",
      "outputs": [
        {
          "internalType": "address",
          "name": "",
          "type": "address"
        }
      ],
      "stateMutability": "view",
      "type": "function"
    },
    {
      "inputs": [],
      "name": "eip712Domain",
      "outputs": [
        {
          "internalType": "bytes1",
          "name": "fields",
          "type": "bytes1"
        },
        {
          "internalType": "string",
          "name": "name",
          "type": "string"
        },
        {
          "internalType": "string",
          "name": "version",
          "type": "string"
        },
        {
          "internalType": "uint256",
          "name": "chainId",
          "type": "uint256"
        },
        {
          "internalType": "address",
          "name": "verifyingContract",
          "type": "address"
        },
        {
          "internalType": "bytes32",
          "name": "salt",
          "type": "bytes32"
        },
        {
          "internalType": "uint256[]",
          "name": "extensions",
          "type": "uint256[]"
        }
      ],
      "stateMutability": "view",
      "type": "function"
    },
    {
      "inputs": [
        {
          "internalType": "uint256",
          "name": "timepoint",
          "type": "uint256"
        }
      ],
      "name": "getPastTotalSupply",
      "outputs": [
        {
          "internalType": "uint256",
          "name": "",
          "type": "uint256"
        }
      ],
      "stateMutability": "view",
      "type": "function"
    },
    {
      "inputs": [
        {
          "internalType": "address",
          "name": "account",
          "type": "address"
        },
        {
          "internalType": "uint256",
          "name": "timepoint",
          "type": "uint256"
        }
      ],
      "name": "getPastVotes",
      "outputs": [
        {
          "internalType": "uint256",
          "name": "",
          "type": "uint256"
        }
      ],
      "stateMutability": "view",
      "type": "function"
    },
    {
      "inputs": [
        {
          "internalType": "address",
          "name": "account",
          "type": "address"
        }
      ],
      "name": "getVotes",
      "outputs": [
        {
          "internalType": "uint256",
          "name": "",
          "type": "uint256"
        }
      ],
      "stateMutability": "view",
      "type": "function"
    },
    {
      "inputs": [],
      "name": "name",
      "outputs": [
        {
          "internalType": "string",
          "name": "",
          "type": "string"
        }
      ],
      "stateMutability": "view",
      "type": "function"
    },
    {
      "inputs": [
        {
          "internalType": "address",
          "name": "owner",
          "type": "address"
        }
      ],
      "name": "nonces",
      "outputs": [
        {
          "internalType": "uint256",
          "name": "",
          "type": "uint256"
        }
      ],
      "stateMutability": "view",
      "type": "function"
    },
    {
      "inputs": [
        {
          "internalType": "address",
          "name": "account",
          "type": "address"
        }
      ],
      "name": "numCheckpoints",
      "outputs": [
        {
          "internalType": "uint32",
          "name": "",
          "type": "uint32"
        }
      ],
      "stateMutability": "view",
      "type": "function"
    },
    {
      "inputs": [],
      "name": "owner",
      "outputs": [
        {
          "internalType": "address",
          "name": "",
          "type": "address"
        }
      ],
      "stateMutability": "view",
      "type": "function"
    },
    {
      "inputs": [
        {
          "internalType": "address",
          "name": "owner",
          "type": "address"
        },
        {
          "internalType": "address",
          "name": "spender",
          "type": "address"
        },
        {
          "internalType": "uint256",
          "name": "value",
          "type": "uint256"
        },
        {
          "internalType": "uint256",
          "name": "deadline",
          "type": "uint256"
        },
        {
          "internalType": "uint8",
          "name": "v",
          "type": "uint8"
        },
        {
          "internalType": "bytes32",
          "name": "r",
          "type": "bytes32"
        },
        {
          "internalType": "bytes32",
          "name": "s",
          "type": "bytes32"
        }
      ],
      "name": "permit",
      "outputs": [],
      "stateMutability": "nonpayable",
      "type": "function"
    },
    {
      "inputs": [],
      "name": "renounceOwnership",
      "outputs": [],
      "stateMutability": "nonpayable",
      "type": "function"
    },
    {
      "inputs": [],
      "name": "s_maxSupply",
      "outputs": [
        {
          "internalType": "uint256",
          "name": "",
          "type": "uint256"
        }
      ],
      "stateMutability": "view",
      "type": "function"
    },
    {
      "inputs": [],
      "name": "symbol",
      "outputs": [
        {
          "internalType": "string",
          "name": "",
          "type": "string"
        }
      ],
      "stateMutability": "view",
      "type": "function"
    },
    {
      "inputs": [],
      "name": "totalSupply",
      "outputs": [
        {
          "internalType": "uint256",
          "name": "",
          "type": "uint256"
        }
      ],
      "stateMutability": "view",
      "type": "function"
    },
    {
      "inputs": [
        {
          "internalType": "address",
          "name": "to",
          "type": "address"
        },
        {
          "internalType": "uint256",
          "name": "value",
          "type": "uint256"
        }
      ],
      "name": "transfer",
      "outputs": [
        {
          "internalType": "bool",
          "name": "",
          "type": "bool"
        }
      ],
      "stateMutability": "nonpayable",
      "type": "function"
    },
    {
      "inputs": [
        {
          "internalType": "address",
          "name": "from",
          "type": "address"
        },
        {
          "internalType": "address",
          "name": "to",
          "type": "address"
        },
        {
          "internalType": "uint256",
          "name": "value",
          "type": "uint256"
        }
      ],
      "name": "transferFrom",
      "outputs": [
        {
          "internalType": "bool",
          "name": "",
          "type": "bool"
        }
      ],
      "stateMutability": "nonpayable",
      "type": "function"
    },
    {
      "inputs": [
        {
          "internalType": "address",
          "name": "newOwner",
          "type": "address"
        }
      ],
      "name": "transferOwnership",
      "outputs": [],
      "stateMutability": "nonpayable",
      "type": "function"
    }
  ],
  "transactionHash": "0x68612a526b165926e870f7fa7d11b3d311f5ad4c96c97a07d4ff91bb096fd6ce",
  "args": [],
  "numDeployments": 1,
  "solcInputHash": "033e2906c6b8c0ea9003b4a7e58fb46f",
  "bytecode": "0x61016060405269d3c21bcecceda1000000600c553480156200001f575f80fd5b50336040518060400160405280600f81526020016e2234b93a3ca232b2b239aa37b5b2b760891b81525080604051806040016040528060018152602001603160f81b8152506040518060400160405280600f81526020016e2234b93a3ca232b2b239aa37b5b2b760891b8152506040518060400160405280600381526020016244344360e81b8152508160039081620000b99190620009f4565b506004620000c88282620009f4565b50620000da91508390506005620001d7565b61012052620000eb816006620001d7565b61014052815160208084019190912060e052815190820120610100524660a0526200017860e05161010051604080517f8b73c3c69bb8fe3d512ecc4cf759cc79239f7b179b0ffacaa9a75d522b39400f60208201529081019290925260608201524660808201523060a08201525f9060c00160405160208183030381529060405280519060200120905090565b60805250503060c052506001600160a01b038116620001b157604051631e4fbdf760e01b81525f60048201526024015b60405180910390fd5b620001bc816200020f565b50620001d133600c546200026060201b60201c565b62000bba565b5f602083511015620001f657620001ee836200029c565b905062000209565b81620002038482620009f4565b5060ff90505b92915050565b600b80546001600160a01b038381166001600160a01b0319831681179093556040519116919082907f8be0079c531659141344cd1fd0a4f28419497f9722a3daafe3b4186f6b6457e0905f90a35050565b6001600160a01b0382166200028b5760405163ec442f0560e01b81525f6004820152602401620001a8565b620002985f8383620002de565b5050565b5f80829050601f81511115620002c9578260405163305a27a960e01b8152600401620001a8919062000abc565b8051620002d68262000b09565b179392505050565b620002eb838383620002f0565b505050565b620002fd8383836200035e565b6001600160a01b03831662000351575f6200031760025490565b90506001600160d01b03808211156200034e57604051630e58ae9360e11b81526004810183905260248101829052604401620001a8565b50505b620002eb8383836200048d565b6001600160a01b0383166200038c578060025f82825462000380919062000b41565b90915550620003fe9050565b6001600160a01b0383165f9081526020819052604090205481811015620003e05760405163391434e360e21b81526001600160a01b03851660048201526024810182905260448101839052606401620001a8565b6001600160a01b0384165f9081526020819052604090209082900390555b6001600160a01b0382166200041c576002805482900390556200043a565b6001600160a01b0382165f9081526020819052604090208054820190555b816001600160a01b0316836001600160a01b03167fddf252ad1be2c89b69c2b068fc378daa952ba7f163c4a11628f55a4df523b3ef836040516200048091815260200190565b60405180910390a3505050565b6001600160a01b038316620004c257620004bf600a620009a36200052460201b17620004b98462000538565b62000571565b50505b6001600160a01b038216620004f157620004ee600a620009ae620005ad60201b17620004b98462000538565b50505b6001600160a01b038381165f90815260086020526040808220548584168352912054620002eb92918216911683620005ba565b5f62000531828462000b57565b9392505050565b5f6001600160d01b038211156200056d576040516306dfcc6560e41b815260d0600482015260248101839052604401620001a8565b5090565b5f80620005a0620005816200071c565b6200059762000590886200072c565b868860201c565b87919062000778565b915091505b935093915050565b5f62000531828462000b81565b816001600160a01b0316836001600160a01b031614158015620005dc57505f81115b15620002eb576001600160a01b038316156200067d576001600160a01b0383165f90815260096020908152604082208291620006299190620005ad901b620009ae17620004b98662000538565b6001600160d01b031691506001600160d01b03169150846001600160a01b03165f8051602062002afb833981519152838360405162000672929190918252602082015260400190565b60405180910390a250505b6001600160a01b03821615620002eb576001600160a01b0382165f90815260096020908152604082208291620006c4919062000524901b620009a317620004b98662000538565b6001600160d01b031691506001600160d01b03169150836001600160a01b03165f8051602062002afb83398151915283836040516200070d929190918252602082015260400190565b60405180910390a25050505050565b5f6200072762000787565b905090565b80545f908015620007705762000756836200074960018462000ba4565b5f91825260209091200190565b54660100000000000090046001600160d01b031662000531565b5f9392505050565b5f80620005a085858562000793565b5f620007274362000921565b82545f9081908015620008c3575f620007b3876200074960018562000ba4565b60408051808201909152905465ffffffffffff80821680845266010000000000009092046001600160d01b0316602084015291925090871610156200080b57604051632520601d60e01b815260040160405180910390fd5b805165ffffffffffff8088169116036200085f578462000832886200074960018662000ba4565b80546001600160d01b039290921666010000000000000265ffffffffffff909216919091179055620008b2565b6040805180820190915265ffffffffffff80881682526001600160d01b0380881660208085019182528b54600181018d555f8d815291909120945191519092166601000000000000029216919091179101555b602001519250839150620005a59050565b50506040805180820190915265ffffffffffff80851682526001600160d01b0380851660208085019182528854600181018a555f8a8152918220955192519093166601000000000000029190931617920191909155905081620005a5565b5f65ffffffffffff8211156200056d576040516306dfcc6560e41b81526030600482015260248101839052604401620001a8565b634e487b7160e01b5f52604160045260245ffd5b600181811c908216806200097e57607f821691505b6020821081036200099d57634e487b7160e01b5f52602260045260245ffd5b50919050565b601f821115620002eb575f81815260208120601f850160051c81016020861015620009cb5750805b601f850160051c820191505b81811015620009ec57828155600101620009d7565b505050505050565b81516001600160401b0381111562000a105762000a1062000955565b62000a288162000a21845462000969565b84620009a3565b602080601f83116001811462000a5e575f841562000a465750858301515b5f19600386901b1c1916600185901b178555620009ec565b5f85815260208120601f198616915b8281101562000a8e5788860151825594840194600190910190840162000a6d565b508582101562000aac57878501515f19600388901b60f8161c191681555b5050505050600190811b01905550565b5f6020808352835180828501525f5b8181101562000ae95785810183015185820160400152820162000acb565b505f604082860101526040601f19601f8301168501019250505092915050565b805160208083015191908110156200099d575f1960209190910360031b1b16919050565b634e487b7160e01b5f52601160045260245ffd5b8082018082111562000209576200020962000b2d565b6001600160d01b0381811683821601908082111562000b7a5762000b7a62000b2d565b5092915050565b6001600160d01b0382811682821603908082111562000b7a5762000b7a62000b2d565b8181038181111562000209576200020962000b2d565b60805160a05160c05160e051610100516101205161014051611eef62000c0c5f395f610e1d01525f610df001525f610b7c01525f610b5401525f610aaf01525f610ad901525f610b030152611eef5ff3fe608060405234801561000f575f80fd5b50600436106101a1575f3560e01c8063715018a6116100f35780639ab24eb011610093578063d505accf1161006e578063d505accf146103a8578063dd62ed3e146103bb578063f1127ed8146103f3578063f2fde38b14610432575f80fd5b80639ab24eb01461036f578063a9059cbb14610382578063c3cda52014610395575f80fd5b80638da5cb5b116100ce5780638da5cb5b146103245780638e539e8c1461033557806391ddadf41461034857806395d89b4114610367575f80fd5b8063715018a6146102ee5780637ecebe00146102f657806384b0196e14610309575f80fd5b80633a46b1a81161015e5780635c19a95c116101395780635c19a95c146102805780635d641847146102955780636fcfff451461029e57806370a08231146102c6575f80fd5b80633a46b1a8146102225780634bf5d7e914610235578063587cde1e1461023d575f80fd5b806306fdde03146101a5578063095ea7b3146101c357806318160ddd146101e657806323b872dd146101f8578063313ce5671461020b5780633644e5151461021a575b5f80fd5b6101ad610445565b6040516101ba9190611b1c565b60405180910390f35b6101d66101d1366004611b49565b6104d5565b60405190151581526020016101ba565b6002545b6040519081526020016101ba565b6101d6610206366004611b71565b6104ee565b604051601281526020016101ba565b6101ea610511565b6101ea610230366004611b49565b61051f565b6101ad6105a3565b61026861024b366004611baa565b6001600160a01b039081165f908152600860205260409020541690565b6040516001600160a01b0390911681526020016101ba565b61029361028e366004611baa565b61061b565b005b6101ea600c5481565b6102b16102ac366004611baa565b61062a565b60405163ffffffff90911681526020016101ba565b6101ea6102d4366004611baa565b6001600160a01b03165f9081526020819052604090205490565b610293610634565b6101ea610304366004611baa565b610647565b610311610651565b6040516101ba9796959493929190611bc3565b600b546001600160a01b0316610268565b6101ea610343366004611c57565b610693565b6103506106fc565b60405165ffffffffffff90911681526020016101ba565b6101ad610705565b6101ea61037d366004611baa565b610714565b6101d6610390366004611b49565b610743565b6102936103a3366004611c7e565b610750565b6102936103b6366004611cd2565b61080c565b6101ea6103c9366004611d37565b6001600160a01b039182165f90815260016020908152604080832093909416825291909152205490565b610406610401366004611d68565b610942565b60408051825165ffffffffffff1681526020928301516001600160d01b031692810192909252016101ba565b610293610440366004611baa565b610966565b60606003805461045490611da5565b80601f016020809104026020016040519081016040528092919081815260200182805461048090611da5565b80156104cb5780601f106104a2576101008083540402835291602001916104cb565b820191905f5260205f20905b8154815290600101906020018083116104ae57829003601f168201915b5050505050905090565b5f336104e28185856109b9565b60019150505b92915050565b5f336104fb8582856109cb565b610506858585610a46565b506001949350505050565b5f61051a610aa3565b905090565b5f806105296106fc565b90508065ffffffffffff16831061056957604051637669fc0f60e11b81526004810184905265ffffffffffff821660248201526044015b60405180910390fd5b61059261057584610bcc565b6001600160a01b0386165f90815260096020526040902090610c02565b6001600160d01b0316949350505050565b60606105ad610cb2565b65ffffffffffff166105bd6106fc565b65ffffffffffff16146105e3576040516301bfc1c560e61b815260040160405180910390fd5b5060408051808201909152601d81527f6d6f64653d626c6f636b6e756d6265722666726f6d3d64656661756c74000000602082015290565b336106268183610cbc565b5050565b5f6104e882610d2d565b61063c610d4e565b6106455f610d7b565b565b5f6104e882610dcc565b5f6060805f805f6060610662610de9565b61066a610e16565b604080515f80825260208201909252600f60f81b9b939a50919850469750309650945092509050565b5f8061069d6106fc565b90508065ffffffffffff1683106106d857604051637669fc0f60e11b81526004810184905265ffffffffffff82166024820152604401610560565b6106ec6106e484610bcc565b600a90610c02565b6001600160d01b03169392505050565b5f61051a610cb2565b60606004805461045490611da5565b6001600160a01b0381165f90815260096020526040812061073490610e43565b6001600160d01b031692915050565b5f336104e2818585610a46565b8342111561077457604051632341d78760e11b815260048101859052602401610560565b604080517fe48329057bfd03d55e49b547132e39cffd9c1820ad7b9d4c5307691425d15adf60208201526001600160a01b0388169181019190915260608101869052608081018590525f906107ed906107e59060a00160405160208183030381529060405280519060200120610e7a565b858585610ea6565b90506107f98187610ed2565b6108038188610cbc565b50505050505050565b834211156108305760405163313c898160e11b815260048101859052602401610560565b5f7f6e71edae12b1b97f4d1f60370fef10105fa2faae0126114a169c64845d6126c988888861087b8c6001600160a01b03165f90815260076020526040902080546001810190915590565b6040805160208101969096526001600160a01b0394851690860152929091166060840152608083015260a082015260c0810186905260e0016040516020818303038152906040528051906020012090505f6108d582610e7a565b90505f6108e482878787610ea6565b9050896001600160a01b0316816001600160a01b03161461092b576040516325c0072360e11b81526001600160a01b0380831660048301528b166024820152604401610560565b6109368a8a8a6109b9565b50505050505050505050565b604080518082019091525f808252602082015261095f8383610f24565b9392505050565b61096e610d4e565b6001600160a01b03811661099757604051631e4fbdf760e01b81525f6004820152602401610560565b6109a081610d7b565b50565b5f61095f8284611df1565b5f61095f8284611e18565b6109c68383836001610f58565b505050565b6001600160a01b038381165f908152600160209081526040808320938616835292905220545f198114610a405781811015610a3257604051637dc7a0d960e11b81526001600160a01b03841660048201526024810182905260448101839052606401610560565b610a4084848484035f610f58565b50505050565b6001600160a01b038316610a6f57604051634b637e8f60e11b81525f6004820152602401610560565b6001600160a01b038216610a985760405163ec442f0560e01b81525f6004820152602401610560565b6109c683838361102a565b5f306001600160a01b037f000000000000000000000000000000000000000000000000000000000000000016148015610afb57507f000000000000000000000000000000000000000000000000000000000000000046145b15610b2557507f000000000000000000000000000000000000000000000000000000000000000090565b61051a604080517f8b73c3c69bb8fe3d512ecc4cf759cc79239f7b179b0ffacaa9a75d522b39400f60208201527f0000000000000000000000000000000000000000000000000000000000000000918101919091527f000000000000000000000000000000000000000000000000000000000000000060608201524660808201523060a08201525f9060c00160405160208183030381529060405280519060200120905090565b5f65ffffffffffff821115610bfe576040516306dfcc6560e41b81526030600482015260248101839052604401610560565b5090565b81545f9081816005811115610c5e575f610c1b84611035565b610c259085611e38565b5f8881526020902090915081015465ffffffffffff9081169087161015610c4e57809150610c5c565b610c59816001611e4b565b92505b505b5f610c6b87878585611119565b90508015610ca557610c8f87610c82600184611e38565b5f91825260209091200190565b54600160301b90046001600160d01b0316610ca7565b5f5b979650505050505050565b5f61051a43610bcc565b6001600160a01b038281165f8181526008602052604080822080548686166001600160a01b0319821681179092559151919094169392849290917f3134e8a2e6d97e929a7e54011ea5485d7d196dd5f0ba4d4ef95803e8e3fc257f9190a46109c68183610d2886611178565b611195565b6001600160a01b0381165f908152600960205260408120546104e8906112fe565b600b546001600160a01b031633146106455760405163118cdaa760e01b8152336004820152602401610560565b600b80546001600160a01b038381166001600160a01b0319831681179093556040519116919082907f8be0079c531659141344cd1fd0a4f28419497f9722a3daafe3b4186f6b6457e0905f90a35050565b6001600160a01b0381165f908152600760205260408120546104e8565b606061051a7f0000000000000000000000000000000000000000000000000000000000000000600561132e565b606061051a7f0000000000000000000000000000000000000000000000000000000000000000600661132e565b80545f908015610e7257610e5c83610c82600184611e38565b54600160301b90046001600160d01b031661095f565b5f9392505050565b5f6104e8610e86610aa3565b8360405161190160f01b8152600281019290925260228201526042902090565b5f805f80610eb6888888886113d7565b925092509250610ec6828261149f565b50909695505050505050565b6001600160a01b0382165f9081526007602052604090208054600181019091558181146109c6576040516301d4b62360e61b81526001600160a01b038416600482015260248101829052604401610560565b604080518082019091525f80825260208201526001600160a01b0383165f90815260096020526040902061095f9083611557565b6001600160a01b038416610f815760405163e602df0560e01b81525f6004820152602401610560565b6001600160a01b038316610faa57604051634a1406b160e11b81525f6004820152602401610560565b6001600160a01b038085165f9081526001602090815260408083209387168352929052208290558015610a4057826001600160a01b0316846001600160a01b03167f8c5be1e5ebec7d5bd14f71427d1e84f3dd0314c0f7b2291e5b200ac8c7c3b9258460405161101c91815260200190565b60405180910390a350505050565b6109c68383836115c4565b5f815f0361104457505f919050565b5f60016110508461162a565b901c6001901b9050600181848161106957611069611e5e565b048201901c9050600181848161108157611081611e5e565b048201901c9050600181848161109957611099611e5e565b048201901c905060018184816110b1576110b1611e5e565b048201901c905060018184816110c9576110c9611e5e565b048201901c905060018184816110e1576110e1611e5e565b048201901c905060018184816110f9576110f9611e5e565b048201901c905061095f8182858161111357611113611e5e565b046116bd565b5f5b81831015611170575f61112e84846116d2565b5f8781526020902090915065ffffffffffff86169082015465ffffffffffff16111561115c5780925061116a565b611167816001611e4b565b93505b5061111b565b509392505050565b6001600160a01b0381165f908152602081905260408120546104e8565b816001600160a01b0316836001600160a01b0316141580156111b657505f81115b156109c6576001600160a01b0383161561125d576001600160a01b0383165f90815260096020526040812081906111f8906109ae6111f3866116ec565b61171f565b6001600160d01b031691506001600160d01b03169150846001600160a01b03167fdec2bacdd2f05b59de34da9b523dff8be42e5e38e818c82fdb0bae774387a7248383604051611252929190918252602082015260400190565b60405180910390a250505b6001600160a01b038216156109c6576001600160a01b0382165f9081526009602052604081208190611295906109a36111f3866116ec565b6001600160d01b031691506001600160d01b03169150836001600160a01b03167fdec2bacdd2f05b59de34da9b523dff8be42e5e38e818c82fdb0bae774387a72483836040516112ef929190918252602082015260400190565b60405180910390a25050505050565b5f63ffffffff821115610bfe576040516306dfcc6560e41b81526020600482015260248101839052604401610560565b606060ff83146113485761134183611757565b90506104e8565b81805461135490611da5565b80601f016020809104026020016040519081016040528092919081815260200182805461138090611da5565b80156113cb5780601f106113a2576101008083540402835291602001916113cb565b820191905f5260205f20905b8154815290600101906020018083116113ae57829003601f168201915b505050505090506104e8565b5f80807f7fffffffffffffffffffffffffffffff5d576e7357a4501ddfe92f46681b20a084111561141057505f91506003905082611495565b604080515f808252602082018084528a905260ff891692820192909252606081018790526080810186905260019060a0016020604051602081039080840390855afa158015611461573d5f803e3d5ffd5b5050604051601f1901519150506001600160a01b03811661148c57505f925060019150829050611495565b92505f91508190505b9450945094915050565b5f8260038111156114b2576114b2611e72565b036114bb575050565b60018260038111156114cf576114cf611e72565b036114ed5760405163f645eedf60e01b815260040160405180910390fd5b600282600381111561150157611501611e72565b036115225760405163fce698f760e01b815260048101829052602401610560565b600382600381111561153657611536611e72565b03610626576040516335e2f38360e21b815260048101829052602401610560565b604080518082019091525f8082526020820152825f018263ffffffff168154811061158457611584611e86565b5f9182526020918290206040805180820190915291015465ffffffffffff81168252600160301b90046001600160d01b0316918101919091529392505050565b6115cf838383611794565b6001600160a01b03831661161f575f6115e760025490565b90506001600160d01b038082111561161c57604051630e58ae9360e11b81526004810183905260248101829052604401610560565b50505b6109c68383836118ba565b5f80608083901c1561163e57608092831c92015b604083901c1561165057604092831c92015b602083901c1561166257602092831c92015b601083901c1561167457601092831c92015b600883901c1561168657600892831c92015b600483901c1561169857600492831c92015b600283901c156116aa57600292831c92015b600183901c156104e85760010192915050565b5f8183106116cb578161095f565b5090919050565b5f6116e06002848418611e9a565b61095f90848416611e4b565b5f6001600160d01b03821115610bfe576040516306dfcc6560e41b815260d0600482015260248101839052604401610560565b5f8061174a61172c6106fc565b61174261173888610e43565b868863ffffffff16565b87919061192f565b915091505b935093915050565b60605f6117638361193c565b6040805160208082528183019092529192505f91906020820181803683375050509182525060208101929092525090565b6001600160a01b0383166117be578060025f8282546117b39190611e4b565b9091555061182e9050565b6001600160a01b0383165f90815260208190526040902054818110156118105760405163391434e360e21b81526001600160a01b03851660048201526024810182905260448101839052606401610560565b6001600160a01b0384165f9081526020819052604090209082900390555b6001600160a01b03821661184a57600280548290039055611868565b6001600160a01b0382165f9081526020819052604090208054820190555b816001600160a01b0316836001600160a01b03167fddf252ad1be2c89b69c2b068fc378daa952ba7f163c4a11628f55a4df523b3ef836040516118ad91815260200190565b60405180910390a3505050565b6001600160a01b0383166118dc576118d9600a6109a36111f3846116ec565b50505b6001600160a01b0382166118fe576118fb600a6109ae6111f3846116ec565b50505b6001600160a01b038381165f908152600860205260408082205485841683529120546109c692918216911683611195565b5f8061174a858585611963565b5f60ff8216601f8111156104e857604051632cd44ac360e21b815260040160405180910390fd5b82545f9081908015611a7f575f61197f87610c82600185611e38565b60408051808201909152905465ffffffffffff808216808452600160301b9092046001600160d01b0316602084015291925090871610156119d357604051632520601d60e01b815260040160405180910390fd5b805165ffffffffffff808816911603611a1f57846119f688610c82600186611e38565b80546001600160d01b0392909216600160301b0265ffffffffffff909216919091179055611a6f565b6040805180820190915265ffffffffffff80881682526001600160d01b0380881660208085019182528b54600181018d555f8d81529190912094519151909216600160301b029216919091179101555b60200151925083915061174f9050565b50506040805180820190915265ffffffffffff80851682526001600160d01b0380851660208085019182528854600181018a555f8a815291822095519251909316600160301b02919093161792019190915590508161174f565b5f81518084525f5b81811015611afd57602081850181015186830182015201611ae1565b505f602082860101526020601f19601f83011685010191505092915050565b602081525f61095f6020830184611ad9565b80356001600160a01b0381168114611b44575f80fd5b919050565b5f8060408385031215611b5a575f80fd5b611b6383611b2e565b946020939093013593505050565b5f805f60608486031215611b83575f80fd5b611b8c84611b2e565b9250611b9a60208501611b2e565b9150604084013590509250925092565b5f60208284031215611bba575f80fd5b61095f82611b2e565b60ff60f81b881681525f602060e081840152611be260e084018a611ad9565b8381036040850152611bf4818a611ad9565b606085018990526001600160a01b038816608086015260a0850187905284810360c086015285518082528387019250908301905f5b81811015611c4557835183529284019291840191600101611c29565b50909c9b505050505050505050505050565b5f60208284031215611c67575f80fd5b5035919050565b803560ff81168114611b44575f80fd5b5f805f805f8060c08789031215611c93575f80fd5b611c9c87611b2e565b95506020870135945060408701359350611cb860608801611c6e565b92506080870135915060a087013590509295509295509295565b5f805f805f805f60e0888a031215611ce8575f80fd5b611cf188611b2e565b9650611cff60208901611b2e565b95506040880135945060608801359350611d1b60808901611c6e565b925060a0880135915060c0880135905092959891949750929550565b5f8060408385031215611d48575f80fd5b611d5183611b2e565b9150611d5f60208401611b2e565b90509250929050565b5f8060408385031215611d79575f80fd5b611d8283611b2e565b9150602083013563ffffffff81168114611d9a575f80fd5b809150509250929050565b600181811c90821680611db957607f821691505b602082108103611dd757634e487b7160e01b5f52602260045260245ffd5b50919050565b634e487b7160e01b5f52601160045260245ffd5b6001600160d01b03818116838216019080821115611e1157611e11611ddd565b5092915050565b6001600160d01b03828116828216039080821115611e1157611e11611ddd565b818103818111156104e8576104e8611ddd565b808201808211156104e8576104e8611ddd565b634e487b7160e01b5f52601260045260245ffd5b634e487b7160e01b5f52602160045260245ffd5b634e487b7160e01b5f52603260045260245ffd5b5f82611eb457634e487b7160e01b5f52601260045260245ffd5b50049056fea2646970667358221220cef96cb52309dba017cfd318cbdce72dadfbed59c0089d444c468e72a73ef2c164736f6c63430008140033dec2bacdd2f05b59de34da9b523dff8be42e5e38e818c82fdb0bae774387a724",
  "devdoc": {
    "errors": {
      "CheckpointUnorderedInsertion()": [
        {
          "details": "A value was attempted to be inserted on a past checkpoint."
        }
      ],
      "ECDSAInvalidSignature()": [
        {
          "details": "The signature derives the `address(0)`."
        }
      ],
      "ECDSAInvalidSignatureLength(uint256)": [
        {
          "details": "The signature has an invalid length."
        }
      ],
      "ECDSAInvalidSignatureS(bytes32)": [
        {
          "details": "The signature has an S value that is in the upper half order."
        }
      ],
      "ERC20ExceededSafeSupply(uint256,uint256)": [
        {
          "details": "Total supply cap has been exceeded, introducing a risk of votes overflowing."
        }
      ],
      "ERC20InsufficientAllowance(address,uint256,uint256)": [
        {
          "details": "Indicates a failure with the `spender`s `allowance`. Used in transfers.",
          "params": {
            "allowance": "Amount of tokens a `spender` is allowed to operate with.",
            "needed": "Minimum amount required to perform a transfer.",
            "spender": "Address that may be allowed to operate on tokens without being their owner."
          }
        }
      ],
      "ERC20InsufficientBalance(address,uint256,uint256)": [
        {
          "details": "Indicates an error related to the current `balance` of a `sender`. Used in transfers.",
          "params": {
            "balance": "Current balance for the interacting account.",
            "needed": "Minimum amount required to perform a transfer.",
            "sender": "Address whose tokens are being transferred."
          }
        }
      ],
      "ERC20InvalidApprover(address)": [
        {
          "details": "Indicates a failure with the `approver` of a token to be approved. Used in approvals.",
          "params": {
            "approver": "Address initiating an approval operation."
          }
        }
      ],
      "ERC20InvalidReceiver(address)": [
        {
          "details": "Indicates a failure with the token `receiver`. Used in transfers.",
          "params": {
            "receiver": "Address to which tokens are being transferred."
          }
        }
      ],
      "ERC20InvalidSender(address)": [
        {
          "details": "Indicates a failure with the token `sender`. Used in transfers.",
          "params": {
            "sender": "Address whose tokens are being transferred."
          }
        }
      ],
      "ERC20InvalidSpender(address)": [
        {
          "details": "Indicates a failure with the `spender` to be approved. Used in approvals.",
          "params": {
            "spender": "Address that may be allowed to operate on tokens without being their owner."
          }
        }
      ],
      "ERC2612ExpiredSignature(uint256)": [
        {
          "details": "Permit deadline has expired."
        }
      ],
      "ERC2612InvalidSigner(address,address)": [
        {
          "details": "Mismatched signature."
        }
      ],
      "ERC5805FutureLookup(uint256,uint48)": [
        {
          "details": "Lookup to future votes is not available."
        }
      ],
      "ERC6372InconsistentClock()": [
        {
          "details": "The clock was incorrectly modified."
        }
      ],
      "InvalidAccountNonce(address,uint256)": [
        {
          "details": "The nonce used for an `account` is not the expected current nonce."
        }
      ],
      "OwnableInvalidOwner(address)": [
        {
          "details": "The owner is not a valid owner account. (eg. `address(0)`)"
        }
      ],
      "OwnableUnauthorizedAccount(address)": [
        {
          "details": "The caller account is not authorized to perform an operation."
        }
      ],
      "SafeCastOverflowedUintDowncast(uint8,uint256)": [
        {
          "details": "Value doesn't fit in an uint of `bits` size."
        }
      ],
      "VotesExpiredSignature(uint256)": [
        {
          "details": "The signature used has expired."
        }
      ]
    },
    "events": {
      "Approval(address,address,uint256)": {
        "details": "Emitted when the allowance of a `spender` for an `owner` is set by a call to {approve}. `value` is the new allowance."
      },
      "DelegateChanged(address,address,address)": {
        "details": "Emitted when an account changes their delegate."
      },
      "DelegateVotesChanged(address,uint256,uint256)": {
        "details": "Emitted when a token transfer or delegate change results in changes to a delegate's number of voting units."
      },
      "EIP712DomainChanged()": {
        "details": "MAY be emitted to signal that the domain could have changed."
      },
      "Transfer(address,address,uint256)": {
        "details": "Emitted when `value` tokens are moved from one account (`from`) to another (`to`). Note that `value` may be zero."
      }
    },
    "kind": "dev",
    "methods": {
      "CLOCK_MODE()": {
        "details": "Machine-readable description of the clock as specified in EIP-6372."
      },
      "DOMAIN_SEPARATOR()": {
        "details": "Returns the domain separator used in the encoding of the signature for {permit}, as defined by {EIP712}."
      },
      "allowance(address,address)": {
        "details": "See {IERC20-allowance}."
      },
      "approve(address,uint256)": {
        "details": "See {IERC20-approve}. NOTE: If `value` is the maximum `uint256`, the allowance is not updated on `transferFrom`. This is semantically equivalent to an infinite approval. Requirements: - `spender` cannot be the zero address."
      },
      "balanceOf(address)": {
        "details": "See {IERC20-balanceOf}."
      },
      "checkpoints(address,uint32)": {
        "details": "Get the `pos`-th checkpoint for `account`."
      },
      "clock()": {
        "details": "Clock used for flagging checkpoints. Can be overridden to implement timestamp based checkpoints (and voting), in which case {CLOCK_MODE} should be overridden as well to match."
      },
      "decimals()": {
        "details": "Returns the number of decimals used to get its user representation. For example, if `decimals` equals `2`, a balance of `505` tokens should be displayed to a user as `5.05` (`505 / 10 ** 2`). Tokens usually opt for a value of 18, imitating the relationship between Ether and Wei. This is the default value returned by this function, unless it's overridden. NOTE: This information is only used for _display_ purposes: it in no way affects any of the arithmetic of the contract, including {IERC20-balanceOf} and {IERC20-transfer}."
      },
      "delegate(address)": {
        "details": "Delegates votes from the sender to `delegatee`."
      },
      "delegateBySig(address,uint256,uint256,uint8,bytes32,bytes32)": {
        "details": "Delegates votes from signer to `delegatee`."
      },
      "delegates(address)": {
        "details": "Returns the delegate that `account` has chosen."
      },
      "eip712Domain()": {
        "details": "See {IERC-5267}."
      },
      "getPastTotalSupply(uint256)": {
        "details": "Returns the total supply of votes available at a specific moment in the past. If the `clock()` is configured to use block numbers, this will return the value at the end of the corresponding block. NOTE: This value is the sum of all available votes, which is not necessarily the sum of all delegated votes. Votes that have not been delegated are still part of total supply, even though they would not participate in a vote. Requirements: - `timepoint` must be in the past. If operating using block numbers, the block must be already mined."
      },
      "getPastVotes(address,uint256)": {
        "details": "Returns the amount of votes that `account` had at a specific moment in the past. If the `clock()` is configured to use block numbers, this will return the value at the end of the corresponding block. Requirements: - `timepoint` must be in the past. If operating using block numbers, the block must be already mined."
      },
      "getVotes(address)": {
        "details": "Returns the current amount of votes that `account` has."
      },
      "name()": {
        "details": "Returns the name of the token."
      },
      "numCheckpoints(address)": {
        "details": "Get number of checkpoints for `account`."
      },
      "owner()": {
        "details": "Returns the address of the current owner."
      },
      "permit(address,address,uint256,uint256,uint8,bytes32,bytes32)": {
        "details": "Sets `value` as the allowance of `spender` over ``owner``'s tokens, given ``owner``'s signed approval. IMPORTANT: The same issues {IERC20-approve} has related to transaction ordering also apply here. Emits an {Approval} event. Requirements: - `spender` cannot be the zero address. - `deadline` must be a timestamp in the future. - `v`, `r` and `s` must be a valid `secp256k1` signature from `owner` over the EIP712-formatted function arguments. - the signature must use ``owner``'s current nonce (see {nonces}). For more information on the signature format, see the https://eips.ethereum.org/EIPS/eip-2612#specification[relevant EIP section]. CAUTION: See Security Considerations above."
      },
      "renounceOwnership()": {
        "details": "Leaves the contract without owner. It will not be possible to call `onlyOwner` functions. Can only be called by the current owner. NOTE: Renouncing ownership will leave the contract without an owner, thereby disabling any functionality that is only available to the owner."
      },
      "symbol()": {
        "details": "Returns the symbol of the token, usually a shorter version of the name."
      },
      "totalSupply()": {
        "details": "See {IERC20-totalSupply}."
      },
      "transfer(address,uint256)": {
        "details": "See {IERC20-transfer}. Requirements: - `to` cannot be the zero address. - the caller must have a balance of at least `value`."
      },
      "transferFrom(address,address,uint256)": {
        "details": "See {IERC20-transferFrom}. Emits an {Approval} event indicating the updated allowance. This is not required by the EIP. See the note at the beginning of {ERC20}. NOTE: Does not update the allowance if the current allowance is the maximum `uint256`. Requirements: - `from` and `to` cannot be the zero address. - `from` must have a balance of at least `value`. - the caller must have allowance for ``from``'s tokens of at least `value`."
      },
      "transferOwnership(address)": {
        "details": "Transfers ownership of the contract to a new account (`newOwner`). Can only be called by the current owner."
      }
    },
    "version": 1
  },
  "userdoc": {
    "kind": "user",
    "methods": {},
    "version": 1
  },
  "storageLayout": {
    "storage": [
      {
        "astId": 6120,
        "contract": "contracts/DirtyDeedsToken.sol:DirtyDeedsToken",
        "label": "_balances",
        "offset": 0,
        "slot": "0",
        "type": "t_mapping(t_address,t_uint256)"
      },
      {
        "astId": 6126,
        "contract": "contracts/DirtyDeedsToken.sol:DirtyDeedsToken",
        "label": "_allowances",
        "offset": 0,
        "slot": "1",
        "type": "t_mapping(t_address,t_mapping(t_address,t_uint256))"
      },
      {
        "astId": 6128,
        "contract": "contracts/DirtyDeedsToken.sol:DirtyDeedsToken",
        "label": "_totalSupply",
        "offset": 0,
        "slot": "2",
        "type": "t_uint256"
      },
      {
        "astId": 6130,
        "contract": "contracts/DirtyDeedsToken.sol:DirtyDeedsToken",
        "label": "_name",
        "offset": 0,
        "slot": "3",
        "type": "t_string_storage"
      },
      {
        "astId": 6132,
        "contract": "contracts/DirtyDeedsToken.sol:DirtyDeedsToken",
        "label": "_symbol",
        "offset": 0,
        "slot": "4",
        "type": "t_string_storage"
      },
      {
        "astId": 8393,
        "contract": "contracts/DirtyDeedsToken.sol:DirtyDeedsToken",
        "label": "_nameFallback",
        "offset": 0,
        "slot": "5",
        "type": "t_string_storage"
      },
      {
        "astId": 8395,
        "contract": "contracts/DirtyDeedsToken.sol:DirtyDeedsToken",
        "label": "_versionFallback",
        "offset": 0,
        "slot": "6",
        "type": "t_string_storage"
      },
      {
        "astId": 7372,
        "contract": "contracts/DirtyDeedsToken.sol:DirtyDeedsToken",
        "label": "_nonces",
        "offset": 0,
        "slot": "7",
        "type": "t_mapping(t_address,t_uint256)"
      },
      {
        "astId": 5261,
        "contract": "contracts/DirtyDeedsToken.sol:DirtyDeedsToken",
        "label": "_delegatee",
        "offset": 0,
        "slot": "8",
        "type": "t_mapping(t_address,t_address)"
      },
      {
        "astId": 5266,
        "contract": "contracts/DirtyDeedsToken.sol:DirtyDeedsToken",
        "label": "_delegateCheckpoints",
        "offset": 0,
        "slot": "9",
        "type": "t_mapping(t_address,t_struct(Trace208)12242_storage)"
      },
      {
        "astId": 5269,
        "contract": "contracts/DirtyDeedsToken.sol:DirtyDeedsToken",
        "label": "_totalCheckpoints",
        "offset": 0,
        "slot": "10",
        "type": "t_struct(Trace208)12242_storage"
      },
      {
        "astId": 387,
        "contract": "contracts/DirtyDeedsToken.sol:DirtyDeedsToken",
        "label": "_owner",
        "offset": 0,
        "slot": "11",
        "type": "t_address"
      },
      {
        "astId": 13950,
        "contract": "contracts/DirtyDeedsToken.sol:DirtyDeedsToken",
        "label": "s_maxSupply",
        "offset": 0,
        "slot": "12",
        "type": "t_uint256"
      }
    ],
    "types": {
      "t_address": {
        "encoding": "inplace",
        "label": "address",
        "numberOfBytes": "20"
      },
      "t_array(t_struct(Checkpoint208)12247_storage)dyn_storage": {
        "base": "t_struct(Checkpoint208)12247_storage",
        "encoding": "dynamic_array",
        "label": "struct Checkpoints.Checkpoint208[]",
        "numberOfBytes": "32"
      },
      "t_mapping(t_address,t_address)": {
        "encoding": "mapping",
        "key": "t_address",
        "label": "mapping(address => address)",
        "numberOfBytes": "32",
        "value": "t_address"
      },
      "t_mapping(t_address,t_mapping(t_address,t_uint256))": {
        "encoding": "mapping",
        "key": "t_address",
        "label": "mapping(address => mapping(address => uint256))",
        "numberOfBytes": "32",
        "value": "t_mapping(t_address,t_uint256)"
      },
      "t_mapping(t_address,t_struct(Trace208)12242_storage)": {
        "encoding": "mapping",
        "key": "t_address",
        "label": "mapping(address => struct Checkpoints.Trace208)",
        "numberOfBytes": "32",
        "value": "t_struct(Trace208)12242_storage"
      },
      "t_mapping(t_address,t_uint256)": {
        "encoding": "mapping",
        "key": "t_address",
        "label": "mapping(address => uint256)",
        "numberOfBytes": "32",
        "value": "t_uint256"
      },
      "t_string_storage": {
        "encoding": "bytes",
        "label": "string",
        "numberOfBytes": "32"
      },
      "t_struct(Checkpoint208)12247_storage": {
        "encoding": "inplace",
        "label": "struct Checkpoints.Checkpoint208",
        "members": [
          {
            "astId": 12244,
            "contract": "contracts/DirtyDeedsToken.sol:DirtyDeedsToken",
            "label": "_key",
            "offset": 0,
            "slot": "0",
            "type": "t_uint48"
          },
          {
            "astId": 12246,
            "contract": "contracts/DirtyDeedsToken.sol:DirtyDeedsToken",
            "label": "_value",
            "offset": 6,
            "slot": "0",
            "type": "t_uint208"
          }
        ],
        "numberOfBytes": "32"
      },
      "t_struct(Trace208)12242_storage": {
        "encoding": "inplace",
        "label": "struct Checkpoints.Trace208",
        "members": [
          {
            "astId": 12241,
            "contract": "contracts/DirtyDeedsToken.sol:DirtyDeedsToken",
            "label": "_checkpoints",
            "offset": 0,
            "slot": "0",
            "type": "t_array(t_struct(Checkpoint208)12247_storage)dyn_storage"
          }
        ],
        "numberOfBytes": "32"
      },
      "t_uint208": {
        "encoding": "inplace",
        "label": "uint208",
        "numberOfBytes": "26"
      },
      "t_uint256": {
        "encoding": "inplace",
        "label": "uint256",
        "numberOfBytes": "32"
      },
      "t_uint48": {
        "encoding": "inplace",
        "label": "uint48",
        "numberOfBytes": "6"
      }
    }
  }
}