{
  "address": "0xCf7Ed3AccA5a467e9e704C703E8D87F634fB0Fc9",
  "abi": [
    {
      "inputs": [
        {
          "internalType": "contract IVotes",
          "name": "_token",
          "type": "address"
        },
        {
          "internalType": "contract TimelockController",
          "name": "_timelock",
          "type": "address"
        },
        {
          "internalType": "uint48",
          "name": "_votingDelay",
          "type": "uint48"
        },
        {
          "internalType": "uint32",
          "name": "_votingPeriod",
          "type": "uint32"
        }
      ],
      "stateMutability": "nonpayable",
      "type": "constructor"
    },
    {
      "inputs": [],
      "name": "CheckpointUnorderedInsertion",
      "type": "error"
    },
    {
      "inputs": [],
      "name": "FailedInnerCall",
      "type": "error"
    },
    {
      "inputs": [
        {
          "internalType": "address",
          "name": "voter",
          "type": "address"
        }
      ],
      "name": "GovernorAlreadyCastVote",
      "type": "error"
    },
    {
      "inputs": [
        {
          "internalType": "uint256",
          "name": "proposalId",
          "type": "uint256"
        }
      ],
      "name": "GovernorAlreadyQueuedProposal",
      "type": "error"
    },
    {
      "inputs": [],
      "name": "GovernorDisabledDeposit",
      "type": "error"
    },
    {
      "inputs": [
        {
          "internalType": "address",
          "name": "proposer",
          "type": "address"
        },
        {
          "internalType": "uint256",
          "name": "votes",
          "type": "uint256"
        },
        {
          "internalType": "uint256",
          "name": "threshold",
          "type": "uint256"
        }
      ],
      "name": "GovernorInsufficientProposerVotes",
      "type": "error"
    },
    {
      "inputs": [
        {
          "internalType": "uint256",
          "name": "targets",
          "type": "uint256"
        },
        {
          "internalType": "uint256",
          "name": "calldatas",
          "type": "uint256"
        },
        {
          "internalType": "uint256",
          "name": "values",
          "type": "uint256"
        }
      ],
      "name": "GovernorInvalidProposalLength",
      "type": "error"
    },
    {
      "inputs": [
        {
          "internalType": "uint256",
          "name": "quorumNumerator",
          "type": "uint256"
        },
        {
          "internalType": "uint256",
          "name": "quorumDenominator",
          "type": "uint256"
        }
      ],
      "name": "GovernorInvalidQuorumFraction",
      "type": "error"
    },
    {
      "inputs": [
        {
          "internalType": "address",
          "name": "voter",
          "type": "address"
        }
      ],
      "name": "GovernorInvalidSignature",
      "type": "error"
    },
    {
      "inputs": [],
      "name": "GovernorInvalidVoteType",
      "type": "error"
    },
    {
      "inputs": [
        {
          "internalType": "uint256",
          "name": "votingPeriod",
          "type": "uint256"
        }
      ],
      "name": "GovernorInvalidVotingPeriod",
      "type": "error"
    },
    {
      "inputs": [
        {
          "internalType": "uint256",
          "name": "proposalId",
          "type": "uint256"
        }
      ],
      "name": "GovernorNonexistentProposal",
      "type": "error"
    },
    {
      "inputs": [
        {
          "internalType": "uint256",
          "name": "proposalId",
          "type": "uint256"
        }
      ],
      "name": "GovernorNotQueuedProposal",
      "type": "error"
    },
    {
      "inputs": [
        {
          "internalType": "address",
          "name": "account",
          "type": "address"
        }
      ],
      "name": "GovernorOnlyExecutor",
      "type": "error"
    },
    {
      "inputs": [
        {
          "internalType": "address",
          "name": "account",
          "type": "address"
        }
      ],
      "name": "GovernorOnlyProposer",
      "type": "error"
    },
    {
      "inputs": [],
      "name": "GovernorQueueNotImplemented",
      "type": "error"
    },
    {
      "inputs": [
        {
          "internalType": "address",
          "name": "proposer",
          "type": "address"
        }
      ],
      "name": "GovernorRestrictedProposer",
      "type": "error"
    },
    {
      "inputs": [
        {
          "internalType": "uint256",
          "name": "proposalId",
          "type": "uint256"
        },
        {
          "internalType": "enum IGovernor.ProposalState",
          "name": "current",
          "type": "uint8"
        },
        {
          "internalType": "bytes32",
          "name": "expectedStates",
          "type": "bytes32"
        }
      ],
      "name": "GovernorUnexpectedProposalState",
      "type": "error"
    },
    {
      "inputs": [
        {
          "internalType": "address",
          "name": "account",
          "type": "address"
        },
        {
          "internalType": "uint256",
          "name": "currentNonce",
          "type": "uint256"
        }
      ],
      "name": "InvalidAccountNonce",
      "type": "error"
    },
    {
      "inputs": [],
      "name": "InvalidShortString",
      "type": "error"
    },
    {
      "inputs": [],
      "name": "QueueEmpty",
      "type": "error"
    },
    {
      "inputs": [],
      "name": "QueueFull",
      "type": "error"
    },
    {
      "inputs": [
        {
          "internalType": "uint8",
          "name": "bits",
          "type": "uint8"
        },
        {
          "internalType": "uint256",
          "name": "value",
          "type": "uint256"
        }
      ],
      "name": "SafeCastOverflowedUintDowncast",
      "type": "error"
    },
    {
      "inputs": [
        {
          "internalType": "string",
          "name": "str",
          "type": "string"
        }
      ],
      "name": "StringTooLong",
      "type": "error"
    },
    {
      "anonymous": false,
      "inputs": [],
      "name": "EIP712DomainChanged",
      "type": "event"
    },
    {
      "anonymous": false,
      "inputs": [
        {
          "indexed": false,
          "internalType": "uint256",
          "name": "proposalId",
          "type": "uint256"
        }
      ],
      "name": "ProposalCanceled",
      "type": "event"
    },
    {
      "anonymous": false,
      "inputs": [
        {
          "indexed": false,
          "internalType": "uint256",
          "name": "proposalId",
          "type": "uint256"
        },
        {
          "indexed": false,
          "internalType": "address",
          "name": "proposer",
          "type": "address"
        },
        {
          "indexed": false,
          "internalType": "address[]",
          "name": "targets",
          "type": "address[]"
        },
        {
          "indexed": false,
          "internalType": "uint256[]",
          "name": "values",
          "type": "uint256[]"
        },
        {
          "indexed": false,
          "internalType": "string[]",
          "name": "signatures",
          "type": "string[]"
        },
        {
          "indexed": false,
          "internalType": "bytes[]",
          "name": "calldatas",
          "type": "bytes[]"
        },
        {
          "indexed": false,
          "internalType": "uint256",
          "name": "voteStart",
          "type": "uint256"
        },
        {
          "indexed": false,
          "internalType": "uint256",
          "name": "voteEnd",
          "type": "uint256"
        },
        {
          "indexed": false,
          "internalType": "string",
          "name": "description",
          "type": "string"
        }
      ],
      "name": "ProposalCreated",
      "type": "event"
    },
    {
      "anonymous": false,
      "inputs": [
        {
          "indexed": false,
          "internalType": "uint256",
          "name": "proposalId",
          "type": "uint256"
        }
      ],
      "name": "ProposalExecuted",
      "type": "event"
    },
    {
      "anonymous": false,
      "inputs": [
        {
          "indexed": false,
          "internalType": "uint256",
          "name": "proposalId",
          "type": "uint256"
        },
        {
          "indexed": false,
          "internalType": "uint256",
          "name": "etaSeconds",
          "type": "uint256"
        }
      ],
      "name": "ProposalQueued",
      "type": "event"
    },
    {
      "anonymous": false,
      "inputs": [
        {
          "indexed": false,
          "internalType": "uint256",
          "name": "oldProposalThreshold",
          "type": "uint256"
        },
        {
          "indexed": false,
          "internalType": "uint256",
          "name": "newProposalThreshold",
          "type": "uint256"
        }
      ],
      "name": "ProposalThresholdSet",
      "type": "event"
    },
    {
      "anonymous": false,
      "inputs": [
        {
          "indexed": false,
          "internalType": "uint256",
          "name": "oldQuorumNumerator",
          "type": "uint256"
        },
        {
          "indexed": false,
          "internalType": "uint256",
          "name": "newQuorumNumerator",
          "type": "uint256"
        }
      ],
      "name": "QuorumNumeratorUpdated",
      "type": "event"
    },
    {
      "anonymous": false,
      "inputs": [
        {
          "indexed": false,
          "internalType": "address",
          "name": "oldTimelock",
          "type": "address"
        },
        {
          "indexed": false,
          "internalType": "address",
          "name": "newTimelock",
          "type": "address"
        }
      ],
      "name": "TimelockChange",
      "type": "event"
    },
    {
      "anonymous": false,
      "inputs": [
        {
          "indexed": true,
          "internalType": "address",
          "name": "voter",
          "type": "address"
        },
        {
          "indexed": false,
          "internalType": "uint256",
          "name": "proposalId",
          "type": "uint256"
        },
        {
          "indexed": false,
          "internalType": "uint8",
          "name": "support",
          "type": "uint8"
        },
        {
          "indexed": false,
          "internalType": "uint256",
          "name": "weight",
          "type": "uint256"
        },
        {
          "indexed": false,
          "internalType": "string",
          "name": "reason",
          "type": "string"
        }
      ],
      "name": "VoteCast",
      "type": "event"
    },
    {
      "anonymous": false,
      "inputs": [
        {
          "indexed": true,
          "internalType": "address",
          "name": "voter",
          "type": "address"
        },
        {
          "indexed": false,
          "internalType": "uint256",
          "name": "proposalId",
          "type": "uint256"
        },
        {
          "indexed": false,
          "internalType": "uint8",
          "name": "support",
          "type": "uint8"
        },
        {
          "indexed": false,
          "internalType": "uint256",
          "name": "weight",
          "type": "uint256"
        },
        {
          "indexed": false,
          "internalType": "string",
          "name": "reason",
          "type": "string"
        },
        {
          "indexed": false,
          "internalType": "bytes",
          "name": "params",
          "type": "bytes"
        }
      ],
      "name": "VoteCastWithParams",
      "type": "event"
    },
    {
      "anonymous": false,
      "inputs": [
        {
          "indexed": false,
          "internalType": "uint256",
          "name": "oldVotingDelay",
          "type": "uint256"
        },
        {
          "indexed": false,
          "internalType": "uint256",
          "name": "newVotingDelay",
          "type": "uint256"
        }
      ],
      "name": "VotingDelaySet",
      "type": "event"
    },
    {
      "anonymous": false,
      "inputs": [
        {
          "indexed": false,
          "internalType": "uint256",
          "name": "oldVotingPeriod",
          "type": "uint256"
        },
        {
          "indexed": false,
          "internalType": "uint256",
          "name": "newVotingPeriod",
          "type": "uint256"
        }
      ],
      "name": "VotingPeriodSet",
      "type": "event"
    },
    {
      "inputs": [],
      "name": "BALLOT_TYPEHASH",
      "outputs": [
        {
          "internalType": "bytes32",
          "name": "",
          "type": "bytes32"
        }
      ],
      "stateMutability": "view",
      "type": "function"
    },
    {
      "inputs": [],
      "name": "CLOCK_MODE",
      "outputs": [
        {
          "internalType": "string",
          "name": "",
          "type": "string"
        }
      ],
      "stateMutability": "view",
      "type": "function"
    },
    {
      "inputs": [],
      "name": "COUNTING_MODE",
      "outputs": [
        {
          "internalType": "string",
          "name": "",
          "type": "string"
        }
      ],
      "stateMutability": "pure",
      "type": "function"
    },
    {
      "inputs": [],
      "name": "EXTENDED_BALLOT_TYPEHASH",
      "outputs": [
        {
          "internalType": "bytes32",
          "name": "",
          "type": "bytes32"
        }
      ],
      "stateMutability": "view",
      "type": "function"
    },
    {
      "inputs": [
        {
          "internalType": "uint256",
          "name": "proposalId",
          "type": "uint256"
        }
      ],
      "name": "cancel",
      "outputs": [],
      "stateMutability": "nonpayable",
      "type": "function"
    },
    {
      "inputs": [
        {
          "internalType": "address[]",
          "name": "targets",
          "type": "address[]"
        },
        {
          "internalType": "uint256[]",
          "name": "values",
          "type": "uint256[]"
        },
        {
          "internalType": "bytes[]",
          "name": "calldatas",
          "type": "bytes[]"
        },
        {
          "internalType": "bytes32",
          "name": "descriptionHash",
          "type": "bytes32"
        }
      ],
      "name": "cancel",
      "outputs": [
        {
          "internalType": "uint256",
          "name": "",
          "type": "uint256"
        }
      ],
      "stateMutability": "nonpayable",
      "type": "function"
    },
    {
      "inputs": [
        {
          "internalType": "uint256",
          "name": "proposalId",
          "type": "uint256"
        },
        {
          "internalType": "uint8",
          "name": "support",
          "type": "uint8"
        }
      ],
      "name": "castVote",
      "outputs": [
        {
          "internalType": "uint256",
          "name": "",
          "type": "uint256"
        }
      ],
      "stateMutability": "nonpayable",
      "type": "function"
    },
    {
      "inputs": [
        {
          "internalType": "uint256",
          "name": "proposalId",
          "type": "uint256"
        },
        {
          "internalType": "uint8",
          "name": "support",
          "type": "uint8"
        },
        {
          "internalType": "address",
          "name": "voter",
          "type": "address"
        },
        {
          "internalType": "bytes",
          "name": "signature",
          "type": "bytes"
        }
      ],
      "name": "castVoteBySig",
      "outputs": [
        {
          "internalType": "uint256",
          "name": "",
          "type": "uint256"
        }
      ],
      "stateMutability": "nonpayable",
      "type": "function"
    },
    {
      "inputs": [
        {
          "internalType": "uint256",
          "name": "proposalId",
          "type": "uint256"
        },
        {
          "internalType": "uint8",
          "name": "support",
          "type": "uint8"
        },
        {
          "internalType": "string",
          "name": "reason",
          "type": "string"
        }
      ],
      "name": "castVoteWithReason",
      "outputs": [
        {
          "internalType": "uint256",
          "name": "",
          "type": "uint256"
        }
      ],
      "stateMutability": "nonpayable",
      "type": "function"
    },
    {
      "inputs": [
        {
          "internalType": "uint256",
          "name": "proposalId",
          "type": "uint256"
        },
        {
          "internalType": "uint8",
          "name": "support",
          "type": "uint8"
        },
        {
          "internalType": "string",
          "name": "reason",
          "type": "string"
        },
        {
          "internalType": "bytes",
          "name": "params",
          "type": "bytes"
        }
      ],
      "name": "castVoteWithReasonAndParams",
      "outputs": [
        {
          "internalType": "uint256",
          "name": "",
          "type": "uint256"
        }
      ],
      "stateMutability": "nonpayable",
      "type": "function"
    },
    {
      "inputs": [
        {
          "internalType": "uint256",
          "name": "proposalId",
          "type": "uint256"
        },
        {
          "internalType": "uint8",
          "name": "support",
          "type": "uint8"
        },
        {
          "internalType": "address",
          "name": "voter",
          "type": "address"
        },
        {
          "internalType": "string",
          "name": "reason",
          "type": "string"
        },
        {
          "internalType": "bytes",
          "name": "params",
          "type": "bytes"
        },
        {
          "internalType": "bytes",
          "name": "signature",
          "type": "bytes"
        }
      ],
      "name": "castVoteWithReasonAndParamsBySig",
      "outputs": [
        {
          "internalType": "uint256",
          "name": "",
          "type": "uint256"
        }
      ],
      "stateMutability": "nonpayable",
      "type": "function"
    },
    {
      "inputs": [],
      "name": "clock",
      "outputs": [
        {
          "internalType": "uint48",
          "name": "",
          "type": "uint48"
        }
      ],
      "stateMutability": "view",
      "type": "function"
    },
    {
      "inputs": [],
      "name": "eip712Domain",
      "outputs": [
        {
          "internalType": "bytes1",
          "name": "fields",
          "type": "bytes1"
        },
        {
          "internalType": "string",
          "name": "name",
          "type": "string"
        },
        {
          "internalType": "string",
          "name": "version",
          "type": "string"
        },
        {
          "internalType": "uint256",
          "name": "chainId",
          "type": "uint256"
        },
        {
          "internalType": "address",
          "name": "verifyingContract",
          "type": "address"
        },
        {
          "internalType": "bytes32",
          "name": "salt",
          "type": "bytes32"
        },
        {
          "internalType": "uint256[]",
          "name": "extensions",
          "type": "uint256[]"
        }
      ],
      "stateMutability": "view",
      "type": "function"
    },
    {
      "inputs": [
        {
          "internalType": "address[]",
          "name": "targets",
          "type": "address[]"
        },
        {
          "internalType": "uint256[]",
          "name": "values",
          "type": "uint256[]"
        },
        {
          "internalType": "bytes[]",
          "name": "calldatas",
          "type": "bytes[]"
        },
        {
          "internalType": "bytes32",
          "name": "descriptionHash",
          "type": "bytes32"
        }
      ],
      "name": "execute",
      "outputs": [
        {
          "internalType": "uint256",
          "name": "",
          "type": "uint256"
        }
      ],
      "stateMutability": "payable",
      "type": "function"
    },
    {
      "inputs": [
        {
          "internalType": "uint256",
          "name": "proposalId",
          "type": "uint256"
        }
      ],
      "name": "execute",
      "outputs": [],
      "stateMutability": "payable",
      "type": "function"
    },
    {
      "inputs": [
        {
          "internalType": "address",
          "name": "account",
          "type": "address"
        },
        {
          "internalType": "uint256",
          "name": "timepoint",
          "type": "uint256"
        }
      ],
      "name": "getVotes",
      "outputs": [
        {
          "internalType": "uint256",
          "name": "",
          "type": "uint256"
        }
      ],
      "stateMutability": "view",
      "type": "function"
    },
    {
      "inputs": [
        {
          "internalType": "address",
          "name": "account",
          "type": "address"
        },
        {
          "internalType": "uint256",
          "name": "timepoint",
          "type": "uint256"
        },
        {
          "internalType": "bytes",
          "name": "params",
          "type": "bytes"
        }
      ],
      "name": "getVotesWithParams",
      "outputs": [
        {
          "internalType": "uint256",
          "name": "",
          "type": "uint256"
        }
      ],
      "stateMutability": "view",
      "type": "function"
    },
    {
      "inputs": [
        {
          "internalType": "uint256",
          "name": "proposalId",
          "type": "uint256"
        },
        {
          "internalType": "address",
          "name": "account",
          "type": "address"
        }
      ],
      "name": "hasVoted",
      "outputs": [
        {
          "internalType": "bool",
          "name": "",
          "type": "bool"
        }
      ],
      "stateMutability": "view",
      "type": "function"
    },
    {
      "inputs": [
        {
          "internalType": "address[]",
          "name": "targets",
          "type": "address[]"
        },
        {
          "internalType": "uint256[]",
          "name": "values",
          "type": "uint256[]"
        },
        {
          "internalType": "bytes[]",
          "name": "calldatas",
          "type": "bytes[]"
        },
        {
          "internalType": "bytes32",
          "name": "descriptionHash",
          "type": "bytes32"
        }
      ],
      "name": "hashProposal",
      "outputs": [
        {
          "internalType": "uint256",
          "name": "",
          "type": "uint256"
        }
      ],
      "stateMutability": "pure",
      "type": "function"
    },
    {
      "inputs": [],
      "name": "name",
      "outputs": [
        {
          "internalType": "string",
          "name": "",
          "type": "string"
        }
      ],
      "stateMutability": "view",
      "type": "function"
    },
    {
      "inputs": [
        {
          "internalType": "address",
          "name": "owner",
          "type": "address"
        }
      ],
      "name": "nonces",
      "outputs": [
        {
          "internalType": "uint256",
          "name": "",
          "type": "uint256"
        }
      ],
      "stateMutability": "view",
      "type": "function"
    },
    {
      "inputs": [
        {
          "internalType": "address",
          "name": "",
          "type": "address"
        },
        {
          "internalType": "address",
          "name": "",
          "type": "address"
        },
        {
          "internalType": "uint256[]",
          "name": "",
          "type": "uint256[]"
        },
        {
          "internalType": "uint256[]",
          "name": "",
          "type": "uint256[]"
        },
        {
          "internalType": "bytes",
          "name": "",
          "type": "bytes"
        }
      ],
      "name": "onERC1155BatchReceived",
      "outputs": [
        {
          "internalType": "bytes4",
          "name": "",
          "type": "bytes4"
        }
      ],
      "stateMutability": "nonpayable",
      "type": "function"
    },
    {
      "inputs": [
        {
          "internalType": "address",
          "name": "",
          "type": "address"
        },
        {
          "internalType": "address",
          "name": "",
          "type": "address"
        },
        {
          "internalType": "uint256",
          "name": "",
          "type": "uint256"
        },
        {
          "internalType": "uint256",
          "name": "",
          "type": "uint256"
        },
        {
          "internalType": "bytes",
          "name": "",
          "type": "bytes"
        }
      ],
      "name": "onERC1155Received",
      "outputs": [
        {
          "internalType": "bytes4",
          "name": "",
          "type": "bytes4"
        }
      ],
      "stateMutability": "nonpayable",
      "type": "function"
    },
    {
      "inputs": [
        {
          "internalType": "address",
          "name": "",
          "type": "address"
        },
        {
          "internalType": "address",
          "name": "",
          "type": "address"
        },
        {
          "internalType": "uint256",
          "name": "",
          "type": "uint256"
        },
        {
          "internalType": "bytes",
          "name": "",
          "type": "bytes"
        }
      ],
      "name": "onERC721Received",
      "outputs": [
        {
          "internalType": "bytes4",
          "name": "",
          "type": "bytes4"
        }
      ],
      "stateMutability": "nonpayable",
      "type": "function"
    },
    {
      "inputs": [],
      "name": "proposalCount",
      "outputs": [
        {
          "internalType": "uint256",
          "name": "",
          "type": "uint256"
        }
      ],
      "stateMutability": "view",
      "type": "function"
    },
    {
      "inputs": [
        {
          "internalType": "uint256",
          "name": "proposalId",
          "type": "uint256"
        }
      ],
      "name": "proposalDeadline",
      "outputs": [
        {
          "internalType": "uint256",
          "name": "",
          "type": "uint256"
        }
      ],
      "stateMutability": "view",
      "type": "function"
    },
    {
      "inputs": [
        {
          "internalType": "uint256",
          "name": "proposalId",
          "type": "uint256"
        }
      ],
      "name": "proposalDetails",
      "outputs": [
        {
          "internalType": "address[]",
          "name": "",
          "type": "address[]"
        },
        {
          "internalType": "uint256[]",
          "name": "",
          "type": "uint256[]"
        },
        {
          "internalType": "bytes[]",
          "name": "",
          "type": "bytes[]"
        },
        {
          "internalType": "bytes32",
          "name": "",
          "type": "bytes32"
        }
      ],
      "stateMutability": "view",
      "type": "function"
    },
    {
      "inputs": [
        {
          "internalType": "uint256",
          "name": "index",
          "type": "uint256"
        }
      ],
      "name": "proposalDetailsAt",
      "outputs": [
        {
          "internalType": "uint256",
          "name": "",
          "type": "uint256"
        },
        {
          "internalType": "address[]",
          "name": "",
          "type": "address[]"
        },
        {
          "internalType": "uint256[]",
          "name": "",
          "type": "uint256[]"
        },
        {
          "internalType": "bytes[]",
          "name": "",
          "type": "bytes[]"
        },
        {
          "internalType": "bytes32",
          "name": "",
          "type": "bytes32"
        }
      ],
      "stateMutability": "view",
      "type": "function"
    },
    {
      "inputs": [
        {
          "internalType": "uint256",
          "name": "proposalId",
          "type": "uint256"
        }
      ],
      "name": "proposalEta",
      "outputs": [
        {
          "internalType": "uint256",
          "name": "",
          "type": "uint256"
        }
      ],
      "stateMutability": "view",
      "type": "function"
    },
    {
      "inputs": [
        {
          "internalType": "uint256",
          "name": "proposalId",
          "type": "uint256"
        }
      ],
      "name": "proposalNeedsQueuing",
      "outputs": [
        {
          "internalType": "bool",
          "name": "",
          "type": "bool"
        }
      ],
      "stateMutability": "view",
      "type": "function"
    },
    {
      "inputs": [
        {
          "internalType": "uint256",
          "name": "proposalId",
          "type": "uint256"
        }
      ],
      "name": "proposalProposer",
      "outputs": [
        {
          "internalType": "address",
          "name": "",
          "type": "address"
        }
      ],
      "stateMutability": "view",
      "type": "function"
    },
    {
      "inputs": [
        {
          "internalType": "uint256",
          "name": "proposalId",
          "type": "uint256"
        }
      ],
      "name": "proposalSnapshot",
      "outputs": [
        {
          "internalType": "uint256",
          "name": "",
          "type": "uint256"
        }
      ],
      "stateMutability": "view",
      "type": "function"
    },
    {
      "inputs": [],
      "name": "proposalThreshold",
      "outputs": [
        {
          "internalType": "uint256",
          "name": "",
          "type": "uint256"
        }
      ],
      "stateMutability": "view",
      "type": "function"
    },
    {
      "inputs": [
        {
          "internalType": "uint256",
          "name": "proposalId",
          "type": "uint256"
        }
      ],
      "name": "proposalVotes",
      "outputs": [
        {
          "internalType": "uint256",
          "name": "againstVotes",
          "type": "uint256"
        },
        {
          "internalType": "uint256",
          "name": "forVotes",
          "type": "uint256"
        },
        {
          "internalType": "uint256",
          "name": "abstainVotes",
          "type": "uint256"
        }
      ],
      "stateMutability": "view",
      "type": "function"
    },
    {
      "inputs": [
        {
          "internalType": "address[]",
          "name": "targets",
          "type": "address[]"
        },
        {
          "internalType": "uint256[]",
          "name": "values",
          "type": "uint256[]"
        },
        {
          "internalType": "bytes[]",
          "name": "calldatas",
          "type": "bytes[]"
        },
        {
          "internalType": "string",
          "name": "description",
          "type": "string"
        }
      ],
      "name": "propose",
      "outputs": [
        {
          "internalType": "uint256",
          "name": "",
          "type": "uint256"
        }
      ],
      "stateMutability": "nonpayable",
      "type": "function"
    },
    {
      "inputs": [
        {
          "internalType": "address[]",
          "name": "targets",
          "type": "address[]"
        },
        {
          "internalType": "uint256[]",
          "name": "values",
          "type": "uint256[]"
        },
        {
          "internalType": "bytes[]",
          "name": "calldatas",
          "type": "bytes[]"
        },
        {
          "internalType": "bytes32",
          "name": "descriptionHash",
          "type": "bytes32"
        }
      ],
      "name": "queue",
      "outputs": [
        {
          "internalType": "uint256",
          "name": "",
          "type": "uint256"
        }
      ],
      "stateMutability": "nonpayable",
      "type": "function"
    },
    {
      "inputs": [
        {
          "internalType": "uint256",
          "name": "proposalId",
          "type": "uint256"
        }
      ],
      "name": "queue",
      "outputs": [],
      "stateMutability": "nonpayable",
      "type": "function"
    },
    {
      "inputs": [
        {
          "internalType": "uint256",
          "name": "blockNumber",
          "type": "uint256"
        }
      ],
      "name": "quorum",
      "outputs": [
        {
          "internalType": "uint256",
          "name": "",
          "type": "uint256"
        }
      ],
      "stateMutability": "view",
      "type": "function"
    },
    {
      "inputs": [],
      "name": "quorumDenominator",
      "outputs": [
        {
          "internalType": "uint256",
          "name": "",
          "type": "uint256"
        }
      ],
      "stateMutability": "view",
      "type": "function"
    },
    {
      "inputs": [
        {
          "internalType": "uint256",
          "name": "timepoint",
          "type": "uint256"
        }
      ],
      "name": "quorumNumerator",
      "outputs": [
        {
          "internalType": "uint256",
          "name": "",
          "type": "uint256"
        }
      ],
      "stateMutability": "view",
      "type": "function"
    },
    {
      "inputs": [],
      "name": "quorumNumerator",
      "outputs": [
        {
          "internalType": "uint256",
          "name": "",
          "type": "uint256"
        }
      ],
      "stateMutability": "view",
      "type": "function"
    },
    {
      "inputs": [
        {
          "internalType": "address",
          "name": "target",
          "type": "address"
        },
        {
          "internalType": "uint256",
          "name": "value",
          "type": "uint256"
        },
        {
          "internalType": "bytes",
          "name": "data",
          "type": "bytes"
        }
      ],
      "name": "relay",
      "outputs": [],
      "stateMutability": "payable",
      "type": "function"
    },
    {
      "inputs": [
        {
          "internalType": "uint256",
          "name": "newProposalThreshold",
          "type": "uint256"
        }
      ],
      "name": "setProposalThreshold",
      "outputs": [],
      "stateMutability": "nonpayable",
      "type": "function"
    },
    {
      "inputs": [
        {
          "internalType": "uint48",
          "name": "newVotingDelay",
          "type": "uint48"
        }
      ],
      "name": "setVotingDelay",
      "outputs": [],
      "stateMutability": "nonpayable",
      "type": "function"
    },
    {
      "inputs": [
        {
          "internalType": "uint32",
          "name": "newVotingPeriod",
          "type": "uint32"
        }
      ],
      "name": "setVotingPeriod",
      "outputs": [],
      "stateMutability": "nonpayable",
      "type": "function"
    },
    {
      "inputs": [
        {
          "internalType": "uint256",
          "name": "proposalId",
          "type": "uint256"
        }
      ],
      "name": "state",
      "outputs": [
        {
          "internalType": "enum IGovernor.ProposalState",
          "name": "",
          "type": "uint8"
        }
      ],
      "stateMutability": "view",
      "type": "function"
    },
    {
      "inputs": [
        {
          "internalType": "bytes4",
          "name": "interfaceId",
          "type": "bytes4"
        }
      ],
      "name": "supportsInterface",
      "outputs": [
        {
          "internalType": "bool",
          "name": "",
          "type": "bool"
        }
      ],
      "stateMutability": "view",
      "type": "function"
    },
    {
      "inputs": [],
      "name": "timelock",
      "outputs": [
        {
          "internalType": "address",
          "name": "",
          "type": "address"
        }
      ],
      "stateMutability": "view",
      "type": "function"
    },
    {
      "inputs": [],
      "name": "token",
      "outputs": [
        {
          "internalType": "contract IERC5805",
          "name": "",
          "type": "address"
        }
      ],
      "stateMutability": "view",
      "type": "function"
    },
    {
      "inputs": [
        {
          "internalType": "uint256",
          "name": "newQuorumNumerator",
          "type": "uint256"
        }
      ],
      "name": "updateQuorumNumerator",
      "outputs": [],
      "stateMutability": "nonpayable",
      "type": "function"
    },
    {
      "inputs": [
        {
          "internalType": "contract TimelockController",
          "name": "newTimelock",
          "type": "address"
        }
      ],
      "name": "updateTimelock",
      "outputs": [],
      "stateMutability": "nonpayable",
      "type": "function"
    },
    {
      "inputs": [],
      "name": "version",
      "outputs": [
        {
          "internalType": "string",
          "name": "",
          "type": "string"
        }
      ],
      "stateMutability": "view",
      "type": "function"
    },
    {
      "inputs": [],
      "name": "votingDelay",
      "outputs": [
        {
          "internalType": "uint256",
          "name": "",
          "type": "uint256"
        }
      ],
      "stateMutability": "view",
      "type": "function"
    },
    {
      "inputs": [],
      "name": "votingPeriod",
      "outputs": [
        {
          "internalType": "uint256",
          "name": "",
          "type": "uint256"
        }
      ],
      "stateMutability": "view",
      "type": "function"
    },
    {
      "stateMutability": "payable",
      "type": "receive"
    }
  ],
  "transactionHash": "0xf128d0972f99d10a83a6bce18192788ad5a5d7acb963ba28b63ed7f46ced228c",
  "args": [
    "0x5FbDB2315678afecb367f032d93F642f64180aa3",
    "0x9fE46736679d2D9a65F0992F2272dE9f3c7fa6e0",
    1,
    5
  ],
  "numDeployments": 1,
  "solcInputHash": "033e2906c6b8c0ea9003b4a7e58fb46f",
  "bytecode": "0x61018060405234801562000011575f80fd5b50604051620057e5380380620057e58339810160408190526200003491620007a2565b8260048584845f6040518060400160405280600381526020016244344360e81b81525080620000686200017f60201b60201c565b62000074825f6200019a565b61012052620000858160016200019a565b61014052815160208084019190912060e052815190820120610100524660a0526200011260e05161010051604080517f8b73c3c69bb8fe3d512ecc4cf759cc79239f7b179b0ffacaa9a75d522b39400f60208201529081019290925260608201524660808201523060a08201525f9060c00160405160208183030381529060405280519060200120905090565b60805250503060c0526003620001298282620008aa565b5062000137905083620001d2565b620001428262000238565b6200014d81620002dd565b5050506001600160a01b03166101605262000168816200031e565b506200017481620003bd565b505050505062000a1f565b6040805180820190915260018152603160f81b602082015290565b5f602083511015620001b957620001b18362000426565b9050620001cc565b81620001c68482620008aa565b5060ff90505b92915050565b6008546040805165ffffffffffff928316815291831660208301527fc565b045403dc03c2eea82b81a0465edad9e2e7fc4d97e11421c209da93d7a93910160405180910390a16008805465ffffffffffff191665ffffffffffff92909216919091179055565b8063ffffffff165f03620002665760405163f1cfbf0560e01b81525f60048201526024015b60405180910390fd5b6008546040805163ffffffff66010000000000009093048316815291831660208301527f7e3f7f0708a84de9203036abaa450dccc85ad5ff52f78c170f3edb55cf5e8828910160405180910390a16008805463ffffffff90921666010000000000000263ffffffff60301b19909216919091179055565b60075460408051918252602082018390527fccb45da8d5717e6c4544694297c4ba5cf151d455c9bb0ed4fc7a38411bc05461910160405180910390a1600755565b6064808211156200034d5760405163243e544560e01b815260048101839052602481018290526044016200025d565b5f6200035862000468565b90506200037d6200036862000483565b620003738562000504565b600c91906200053d565b505060408051828152602081018590527f0553476bf02ef2726e8ce5ced78d63e26e602e4a2257b1f559418e24b4633997910160405180910390a1505050565b600d54604080516001600160a01b03928316815291831660208301527f08f74ea46ef7894f65eabfb5e6e695de773a000b47c529ab559178069b226401910160405180910390a1600d80546001600160a01b0319166001600160a01b0392909216919091179055565b5f80829050601f8151111562000453578260405163305a27a960e01b81526004016200025d919062000972565b80516200046082620009bf565b179392505050565b5f62000475600c62000559565b6001600160d01b0316905090565b5f6200048f6101605190565b6001600160a01b03166391ddadf46040518163ffffffff1660e01b8152600401602060405180830381865afa925050508015620004eb575060408051601f3d908101601f19168201909252620004e891810190620009e3565b60015b620004ff57620004fa620005a6565b905090565b919050565b5f6001600160d01b0382111562000539576040516306dfcc6560e41b815260d06004820152602481018390526044016200025d565b5090565b5f806200054c858585620005b2565b915091505b935093915050565b80545f9080156200059d57620005838362000576600184620009ff565b5f91825260209091200190565b54660100000000000090046001600160d01b03166200059f565b5f5b9392505050565b5f620004fa4362000740565b82545f9081908015620006e2575f620005d28762000576600185620009ff565b60408051808201909152905465ffffffffffff80821680845266010000000000009092046001600160d01b0316602084015291925090871610156200062a57604051632520601d60e01b815260040160405180910390fd5b805165ffffffffffff8088169116036200067e5784620006518862000576600186620009ff565b80546001600160d01b039290921666010000000000000265ffffffffffff909216919091179055620006d1565b6040805180820190915265ffffffffffff80881682526001600160d01b0380881660208085019182528b54600181018d555f8d815291909120945191519092166601000000000000029216919091179101555b602001519250839150620005519050565b50506040805180820190915265ffffffffffff80851682526001600160d01b0380851660208085019182528854600181018a555f8a815291822095519251909316660100000000000002919093161792019190915590508162000551565b5f65ffffffffffff82111562000539576040516306dfcc6560e41b815260306004820152602481018390526044016200025d565b6001600160a01b038116811462000789575f80fd5b50565b805165ffffffffffff81168114620004ff575f80fd5b5f805f8060808587031215620007b6575f80fd5b8451620007c38162000774565b6020860151909450620007d68162000774565b9250620007e6604086016200078c565b9150606085015163ffffffff81168114620007ff575f80fd5b939692955090935050565b634e487b7160e01b5f52604160045260245ffd5b600181811c908216806200083357607f821691505b6020821081036200085257634e487b7160e01b5f52602260045260245ffd5b50919050565b601f821115620008a5575f81815260208120601f850160051c81016020861015620008805750805b601f850160051c820191505b81811015620008a1578281556001016200088c565b5050505b505050565b81516001600160401b03811115620008c657620008c66200080a565b620008de81620008d784546200081e565b8462000858565b602080601f83116001811462000914575f8415620008fc5750858301515b5f19600386901b1c1916600185901b178555620008a1565b5f85815260208120601f198616915b82811015620009445788860151825594840194600190910190840162000923565b50858210156200096257878501515f19600388901b60f8161c191681555b5050505050600190811b01905550565b5f6020808352835180828501525f5b818110156200099f5785810183015185820160400152820162000981565b505f604082860101526040601f19601f8301168501019250505092915050565b8051602080830151919081101562000852575f1960209190910360031b1b16919050565b5f60208284031215620009f4575f80fd5b6200059f826200078c565b81810381811115620001cc57634e487b7160e01b5f52601160045260245ffd5b60805160a05160c05160e05161010051610120516101405161016051614d4e62000a975f395f8181610aee0152818161133c0152818161187f015281816125b5015261280801525f61258201525f61255601525f612e1001525f612de801525f612d4301525f612d6d01525f612d970152614d4e5ff3fe60806040526004361061032a575f3560e01c80637ecebe00116101a3578063c28bc2fa116100f2578063e540d01d11610092578063f23a6e611161006d578063f23a6e6114610aa2578063f8ce560a14610ac1578063fc0c546a14610ae0578063fe0d94c114610b12575f80fd5b8063e540d01d14610a45578063eb9019d414610a64578063ece40cc114610a83575f80fd5b8063da35c664116100cd578063da35c6641461099a578063dd4e2ba5146109ae578063ddf0b009146109f3578063deaaa7cc14610a12575f80fd5b8063c28bc2fa1461094b578063c59057e41461095e578063d33219b41461097d575f80fd5b8063a7713a701161015d578063ab58fb8e11610138578063ab58fb8e146108c3578063b58131b0146108f9578063bc197c811461090d578063c01f9e371461092c575f80fd5b8063a7713a7014610871578063a890c91014610885578063a9a95294146108a4575f80fd5b80637ecebe001461079a57806384b0196e146107ce5780638ff262e3146107f557806391ddadf41461081457806397c3d3341461083f5780639a802a6d14610852575f80fd5b80633e4f49e611610279578063567813881161021957806360c4247f116101f457806360c4247f1461071e578063790518871461073d5780637b3c71d31461075c5780637d5e81e21461077b575f80fd5b806356781388146106c15780635b8d0e0d146106e05780635f398a14146106ff575f80fd5b8063452115d611610254578063452115d6146106125780634bf5d7e914610631578063544ffc9c1461064557806354fd4d5014610698575f80fd5b80633e4f49e61461057f57806340e58ee5146105ab57806343859632146105ca575f80fd5b8063160cbed7116102e45780632d63f693116102bf5780632d63f693146104e95780632e82db94146105085780632fe3e261146105385780633932abb11461056b575f80fd5b8063160cbed71461048857806316e9eaec146104a75780632656227d146104d6575f80fd5b806301ffc9a71461036557806302a251a31461039957806306f3f9e6146103c457806306fdde03146103e3578063143489d014610404578063150b7a0214610450575f80fd5b366103615730610338610b25565b6001600160a01b03161461035f57604051637485328f60e11b815260040160405180910390fd5b005b5f80fd5b348015610370575f80fd5b5061038461037f366004613bd9565b610b3d565b60405190151581526020015b60405180910390f35b3480156103a4575f80fd5b50600854600160301b900463ffffffff165b604051908152602001610390565b3480156103cf575f80fd5b5061035f6103de366004613c00565b610b8e565b3480156103ee575f80fd5b506103f7610ba2565b6040516103909190613c64565b34801561040f575f80fd5b5061043861041e366004613c00565b5f908152600460205260409020546001600160a01b031690565b6040516001600160a01b039091168152602001610390565b34801561045b575f80fd5b5061046f61046a366004613d4d565b610c32565b6040516001600160e01b03199091168152602001610390565b348015610493575f80fd5b506103b66104a2366004613f15565b610c74565b3480156104b2575f80fd5b506104c66104c1366004613c00565b610d40565b6040516103909493929190614061565b6103b66104e4366004613f15565b610f3f565b3480156104f4575f80fd5b506103b6610503366004613c00565b6110af565b348015610513575f80fd5b50610527610522366004613c00565b6110cf565b6040516103909594939291906140ab565b348015610543575f80fd5b506103b67f3e83946653575f9a39005e1545185629e92736b7528ab20ca3816f315424a81181565b348015610576575f80fd5b506103b6611119565b34801561058a575f80fd5b5061059e610599366004613c00565b61112b565b6040516103909190614130565b3480156105b6575f80fd5b5061035f6105c5366004613c00565b611135565b3480156105d5575f80fd5b506103846105e436600461413e565b5f8281526009602090815260408083206001600160a01b038516845260030190915290205460ff1692915050565b34801561061d575f80fd5b506103b661062c366004613f15565b6112cc565b34801561063c575f80fd5b506103f7611338565b348015610650575f80fd5b5061067d61065f366004613c00565b5f908152600960205260409020805460018201546002909201549092565b60408051938452602084019290925290820152606001610390565b3480156106a3575f80fd5b506040805180820190915260018152603160f81b60208201526103f7565b3480156106cc575f80fd5b506103b66106db36600461417c565b6113f8565b3480156106eb575f80fd5b506103b66106fa3660046141ea565b61141f565b34801561070a575f80fd5b506103b661071936600461429c565b61157b565b348015610729575f80fd5b506103b6610738366004613c00565b6115ce565b348015610748575f80fd5b5061035f61075736600461432c565b61165a565b348015610767575f80fd5b506103b6610776366004614347565b61166b565b348015610786575f80fd5b506103b661079536600461439c565b6116b1565b3480156107a5575f80fd5b506103b66107b4366004614448565b6001600160a01b03165f9081526002602052604090205490565b3480156107d9575f80fd5b506107e261176b565b6040516103909796959493929190614463565b348015610800575f80fd5b506103b661080f3660046144d2565b6117ad565b34801561081f575f80fd5b5061082861187c565b60405165ffffffffffff9091168152602001610390565b34801561084a575f80fd5b5060646103b6565b34801561085d575f80fd5b506103b661086c36600461451f565b611903565b34801561087c575f80fd5b506103b661190f565b348015610890575f80fd5b5061035f61089f366004614448565b611928565b3480156108af575f80fd5b506103846108be366004613c00565b611939565b3480156108ce575f80fd5b506103b66108dd366004613c00565b5f9081526004602052604090206001015465ffffffffffff1690565b348015610904575f80fd5b506103b6611941565b348015610918575f80fd5b5061046f610927366004614573565b61194b565b348015610937575f80fd5b506103b6610946366004613c00565b61198e565b61035f6109593660046145ff565b6119d0565b348015610969575f80fd5b506103b6610978366004613f15565b611a4c565b348015610988575f80fd5b50600d546001600160a01b0316610438565b3480156109a5575f80fd5b50600a546103b6565b3480156109b9575f80fd5b506040805180820190915260208082527f737570706f72743d627261766f2671756f72756d3d666f722c6162737461696e908201526103f7565b3480156109fe575f80fd5b5061035f610a0d366004613c00565b611a85565b348015610a1d575f80fd5b506103b67ff2aad550cf55f045cb27e9c559f9889fdfb6e6cdaa032301d6ea397784ae51d781565b348015610a50575f80fd5b5061035f610a5f36600461463e565b611c17565b348015610a6f575f80fd5b506103b6610a7e366004614661565b611c28565b348015610a8e575f80fd5b5061035f610a9d366004613c00565b611c4e565b348015610aad575f80fd5b5061046f610abc36600461468b565b611c5f565b348015610acc575f80fd5b506103b6610adb366004613c00565b611ca2565b348015610aeb575f80fd5b507f0000000000000000000000000000000000000000000000000000000000000000610438565b61035f610b20366004613c00565b611cac565b5f610b38600d546001600160a01b031690565b905090565b5f6001600160e01b031982166332a2ad4360e11b1480610b6d57506001600160e01b03198216630271189760e51b145b80610b8857506301ffc9a760e01b6001600160e01b03198316145b92915050565b610b96611e3e565b610b9f81611eb7565b50565b606060038054610bb1906146ee565b80601f0160208091040260200160405190810160405280929190818152602001828054610bdd906146ee565b8015610c285780601f10610bff57610100808354040283529160200191610c28565b820191905f5260205f20905b815481529060010190602001808311610c0b57829003601f168201915b5050505050905090565b5f30610c3c610b25565b6001600160a01b031614610c6357604051637485328f60e11b815260040160405180910390fd5b50630a85bd0160e11b949350505050565b5f80610c8286868686611a4c565b9050610c9781610c926004611f4c565b611f6e565b505f610ca68288888888611fab565b905065ffffffffffff811615610d1d575f82815260046020908152604091829020600101805465ffffffffffff191665ffffffffffff85169081179091558251858152918201527f9a2e42fd6722813d69113e7d0079d3d940171428df7373df9c7f7617cfda2892910160405180910390a1610d36565b604051634844252360e11b815260040160405180910390fd5b5095945050505050565b5f818152600b602090815260408083208151815460a0948102820185019093526080810183815260609586958695919485949390928492849190840182828015610db157602002820191905f5260205f20905b81546001600160a01b03168152600190910190602001808311610d93575b5050505050815260200160018201805480602002602001604051908101604052809291908181526020018280548015610e0757602002820191905f5260205f20905b815481526020019060010190808311610df3575b5050505050815260200160028201805480602002602001604051908101604052809291908181526020015f905b82821015610edc578382905f5260205f20018054610e51906146ee565b80601f0160208091040260200160405190810160405280929190818152602001828054610e7d906146ee565b8015610ec85780601f10610e9f57610100808354040283529160200191610ec8565b820191905f5260205f20905b815481529060010190602001808311610eab57829003601f168201915b505050505081526020019060010190610e34565b505050508152602001600382015481525050905080606001515f801b03610f1e57604051636ad0607560e01b8152600481018790526024015b60405180910390fd5b80516020820151604083015160609093015191989097509195509350915050565b5f80610f4d86868686611a4c565b9050610f6d81610f5d6005611f4c565b610f676004611f4c565b17611f6e565b505f818152600460205260409020805460ff60f01b1916600160f01b17905530610f95610b25565b6001600160a01b031614611026575f5b865181101561102457306001600160a01b0316878281518110610fca57610fca614726565b60200260200101516001600160a01b03160361101457611014858281518110610ff557610ff5614726565b6020026020010151805190602001206005611fb990919063ffffffff16565b61101d8161474e565b9050610fa5565b505b6110338187878787612029565b3061103c610b25565b6001600160a01b03161415801561106857506005546001600160801b03808216600160801b9092041614155b15611072575f6005555b6040518181527f712ae1383f79ac853f8d882153778e0260ef8f03b504e2866e0593e04d2b291f906020015b60405180910390a195945050505050565b5f90815260046020526040902054600160a01b900465ffffffffffff1690565b5f60608060605f80600a87815481106110ea576110ea614726565b905f5260205f20015490505f805f8061110285610d40565b979e929d50909b5099509497509395505050505050565b5f610b3860085465ffffffffffff1690565b5f610b888261203d565b5f818152600b6020908152604091829020805483518184028101840190945280845290926112c7929091849183018282801561119857602002820191905f5260205f20905b81546001600160a01b0316815260019091019060200180831161117a575b5050505050826001018054806020026020016040519081016040528092919081815260200182805480156111e957602002820191905f5260205f20905b8154815260200190600101908083116111d5575b505050505083600201805480602002602001604051908101604052809291908181526020015f905b828210156112b9578382905f5260205f2001805461122e906146ee565b80601f016020809104026020016040519081016040528092919081815260200182805461125a906146ee565b80156112a55780601f1061127c576101008083540402835291602001916112a5565b820191905f5260205f20905b81548152906001019060200180831161128857829003601f168201915b505050505081526020019060010190611211565b5050505084600301546112cc565b505050565b5f806112da86868686611a4c565b90506112e981610c925f611f4c565b505f818152600460205260409020546001600160a01b031633146113225760405163233d98e360e01b8152336004820152602401610f15565b61132e86868686612176565b9695505050505050565b60607f00000000000000000000000000000000000000000000000000000000000000006001600160a01b0316634bf5d7e96040518163ffffffff1660e01b81526004015f60405180830381865afa9250505080156113b757506040513d5f823e601f3d908101601f191682016040526113b49190810190614766565b60015b6113f3575060408051808201909152601d81527f6d6f64653d626c6f636b6e756d6265722666726f6d3d64656661756c74000000602082015290565b919050565b5f8033905061141784828560405180602001604052805f81525061218c565b949350505050565b5f80611500876114fa7f3e83946653575f9a39005e1545185629e92736b7528ab20ca3816f315424a8118c8c8c6114728e6001600160a01b03165f90815260026020526040902080546001810190915590565b8d8d6040516114829291906147ce565b60405180910390208c805190602001206040516020016114df9796959493929190968752602087019590955260ff9390931660408601526001600160a01b03919091166060850152608084015260a083015260c082015260e00190565b604051602081830303815290604052805190602001206121ad565b856121d9565b90508061152b576040516394ab6c0760e01b81526001600160a01b0388166004820152602401610f15565b61156e89888a89898080601f0160208091040260200160405190810160405280939291908181526020018383808284375f920191909152508b925061222e915050565b9998505050505050505050565b5f803390506115c387828888888080601f0160208091040260200160405190810160405280939291908181526020018383808284375f920191909152508a925061222e915050565b979650505050505050565b600c80545f9182906115e16001846147dd565b815481106115f1576115f1614726565b5f918252602090912001805490915065ffffffffffff811690600160301b90046001600160d01b0316858211611633576001600160d01b031695945050505050565b61164761163f87612308565b600c9061233e565b6001600160d01b03169695505050505050565b611662611e3e565b610b9f816123ed565b5f8033905061132e86828787878080601f0160208091040260200160405190810160405280939291908181526020018383808284375f9201919091525061218c92505050565b5f336116bd8184612453565b6116e55760405163d9b3955760e01b81526001600160a01b0382166004820152602401610f15565b5f61170b8260016116f461187c565b6116fe91906147f0565b65ffffffffffff16611c28565b90505f611716611941565b90508082101561175257604051636121770b60e11b81526001600160a01b03841660048201526024810183905260448101829052606401610f15565b61175f8888888887612541565b98975050505050505050565b5f6060805f805f606061177c61254f565b61178461257b565b604080515f80825260208201909252600f60f81b9b939a50919850469750309650945092509050565b5f80611837846114fa7ff2aad550cf55f045cb27e9c559f9889fdfb6e6cdaa032301d6ea397784ae51d78989896118008b6001600160a01b03165f90815260026020526040902080546001810190915590565b60408051602081019690965285019390935260ff90911660608401526001600160a01b0316608083015260a082015260c0016114df565b905080611862576040516394ab6c0760e01b81526001600160a01b0385166004820152602401610f15565b61132e86858760405180602001604052805f81525061218c565b5f7f00000000000000000000000000000000000000000000000000000000000000006001600160a01b03166391ddadf46040518163ffffffff1660e01b8152600401602060405180830381865afa9250505080156118f7575060408051601f3d908101601f191682019092526118f491810190614816565b60015b6113f357610b386125a8565b5f6114178484846125b2565b5f61191a600c612645565b6001600160d01b0316905090565b611930611e3e565b610b9f8161267c565b5f6001610b88565b5f610b3860075490565b5f30611955610b25565b6001600160a01b03161461197c57604051637485328f60e11b815260040160405180910390fd5b5063bc197c8160e01b95945050505050565b5f818152600460205260408120546119c290600160d01b810463ffffffff1690600160a01b900465ffffffffffff16614831565b65ffffffffffff1692915050565b6119d8611e3e565b5f80856001600160a01b03168585856040516119f59291906147ce565b5f6040518083038185875af1925050503d805f8114611a2f576040519150601f19603f3d011682016040523d82523d5f602084013e611a34565b606091505b5091509150611a4382826126e5565b50505050505050565b5f84848484604051602001611a649493929190614061565b60408051601f19818403018152919052805160209091012095945050505050565b5f818152600b6020908152604091829020805483518184028101840190945280845290926112c79290918491830182828015611ae857602002820191905f5260205f20905b81546001600160a01b03168152600190910190602001808311611aca575b505050505082600101805480602002602001604051908101604052809291908181526020018280548015611b3957602002820191905f5260205f20905b815481526020019060010190808311611b25575b505050505083600201805480602002602001604051908101604052809291908181526020015f905b82821015611c09578382905f5260205f20018054611b7e906146ee565b80601f0160208091040260200160405190810160405280929190818152602001828054611baa906146ee565b8015611bf55780601f10611bcc57610100808354040283529160200191611bf5565b820191905f5260205f20905b815481529060010190602001808311611bd857829003601f168201915b505050505081526020019060010190611b61565b505050508460030154610c74565b611c1f611e3e565b610b9f81612701565b5f611c478383611c4260408051602081019091525f815290565b6125b2565b9392505050565b611c56611e3e565b610b9f8161279d565b5f30611c69610b25565b6001600160a01b031614611c9057604051637485328f60e11b815260040160405180910390fd5b5063f23a6e6160e01b95945050505050565b5f610b88826127de565b5f818152600b6020908152604091829020805483518184028101840190945280845290926112c79290918491830182828015611d0f57602002820191905f5260205f20905b81546001600160a01b03168152600190910190602001808311611cf1575b505050505082600101805480602002602001604051908101604052809291908181526020018280548015611d6057602002820191905f5260205f20905b815481526020019060010190808311611d4c575b505050505083600201805480602002602001604051908101604052809291908181526020015f905b82821015611e30578382905f5260205f20018054611da5906146ee565b80601f0160208091040260200160405190810160405280929190818152602001828054611dd1906146ee565b8015611e1c5780601f10611df357610100808354040283529160200191611e1c565b820191905f5260205f20905b815481529060010190602001808311611dff57829003601f168201915b505050505081526020019060010190611d88565b505050508460030154610f3f565b33611e47610b25565b6001600160a01b031614611e70576040516347096e4760e01b8152336004820152602401610f15565b30611e79610b25565b6001600160a01b031614611eb5575f8036604051611e989291906147ce565b604051809103902090505b80611eae6005612885565b03611ea357505b565b606480821115611ee45760405163243e544560e01b81526004810183905260248101829052604401610f15565b5f611eed61190f565b9050611f0c611efa61187c565b611f0385612901565b600c9190612934565b505060408051828152602081018590527f0553476bf02ef2726e8ce5ced78d63e26e602e4a2257b1f559418e24b4633997910160405180910390a1505050565b5f816007811115611f5f57611f5f6140fc565b600160ff919091161b92915050565b5f80611f798461112b565b90505f83611f8683611f4c565b1603611c47578381846040516331b75e4d60e01b8152600401610f1593929190614850565b5f61132e868686868661294e565b81546001600160801b03600160801b820481169181166001830190911603611ff457604051638acb5f2760e01b815260040160405180910390fd5b6001600160801b038082165f90815260018086016020526040909120939093558354919092018216600160801b029116179055565b6120368585858585612adf565b5050505050565b5f8061204883612b6f565b9050600581600781111561205e5761205e6140fc565b146120695792915050565b5f838152600e60205260409081902054600d549151632c258a9f60e11b81526004810182905290916001600160a01b03169063584b153e90602401602060405180830381865afa1580156120bf573d5f803e3d5ffd5b505050506040513d601f19601f820116820180604052508101906120e39190614872565b156120f2575060059392505050565b600d54604051632ab0f52960e01b8152600481018390526001600160a01b0390911690632ab0f52990602401602060405180830381865afa158015612139573d5f803e3d5ffd5b505050506040513d601f19601f8201168201806040525081019061215d9190614872565b1561216c575060079392505050565b5060029392505050565b5f61218385858585612ca0565b95945050505050565b5f612183858585856121a860408051602081019091525f815290565b61222e565b5f610b886121b9612d37565b8360405161190160f01b8152600281019290925260228201526042902090565b5f805f6121e68585612e60565b5090925090505f8160038111156121ff576121ff6140fc565b14801561221d5750856001600160a01b0316826001600160a01b0316145b8061132e575061132e868686612ea9565b5f61223d86610c926001611f4c565b505f6122528661224c896110af565b856125b2565b90506122618787878487612f7f565b82515f036122b557856001600160a01b03167fb8e138887d0aa13bab447e82de9d5c1777041ecd21ca36ba824ff1e6c07ddda4888784886040516122a89493929190614891565b60405180910390a261132e565b856001600160a01b03167fe2babfbac5889a709b63bb7f598b324e08bc5a4fb9ec647fb3cbc9ec07eb871288878488886040516122f69594939291906148b8565b60405180910390a29695505050505050565b5f65ffffffffffff82111561233a576040516306dfcc6560e41b81526030600482015260248101839052604401610f15565b5090565b81545f908181600581111561239a575f61235784613079565b61236190856147dd565b5f8881526020902090915081015465ffffffffffff908116908716101561238a57809150612398565b6123958160016148f1565b92505b505b5f6123a78787858561315d565b905080156123e1576123cb876123be6001846147dd565b5f91825260209091200190565b54600160301b90046001600160d01b03166115c3565b5f979650505050505050565b6008546040805165ffffffffffff928316815291831660208301527fc565b045403dc03c2eea82b81a0465edad9e2e7fc4d97e11421c209da93d7a93910160405180910390a16008805465ffffffffffff191665ffffffffffff92909216919091179055565b80515f90603481101561246a576001915050610b88565b82810160131901516001600160a01b031981166b046e0e4dee0dee6cae47a60f60a31b1461249d57600192505050610b88565b5f806124aa6028856147dd565b90505b83811015612520575f806124e08884815181106124cc576124cc614726565b01602001516001600160f81b0319166131bc565b91509150816124f85760019650505050505050610b88565b8060ff166004856001600160a01b0316901b1793505050806125199061474e565b90506124ad565b50856001600160a01b0316816001600160a01b031614935050505092915050565b5f61132e868686868661324c565b6060610b387f00000000000000000000000000000000000000000000000000000000000000005f613325565b6060610b387f00000000000000000000000000000000000000000000000000000000000000006001613325565b5f610b3843612308565b5f7f0000000000000000000000000000000000000000000000000000000000000000604051630748d63560e31b81526001600160a01b038681166004830152602482018690529190911690633a46b1a890604401602060405180830381865afa158015612621573d5f803e3d5ffd5b505050506040513d601f19601f820116820180604052508101906114179190614904565b80545f9080156126745761265e836123be6001846147dd565b54600160301b90046001600160d01b0316611c47565b5f9392505050565b600d54604080516001600160a01b03928316815291831660208301527f08f74ea46ef7894f65eabfb5e6e695de773a000b47c529ab559178069b226401910160405180910390a1600d80546001600160a01b0319166001600160a01b0392909216919091179055565b6060826126fa576126f5826133ce565b610b88565b5080610b88565b8063ffffffff165f036127295760405163f1cfbf0560e01b81525f6004820152602401610f15565b6008546040805163ffffffff600160301b9093048316815291831660208301527f7e3f7f0708a84de9203036abaa450dccc85ad5ff52f78c170f3edb55cf5e8828910160405180910390a16008805463ffffffff909216600160301b0269ffffffff00000000000019909216919091179055565b60075460408051918252602082018390527fccb45da8d5717e6c4544694297c4ba5cf151d455c9bb0ed4fc7a38411bc05461910160405180910390a1600755565b5f60646127ea836115ce565b604051632394e7a360e21b8152600481018590526001600160a01b037f00000000000000000000000000000000000000000000000000000000000000001690638e539e8c90602401602060405180830381865afa15801561284d573d5f803e3d5ffd5b505050506040513d601f19601f820116820180604052508101906128719190614904565b61287b919061491b565b610b889190614946565b80545f906001600160801b0380821691600160801b90041681036128bc576040516375e52f4f60e01b815260040160405180910390fd5b6001600160801b038181165f908152600185810160205260408220805492905585546fffffffffffffffffffffffffffffffff19169301909116919091179092555090565b5f6001600160d01b0382111561233a576040516306dfcc6560e41b815260d0600482015260248101839052604401610f15565b5f806129418585856133f7565b915091505b935093915050565b5f80600d5f9054906101000a90046001600160a01b03166001600160a01b031663f27a0c926040518163ffffffff1660e01b8152600401602060405180830381865afa1580156129a0573d5f803e3d5ffd5b505050506040513d601f19601f820116820180604052508101906129c49190614904565b90505f3060601b6bffffffffffffffffffffffff19168418600d5460405163b1c5f42760e01b81529192506001600160a01b03169063b1c5f42790612a15908a908a908a905f908890600401614965565b602060405180830381865afa158015612a30573d5f803e3d5ffd5b505050506040513d601f19601f82011682018060405250810190612a549190614904565b5f898152600e602052604080822092909255600d5491516308f2a0bb60e41b81526001600160a01b0390921691638f2a0bb091612a9e918b918b918b919088908a906004016149b2565b5f604051808303815f87803b158015612ab5575f80fd5b505af1158015612ac7573d5f803e3d5ffd5b5050505061175f8242612ada91906148f1565b612308565b600d546001600160a01b031663e38335e5348686865f3060601b6bffffffffffffffffffffffff191688186040518763ffffffff1660e01b8152600401612b2a959493929190614965565b5f604051808303818588803b158015612b41575f80fd5b505af1158015612b53573d5f803e3d5ffd5b5050505f9687525050600e602052505060408320929092555050565b5f818152600460205260408120805460ff600160f01b8204811691600160f81b9004168115612ba357506007949350505050565b8015612bb457506002949350505050565b5f612bbe866110af565b9050805f03612be357604051636ad0607560e01b815260048101879052602401610f15565b5f612bec61187c565b65ffffffffffff169050808210612c0957505f9695505050505050565b5f612c138861198e565b9050818110612c2a57506001979650505050505050565b612c338861356d565b1580612c5257505f888152600960205260409020805460019091015411155b15612c6557506003979650505050505050565b5f8881526004602052604090206001015465ffffffffffff165f03612c9257506004979650505050505050565b506005979650505050505050565b5f80612cae868686866135a3565b5f818152600e60205260409020549091508015610d3657600d5460405163c4d252f560e01b8152600481018390526001600160a01b039091169063c4d252f5906024015f604051808303815f87803b158015612d08575f80fd5b505af1158015612d1a573d5f803e3d5ffd5b5050505f838152600e602052604081205550509050949350505050565b5f306001600160a01b037f000000000000000000000000000000000000000000000000000000000000000016148015612d8f57507f000000000000000000000000000000000000000000000000000000000000000046145b15612db957507f000000000000000000000000000000000000000000000000000000000000000090565b610b38604080517f8b73c3c69bb8fe3d512ecc4cf759cc79239f7b179b0ffacaa9a75d522b39400f60208201527f0000000000000000000000000000000000000000000000000000000000000000918101919091527f000000000000000000000000000000000000000000000000000000000000000060608201524660808201523060a08201525f9060c00160405160208183030381529060405280519060200120905090565b5f805f8351604103612e97576020840151604085015160608601515f1a612e8988828585613652565b955095509550505050612ea2565b505081515f91506002905b9250925092565b5f805f856001600160a01b03168585604051602401612ec9929190614a09565b60408051601f198184030181529181526020820180516001600160e01b0316630b135d3f60e11b17905251612efe9190614a21565b5f60405180830381855afa9150503d805f8114612f36576040519150601f19603f3d011682016040523d82523d5f602084013e612f3b565b606091505b5091509150818015612f4f57506020815110155b801561132e57508051630b135d3f60e11b90612f749083016020908101908401614904565b149695505050505050565b5f8581526009602090815260408083206001600160a01b0388168452600381019092529091205460ff1615612fd2576040516371c6af4960e01b81526001600160a01b0386166004820152602401610f15565b6001600160a01b0385165f9081526003820160205260409020805460ff1916600117905560ff841661301b5782815f015f82825461301091906148f1565b909155506130719050565b5f1960ff8516016130395782816001015f82825461301091906148f1565b60011960ff8516016130585782816002015f82825461301091906148f1565b6040516303599be160e11b815260040160405180910390fd5b505050505050565b5f815f0361308857505f919050565b5f60016130948461371a565b901c6001901b905060018184816130ad576130ad614932565b048201901c905060018184816130c5576130c5614932565b048201901c905060018184816130dd576130dd614932565b048201901c905060018184816130f5576130f5614932565b048201901c9050600181848161310d5761310d614932565b048201901c9050600181848161312557613125614932565b048201901c9050600181848161313d5761313d614932565b048201901c9050611c478182858161315757613157614932565b046137ad565b5f5b818310156131b4575f61317284846137c2565b5f8781526020902090915065ffffffffffff86169082015465ffffffffffff1611156131a0578092506131ae565b6131ab8160016148f1565b93505b5061315f565b509392505050565b5f8060f883901c602f811180156131d65750603a8160ff16105b156131eb57600194602f199091019350915050565b8060ff166040108015613201575060478160ff16105b15613216576001946036199091019350915050565b8060ff16606010801561322c575060678160ff16105b15613241576001946056199091019350915050565b505f93849350915050565b5f8061325b87878787876137dc565b600a80546001810182555f9182527fc65a7bb8d6351c1cf70c95a316cc6a92839c986682d98bc35f958f4883f9d2a801829055604080516080810182528a815260208181018b90528183018a90528851898201206060830152848452600b81529190922082518051949550929390926132d8928492910190613a8a565b5060208281015180516132f19260018501920190613ae9565b506040820151805161330d916002840191602090910190613b22565b50606091909101516003909101559695505050505050565b606060ff831461333f57613338836139f6565b9050610b88565b81805461334b906146ee565b80601f0160208091040260200160405190810160405280929190818152602001828054613377906146ee565b80156133c25780601f10613399576101008083540402835291602001916133c2565b820191905f5260205f20905b8154815290600101906020018083116133a557829003601f168201915b50505050509050610b88565b8051156133de5780518082602001fd5b604051630a12f52160e11b815260040160405180910390fd5b82545f9081908015613513575f613413876123be6001856147dd565b60408051808201909152905465ffffffffffff808216808452600160301b9092046001600160d01b03166020840152919250908716101561346757604051632520601d60e01b815260040160405180910390fd5b805165ffffffffffff8088169116036134b3578461348a886123be6001866147dd565b80546001600160d01b0392909216600160301b0265ffffffffffff909216919091179055613503565b6040805180820190915265ffffffffffff80881682526001600160d01b0380881660208085019182528b54600181018d555f8d81529190912094519151909216600160301b029216919091179101555b6020015192508391506129469050565b50506040805180820190915265ffffffffffff80851682526001600160d01b0380851660208085019182528854600181018a555f8a815291822095519251909316600160301b029190931617920191909155905081612946565b5f8181526009602052604081206002810154600182015461358e91906148f1565b61359a610adb856110af565b11159392505050565b5f806135b186868686611a4c565b90506135ff816135c16007611f4c565b6135cb6006611f4c565b6135d56002611f4c565b60016135e2600782614a3c565b6135ed906002614b35565b6135f791906147dd565b181818611f6e565b505f818152600460205260409081902080546001600160f81b0316600160f81b179055517f789cf55be980739dad1d0699b93b58e806b51c9d96619bfa8fe0a28abaa7b30c9061109e9083815260200190565b5f80807f7fffffffffffffffffffffffffffffff5d576e7357a4501ddfe92f46681b20a084111561368b57505f91506003905082613710565b604080515f808252602082018084528a905260ff891692820192909252606081018790526080810186905260019060a0016020604051602081039080840390855afa1580156136dc573d5f803e3d5ffd5b5050604051601f1901519150506001600160a01b03811661370757505f925060019150829050613710565b92505f91508190505b9450945094915050565b5f80608083901c1561372e57608092831c92015b604083901c1561374057604092831c92015b602083901c1561375257602092831c92015b601083901c1561376457601092831c92015b600883901c1561377657600892831c92015b600483901c1561378857600492831c92015b600283901c1561379a57600292831c92015b600183901c15610b885760010192915050565b5f8183106137bb5781611c47565b5090919050565b5f6137d06002848418614946565b611c47908484166148f1565b5f6137f08686868680519060200120611a4c565b90508451865114158061380557508351865114155b8061380f57508551155b1561384457855184518651604051630447b05d60e41b8152600481019390935260248301919091526044820152606401610f15565b5f81815260046020526040902054600160a01b900465ffffffffffff161561388d57806138708261112b565b6040516331b75e4d60e01b8152610f159291905f90600401614850565b5f613896611119565b61389e61187c565b65ffffffffffff166138b091906148f1565b90505f6138ca60085463ffffffff600160301b9091041690565b5f84815260046020526040902080546001600160a01b0319166001600160a01b0387161781559091506138fc83612308565b815465ffffffffffff91909116600160a01b0265ffffffffffff60a01b1990911617815561392982613a33565b815463ffffffff91909116600160d01b0263ffffffff60d01b1990911617815588517f7d84a6263ae0d98d3329bd7b46bb4e8d6f98cd35a7adb45c274c8b7fd5ebd5e090859087908c908c906001600160401b0381111561398c5761398c613c8a565b6040519080825280602002602001820160405280156139bf57816020015b60608152602001906001900390816139aa5790505b508c896139cc8a826148f1565b8e6040516139e299989796959493929190614b43565b60405180910390a150505095945050505050565b60605f613a0283613a63565b6040805160208082528183019092529192505f91906020820181803683375050509182525060208101929092525090565b5f63ffffffff82111561233a576040516306dfcc6560e41b81526020600482015260248101839052604401610f15565b5f60ff8216601f811115610b8857604051632cd44ac360e21b815260040160405180910390fd5b828054828255905f5260205f20908101928215613add579160200282015b82811115613add57825182546001600160a01b0319166001600160a01b03909116178255602090920191600190910190613aa8565b5061233a929150613b72565b828054828255905f5260205f20908101928215613add579160200282015b82811115613add578251825591602001919060010190613b07565b828054828255905f5260205f20908101928215613b66579160200282015b82811115613b665782518290613b569082614c5d565b5091602001919060010190613b40565b5061233a929150613b86565b5b8082111561233a575f8155600101613b73565b8082111561233a575f613b998282613ba2565b50600101613b86565b508054613bae906146ee565b5f825580601f10613bbd575050565b601f0160209004905f5260205f2090810190610b9f9190613b72565b5f60208284031215613be9575f80fd5b81356001600160e01b031981168114611c47575f80fd5b5f60208284031215613c10575f80fd5b5035919050565b5f5b83811015613c31578181015183820152602001613c19565b50505f910152565b5f8151808452613c50816020860160208601613c17565b601f01601f19169290920160200192915050565b602081525f611c476020830184613c39565b6001600160a01b0381168114610b9f575f80fd5b634e487b7160e01b5f52604160045260245ffd5b604051601f8201601f191681016001600160401b0381118282101715613cc657613cc6613c8a565b604052919050565b5f6001600160401b03821115613ce657613ce6613c8a565b50601f01601f191660200190565b5f613d06613d0184613cce565b613c9e565b9050828152838383011115613d19575f80fd5b828260208301375f602084830101529392505050565b5f82601f830112613d3e575f80fd5b611c4783833560208501613cf4565b5f805f8060808587031215613d60575f80fd5b8435613d6b81613c76565b93506020850135613d7b81613c76565b92506040850135915060608501356001600160401b03811115613d9c575f80fd5b613da887828801613d2f565b91505092959194509250565b5f6001600160401b03821115613dcc57613dcc613c8a565b5060051b60200190565b5f82601f830112613de5575f80fd5b81356020613df5613d0183613db4565b82815260059290921b84018101918181019086841115613e13575f80fd5b8286015b84811015613e37578035613e2a81613c76565b8352918301918301613e17565b509695505050505050565b5f82601f830112613e51575f80fd5b81356020613e61613d0183613db4565b82815260059290921b84018101918181019086841115613e7f575f80fd5b8286015b84811015613e375780358352918301918301613e83565b5f82601f830112613ea9575f80fd5b81356020613eb9613d0183613db4565b82815260059290921b84018101918181019086841115613ed7575f80fd5b8286015b84811015613e375780356001600160401b03811115613ef9575f8081fd5b613f078986838b0101613d2f565b845250918301918301613edb565b5f805f8060808587031215613f28575f80fd5b84356001600160401b0380821115613f3e575f80fd5b613f4a88838901613dd6565b95506020870135915080821115613f5f575f80fd5b613f6b88838901613e42565b94506040870135915080821115613f80575f80fd5b50613f8d87828801613e9a565b949793965093946060013593505050565b5f8151808452602080850194508084015f5b83811015613fd55781516001600160a01b031687529582019590820190600101613fb0565b509495945050505050565b5f8151808452602080850194508084015f5b83811015613fd557815187529582019590820190600101613ff2565b5f81518084526020808501808196508360051b810191508286015f5b85811015614054578284038952614042848351613c39565b9885019893509084019060010161402a565b5091979650505050505050565b608081525f6140736080830187613f9e565b82810360208401526140858187613fe0565b90508281036040840152614099818661400e565b91505082606083015295945050505050565b85815260a060208201525f6140c360a0830187613f9e565b82810360408401526140d58187613fe0565b905082810360608401526140e9818661400e565b9150508260808301529695505050505050565b634e487b7160e01b5f52602160045260245ffd5b6008811061412c57634e487b7160e01b5f52602160045260245ffd5b9052565b60208101610b888284614110565b5f806040838503121561414f575f80fd5b82359150602083013561416181613c76565b809150509250929050565b803560ff811681146113f3575f80fd5b5f806040838503121561418d575f80fd5b8235915061419d6020840161416c565b90509250929050565b5f8083601f8401126141b6575f80fd5b5081356001600160401b038111156141cc575f80fd5b6020830191508360208285010111156141e3575f80fd5b9250929050565b5f805f805f805f60c0888a031215614200575f80fd5b873596506142106020890161416c565b9550604088013561422081613c76565b945060608801356001600160401b038082111561423b575f80fd5b6142478b838c016141a6565b909650945060808a013591508082111561425f575f80fd5b61426b8b838c01613d2f565b935060a08a0135915080821115614280575f80fd5b5061428d8a828b01613d2f565b91505092959891949750929550565b5f805f805f608086880312156142b0575f80fd5b853594506142c06020870161416c565b935060408601356001600160401b03808211156142db575f80fd5b6142e789838a016141a6565b909550935060608801359150808211156142ff575f80fd5b5061430c88828901613d2f565b9150509295509295909350565b65ffffffffffff81168114610b9f575f80fd5b5f6020828403121561433c575f80fd5b8135611c4781614319565b5f805f806060858703121561435a575f80fd5b8435935061436a6020860161416c565b925060408501356001600160401b03811115614384575f80fd5b614390878288016141a6565b95989497509550505050565b5f805f80608085870312156143af575f80fd5b84356001600160401b03808211156143c5575f80fd5b6143d188838901613dd6565b955060208701359150808211156143e6575f80fd5b6143f288838901613e42565b94506040870135915080821115614407575f80fd5b61441388838901613e9a565b93506060870135915080821115614428575f80fd5b508501601f81018713614439575f80fd5b613da887823560208401613cf4565b5f60208284031215614458575f80fd5b8135611c4781613c76565b60ff60f81b8816815260e060208201525f61448160e0830189613c39565b82810360408401526144938189613c39565b606084018890526001600160a01b038716608085015260a0840186905283810360c085015290506144c48185613fe0565b9a9950505050505050505050565b5f805f80608085870312156144e5575f80fd5b843593506144f56020860161416c565b9250604085013561450581613c76565b915060608501356001600160401b03811115613d9c575f80fd5b5f805f60608486031215614531575f80fd5b833561453c81613c76565b92506020840135915060408401356001600160401b0381111561455d575f80fd5b61456986828701613d2f565b9150509250925092565b5f805f805f60a08688031215614587575f80fd5b853561459281613c76565b945060208601356145a281613c76565b935060408601356001600160401b03808211156145bd575f80fd5b6145c989838a01613e42565b945060608801359150808211156145de575f80fd5b6145ea89838a01613e42565b935060808801359150808211156142ff575f80fd5b5f805f8060608587031215614612575f80fd5b843561461d81613c76565b93506020850135925060408501356001600160401b03811115614384575f80fd5b5f6020828403121561464e575f80fd5b813563ffffffff81168114611c47575f80fd5b5f8060408385031215614672575f80fd5b823561467d81613c76565b946020939093013593505050565b5f805f805f60a0868803121561469f575f80fd5b85356146aa81613c76565b945060208601356146ba81613c76565b9350604086013592506060860135915060808601356001600160401b038111156146e2575f80fd5b61430c88828901613d2f565b600181811c9082168061470257607f821691505b60208210810361472057634e487b7160e01b5f52602260045260245ffd5b50919050565b634e487b7160e01b5f52603260045260245ffd5b634e487b7160e01b5f52601160045260245ffd5b5f6001820161475f5761475f61473a565b5060010190565b5f60208284031215614776575f80fd5b81516001600160401b0381111561478b575f80fd5b8201601f8101841361479b575f80fd5b80516147a9613d0182613cce565b8181528560208385010111156147bd575f80fd5b612183826020830160208601613c17565b818382375f9101908152919050565b81810381811115610b8857610b8861473a565b65ffffffffffff82811682821603908082111561480f5761480f61473a565b5092915050565b5f60208284031215614826575f80fd5b8151611c4781614319565b65ffffffffffff81811683821601908082111561480f5761480f61473a565b838152606081016148646020830185614110565b826040830152949350505050565b5f60208284031215614882575f80fd5b81518015158114611c47575f80fd5b84815260ff84166020820152826040820152608060608201525f61132e6080830184613c39565b85815260ff8516602082015283604082015260a060608201525f6148df60a0830185613c39565b828103608084015261175f8185613c39565b80820180821115610b8857610b8861473a565b5f60208284031215614914575f80fd5b5051919050565b8082028115828204841417610b8857610b8861473a565b634e487b7160e01b5f52601260045260245ffd5b5f8261496057634e487b7160e01b5f52601260045260245ffd5b500490565b60a081525f61497760a0830188613f9e565b82810360208401526149898188613fe0565b9050828103604084015261499d818761400e565b60608401959095525050608001529392505050565b60c081525f6149c460c0830189613f9e565b82810360208401526149d68189613fe0565b905082810360408401526149ea818861400e565b60608401969096525050608081019290925260a0909101529392505050565b828152604060208201525f6114176040830184613c39565b5f8251614a32818460208701613c17565b9190910192915050565b60ff8181168382160190811115610b8857610b8861473a565b600181815b80851115614a8f57815f1904821115614a7557614a7561473a565b80851615614a8257918102915b93841c9390800290614a5a565b509250929050565b5f82614aa557506001610b88565b81614ab157505f610b88565b8160018114614ac75760028114614ad157614aed565b6001915050610b88565b60ff841115614ae257614ae261473a565b50506001821b610b88565b5060208310610133831016604e8410600b8410161715614b10575081810a610b88565b614b1a8383614a55565b805f1904821115614b2d57614b2d61473a565b029392505050565b5f611c4760ff841683614a97565b5f6101208b8352602060018060a01b038c1681850152816040850152614b6b8285018c613f9e565b91508382036060850152614b7f828b613fe0565b915083820360808501528189518084528284019150828160051b850101838c015f5b83811015614bcf57601f19878403018552614bbd838351613c39565b94860194925090850190600101614ba1565b505086810360a0880152614be3818c61400e565b9450505050508560c08401528460e0840152828103610100840152614c088185613c39565b9c9b505050505050505050505050565b601f8211156112c7575f81815260208120601f850160051c81016020861015614c3e5750805b601f850160051c820191505b8181101561307157828155600101614c4a565b81516001600160401b03811115614c7657614c76613c8a565b614c8a81614c8484546146ee565b84614c18565b602080601f831160018114614cbd575f8415614ca65750858301515b5f19600386901b1c1916600185901b178555613071565b5f85815260208120601f198616915b82811015614ceb57888601518255948401946001909101908401614ccc565b5085821015614d0857878501515f19600388901b60f8161c191681555b5050505050600190811b0190555056fea26469706673582212205eb451946dde0add2bcb0168a68096631a7c0e38d86243f2221775331b3822e264736f6c63430008140033",
  "devdoc": {
    "errors": {
      "CheckpointUnorderedInsertion()": [
        {
          "details": "A value was attempted to be inserted on a past checkpoint."
        }
      ],
      "FailedInnerCall()": [
        {
          "details": "A call to an address target failed. The target may have reverted."
        }
      ],
      "GovernorAlreadyCastVote(address)": [
        {
          "details": "The vote was already cast."
        }
      ],
      "GovernorAlreadyQueuedProposal(uint256)": [
        {
          "details": "The proposal has already been queued."
        }
      ],
      "GovernorDisabledDeposit()": [
        {
          "details": "Token deposits are disabled in this contract."
        }
      ],
      "GovernorInsufficientProposerVotes(address,uint256,uint256)": [
        {
          "details": "The `proposer` does not have the required votes to create a proposal."
        }
      ],
      "GovernorInvalidProposalLength(uint256,uint256,uint256)": [
        {
          "details": "Empty proposal or a mismatch between the parameters length for a proposal call."
        }
      ],
      "GovernorInvalidQuorumFraction(uint256,uint256)": [
        {
          "details": "The quorum set is not a valid fraction."
        }
      ],
      "GovernorInvalidSignature(address)": [
        {
          "details": "The provided signature is not valid for the expected `voter`. If the `voter` is a contract, the signature is not valid using {IERC1271-isValidSignature}."
        }
      ],
      "GovernorInvalidVoteType()": [
        {
          "details": "The vote type used is not valid for the corresponding counting module."
        }
      ],
      "GovernorInvalidVotingPeriod(uint256)": [
        {
          "details": "The voting period set is not a valid period."
        }
      ],
      "GovernorNonexistentProposal(uint256)": [
        {
          "details": "The `proposalId` doesn't exist."
        }
      ],
      "GovernorNotQueuedProposal(uint256)": [
        {
          "details": "The proposal hasn't been queued yet."
        }
      ],
      "GovernorOnlyExecutor(address)": [
        {
          "details": "The `account` is not the governance executor."
        }
      ],
      "GovernorOnlyProposer(address)": [
        {
          "details": "The `account` is not a proposer."
        }
      ],
      "GovernorQueueNotImplemented()": [
        {
          "details": "Queue operation is not implemented for this governor. Execute should be called directly."
        }
      ],
      "GovernorRestrictedProposer(address)": [
        {
          "details": "The `proposer` is not allowed to create a proposal."
        }
      ],
      "GovernorUnexpectedProposalState(uint256,uint8,bytes32)": [
        {
          "details": "The current state of a proposal is not the required for performing an operation. The `expectedStates` is a bitmap with the bits enabled for each ProposalState enum position counting from right to left. NOTE: If `expectedState` is `bytes32(0)`, the proposal is expected to not be in any state (i.e. not exist). This is the case when a proposal that is expected to be unset is already initiated (the proposal is duplicated). See {Governor-_encodeStateBitmap}."
        }
      ],
      "InvalidAccountNonce(address,uint256)": [
        {
          "details": "The nonce used for an `account` is not the expected current nonce."
        }
      ],
      "QueueEmpty()": [
        {
          "details": "An operation (e.g. {front}) couldn't be completed due to the queue being empty."
        }
      ],
      "QueueFull()": [
        {
          "details": "A push operation couldn't be completed due to the queue being full."
        }
      ],
      "SafeCastOverflowedUintDowncast(uint8,uint256)": [
        {
          "details": "Value doesn't fit in an uint of `bits` size."
        }
      ]
    },
    "events": {
      "EIP712DomainChanged()": {
        "details": "MAY be emitted to signal that the domain could have changed."
      },
      "ProposalCanceled(uint256)": {
        "details": "Emitted when a proposal is canceled."
      },
      "ProposalCreated(uint256,address,address[],uint256[],string[],bytes[],uint256,uint256,string)": {
        "details": "Emitted when a proposal is created."
      },
      "ProposalExecuted(uint256)": {
        "details": "Emitted when a proposal is executed."
      },
      "ProposalQueued(uint256,uint256)": {
        "details": "Emitted when a proposal is queued."
      },
      "TimelockChange(address,address)": {
        "details": "Emitted when the timelock controller used for proposal execution is modified."
      },
      "VoteCast(address,uint256,uint8,uint256,string)": {
        "details": "Emitted when a vote is cast without params. Note: `support` values should be seen as buckets. Their interpretation depends on the voting module used."
      },
      "VoteCastWithParams(address,uint256,uint8,uint256,string,bytes)": {
        "details": "Emitted when a vote is cast with params. Note: `support` values should be seen as buckets. Their interpretation depends on the voting module used. `params` are additional encoded parameters. Their interpepretation also depends on the voting module used."
      }
    },
    "kind": "dev",
    "methods": {
      "CLOCK_MODE()": {
        "details": "Machine-readable description of the clock as specified in EIP-6372."
      },
      "COUNTING_MODE()": {
        "details": "See {IGovernor-COUNTING_MODE}."
      },
      "cancel(address[],uint256[],bytes[],bytes32)": {
        "details": "See {IGovernor-cancel}."
      },
      "cancel(uint256)": {
        "details": "ProposalId version of {IGovernor-cancel}."
      },
      "castVote(uint256,uint8)": {
        "details": "See {IGovernor-castVote}."
      },
      "castVoteBySig(uint256,uint8,address,bytes)": {
        "details": "See {IGovernor-castVoteBySig}."
      },
      "castVoteWithReason(uint256,uint8,string)": {
        "details": "See {IGovernor-castVoteWithReason}."
      },
      "castVoteWithReasonAndParams(uint256,uint8,string,bytes)": {
        "details": "See {IGovernor-castVoteWithReasonAndParams}."
      },
      "castVoteWithReasonAndParamsBySig(uint256,uint8,address,string,bytes,bytes)": {
        "details": "See {IGovernor-castVoteWithReasonAndParamsBySig}."
      },
      "clock()": {
        "details": "Clock (as specified in EIP-6372) is set to match the token's clock. Fallback to block numbers if the token does not implement EIP-6372."
      },
      "eip712Domain()": {
        "details": "See {IERC-5267}."
      },
      "execute(address[],uint256[],bytes[],bytes32)": {
        "details": "See {IGovernor-execute}."
      },
      "execute(uint256)": {
        "details": "Version of {IGovernor-execute} with only `proposalId` as an argument."
      },
      "getVotes(address,uint256)": {
        "details": "See {IGovernor-getVotes}."
      },
      "getVotesWithParams(address,uint256,bytes)": {
        "details": "See {IGovernor-getVotesWithParams}."
      },
      "hasVoted(uint256,address)": {
        "details": "See {IGovernor-hasVoted}."
      },
      "hashProposal(address[],uint256[],bytes[],bytes32)": {
        "details": "See {IGovernor-hashProposal}. The proposal id is produced by hashing the ABI encoded `targets` array, the `values` array, the `calldatas` array and the descriptionHash (bytes32 which itself is the keccak256 hash of the description string). This proposal id can be produced from the proposal data which is part of the {ProposalCreated} event. It can even be computed in advance, before the proposal is submitted. Note that the chainId and the governor address are not part of the proposal id computation. Consequently, the same proposal (with same operation and same description) will have the same id if submitted on multiple governors across multiple networks. This also means that in order to execute the same operation twice (on the same governor) the proposer will have to change the description in order to avoid proposal id conflicts."
      },
      "name()": {
        "details": "See {IGovernor-name}."
      },
      "nonces(address)": {
        "details": "Returns the next unused nonce for an address."
      },
      "onERC1155BatchReceived(address,address,uint256[],uint256[],bytes)": {
        "details": "See {IERC1155Receiver-onERC1155BatchReceived}. Receiving tokens is disabled if the governance executor is other than the governor itself (eg. when using with a timelock)."
      },
      "onERC1155Received(address,address,uint256,uint256,bytes)": {
        "details": "See {IERC1155Receiver-onERC1155Received}. Receiving tokens is disabled if the governance executor is other than the governor itself (eg. when using with a timelock)."
      },
      "onERC721Received(address,address,uint256,bytes)": {
        "details": "See {IERC721Receiver-onERC721Received}. Receiving tokens is disabled if the governance executor is other than the governor itself (eg. when using with a timelock)."
      },
      "proposalCount()": {
        "details": "Returns the number of stored proposals."
      },
      "proposalDeadline(uint256)": {
        "details": "See {IGovernor-proposalDeadline}."
      },
      "proposalDetails(uint256)": {
        "details": "Returns the details of a proposalId. Reverts if `proposalId` is not a known proposal."
      },
      "proposalDetailsAt(uint256)": {
        "details": "Returns the details (including the proposalId) of a proposal given its sequential index."
      },
      "proposalEta(uint256)": {
        "details": "See {IGovernor-proposalEta}."
      },
      "proposalProposer(uint256)": {
        "details": "See {IGovernor-proposalProposer}."
      },
      "proposalSnapshot(uint256)": {
        "details": "See {IGovernor-proposalSnapshot}."
      },
      "proposalVotes(uint256)": {
        "details": "Accessor to the internal vote counts."
      },
      "propose(address[],uint256[],bytes[],string)": {
        "details": "See {IGovernor-propose}. This function has opt-in frontrunning protection, described in {_isValidDescriptionForProposer}."
      },
      "queue(address[],uint256[],bytes[],bytes32)": {
        "details": "See {IGovernor-queue}."
      },
      "queue(uint256)": {
        "details": "Version of {IGovernorTimelock-queue} with only `proposalId` as an argument."
      },
      "quorumDenominator()": {
        "details": "Returns the quorum denominator. Defaults to 100, but may be overridden."
      },
      "quorumNumerator()": {
        "details": "Returns the current quorum numerator. See {quorumDenominator}."
      },
      "quorumNumerator(uint256)": {
        "details": "Returns the quorum numerator at a specific timepoint. See {quorumDenominator}."
      },
      "relay(address,uint256,bytes)": {
        "details": "Relays a transaction or function call to an arbitrary target. In cases where the governance executor is some contract other than the governor itself, like when using a timelock, this function can be invoked in a governance proposal to recover tokens or Ether that was sent to the governor contract by mistake. Note that if the executor is simply the governor itself, use of `relay` is redundant."
      },
      "setProposalThreshold(uint256)": {
        "details": "Update the proposal threshold. This operation can only be performed through a governance proposal. Emits a {ProposalThresholdSet} event."
      },
      "setVotingDelay(uint48)": {
        "details": "Update the voting delay. This operation can only be performed through a governance proposal. Emits a {VotingDelaySet} event."
      },
      "setVotingPeriod(uint32)": {
        "details": "Update the voting period. This operation can only be performed through a governance proposal. Emits a {VotingPeriodSet} event."
      },
      "supportsInterface(bytes4)": {
        "details": "See {IERC165-supportsInterface}."
      },
      "timelock()": {
        "details": "Public accessor to check the address of the timelock"
      },
      "token()": {
        "details": "The token that voting power is sourced from."
      },
      "updateQuorumNumerator(uint256)": {
        "details": "Changes the quorum numerator. Emits a {QuorumNumeratorUpdated} event. Requirements: - Must be called through a governance proposal. - New numerator must be smaller or equal to the denominator."
      },
      "updateTimelock(address)": {
        "details": "Public endpoint to update the underlying timelock instance. Restricted to the timelock itself, so updates must be proposed, scheduled, and executed through governance proposals. CAUTION: It is not recommended to change the timelock while there are other queued governance proposals."
      },
      "version()": {
        "details": "See {IGovernor-version}."
      }
    },
    "version": 1
  },
  "userdoc": {
    "kind": "user",
    "methods": {},
    "version": 1
  },
  "storageLayout": {
    "storage": [
      {
        "astId": 8393,
        "contract": "contracts/stdGovernance/GovernorD4C.sol:GovernorD4C",
        "label": "_nameFallback",
        "offset": 0,
        "slot": "0",
        "type": "t_string_storage"
      },
      {
        "astId": 8395,
        "contract": "contracts/stdGovernance/GovernorD4C.sol:GovernorD4C",
        "label": "_versionFallback",
        "offset": 0,
        "slot": "1",
        "type": "t_string_storage"
      },
      {
        "astId": 7372,
        "contract": "contracts/stdGovernance/GovernorD4C.sol:GovernorD4C",
        "label": "_nonces",
        "offset": 0,
        "slot": "2",
        "type": "t_mapping(t_address,t_uint256)"
      },
      {
        "astId": 616,
        "contract": "contracts/stdGovernance/GovernorD4C.sol:GovernorD4C",
        "label": "_name",
        "offset": 0,
        "slot": "3",
        "type": "t_string_storage"
      },
      {
        "astId": 621,
        "contract": "contracts/stdGovernance/GovernorD4C.sol:GovernorD4C",
        "label": "_proposals",
        "offset": 0,
        "slot": "4",
        "type": "t_mapping(t_uint256,t_struct(ProposalCore)594_storage)"
      },
      {
        "astId": 624,
        "contract": "contracts/stdGovernance/GovernorD4C.sol:GovernorD4C",
        "label": "_governanceCall",
        "offset": 0,
        "slot": "5",
        "type": "t_struct(Bytes32Deque)13302_storage"
      },
      {
        "astId": 4046,
        "contract": "contracts/stdGovernance/GovernorD4C.sol:GovernorD4C",
        "label": "_proposalThreshold",
        "offset": 0,
        "slot": "7",
        "type": "t_uint256"
      },
      {
        "astId": 4048,
        "contract": "contracts/stdGovernance/GovernorD4C.sol:GovernorD4C",
        "label": "_votingDelay",
        "offset": 0,
        "slot": "8",
        "type": "t_uint48"
      },
      {
        "astId": 4050,
        "contract": "contracts/stdGovernance/GovernorD4C.sol:GovernorD4C",
        "label": "_votingPeriod",
        "offset": 6,
        "slot": "8",
        "type": "t_uint32"
      },
      {
        "astId": 3837,
        "contract": "contracts/stdGovernance/GovernorD4C.sol:GovernorD4C",
        "label": "_proposalVotes",
        "offset": 0,
        "slot": "9",
        "type": "t_mapping(t_uint256,t_struct(ProposalVote)3832_storage)"
      },
      {
        "astId": 4240,
        "contract": "contracts/stdGovernance/GovernorD4C.sol:GovernorD4C",
        "label": "_proposalIds",
        "offset": 0,
        "slot": "10",
        "type": "t_array(t_uint256)dyn_storage"
      },
      {
        "astId": 4245,
        "contract": "contracts/stdGovernance/GovernorD4C.sol:GovernorD4C",
        "label": "_proposalDetails",
        "offset": 0,
        "slot": "11",
        "type": "t_mapping(t_uint256,t_struct(ProposalDetails)4237_storage)"
      },
      {
        "astId": 4961,
        "contract": "contracts/stdGovernance/GovernorD4C.sol:GovernorD4C",
        "label": "_quorumNumeratorHistory",
        "offset": 0,
        "slot": "12",
        "type": "t_struct(Trace208)12242_storage"
      },
      {
        "astId": 4499,
        "contract": "contracts/stdGovernance/GovernorD4C.sol:GovernorD4C",
        "label": "_timelock",
        "offset": 0,
        "slot": "13",
        "type": "t_contract(TimelockController)3809"
      },
      {
        "astId": 4503,
        "contract": "contracts/stdGovernance/GovernorD4C.sol:GovernorD4C",
        "label": "_timelockIds",
        "offset": 0,
        "slot": "14",
        "type": "t_mapping(t_uint256,t_bytes32)"
      }
    ],
    "types": {
      "t_address": {
        "encoding": "inplace",
        "label": "address",
        "numberOfBytes": "20"
      },
      "t_array(t_address)dyn_storage": {
        "base": "t_address",
        "encoding": "dynamic_array",
        "label": "address[]",
        "numberOfBytes": "32"
      },
      "t_array(t_bytes_storage)dyn_storage": {
        "base": "t_bytes_storage",
        "encoding": "dynamic_array",
        "label": "bytes[]",
        "numberOfBytes": "32"
      },
      "t_array(t_struct(Checkpoint208)12247_storage)dyn_storage": {
        "base": "t_struct(Checkpoint208)12247_storage",
        "encoding": "dynamic_array",
        "label": "struct Checkpoints.Checkpoint208[]",
        "numberOfBytes": "32"
      },
      "t_array(t_uint256)dyn_storage": {
        "base": "t_uint256",
        "encoding": "dynamic_array",
        "label": "uint256[]",
        "numberOfBytes": "32"
      },
      "t_bool": {
        "encoding": "inplace",
        "label": "bool",
        "numberOfBytes": "1"
      },
      "t_bytes32": {
        "encoding": "inplace",
        "label": "bytes32",
        "numberOfBytes": "32"
      },
      "t_bytes_storage": {
        "encoding": "bytes",
        "label": "bytes",
        "numberOfBytes": "32"
      },
      "t_contract(TimelockController)3809": {
        "encoding": "inplace",
        "label": "contract TimelockController",
        "numberOfBytes": "20"
      },
      "t_mapping(t_address,t_bool)": {
        "encoding": "mapping",
        "key": "t_address",
        "label": "mapping(address => bool)",
        "numberOfBytes": "32",
        "value": "t_bool"
      },
      "t_mapping(t_address,t_uint256)": {
        "encoding": "mapping",
        "key": "t_address",
        "label": "mapping(address => uint256)",
        "numberOfBytes": "32",
        "value": "t_uint256"
      },
      "t_mapping(t_uint128,t_bytes32)": {
        "encoding": "mapping",
        "key": "t_uint128",
        "label": "mapping(uint128 => bytes32)",
        "numberOfBytes": "32",
        "value": "t_bytes32"
      },
      "t_mapping(t_uint256,t_bytes32)": {
        "encoding": "mapping",
        "key": "t_uint256",
        "label": "mapping(uint256 => bytes32)",
        "numberOfBytes": "32",
        "value": "t_bytes32"
      },
      "t_mapping(t_uint256,t_struct(ProposalCore)594_storage)": {
        "encoding": "mapping",
        "key": "t_uint256",
        "label": "mapping(uint256 => struct Governor.ProposalCore)",
        "numberOfBytes": "32",
        "value": "t_struct(ProposalCore)594_storage"
      },
      "t_mapping(t_uint256,t_struct(ProposalDetails)4237_storage)": {
        "encoding": "mapping",
        "key": "t_uint256",
        "label": "mapping(uint256 => struct GovernorStorage.ProposalDetails)",
        "numberOfBytes": "32",
        "value": "t_struct(ProposalDetails)4237_storage"
      },
      "t_mapping(t_uint256,t_struct(ProposalVote)3832_storage)": {
        "encoding": "mapping",
        "key": "t_uint256",
        "label": "mapping(uint256 => struct GovernorCountingSimple.ProposalVote)",
        "numberOfBytes": "32",
        "value": "t_struct(ProposalVote)3832_storage"
      },
      "t_string_storage": {
        "encoding": "bytes",
        "label": "string",
        "numberOfBytes": "32"
      },
      "t_struct(Bytes32Deque)13302_storage": {
        "encoding": "inplace",
        "label": "struct DoubleEndedQueue.Bytes32Deque",
        "members": [
          {
            "astId": 13295,
            "contract": "contracts/stdGovernance/GovernorD4C.sol:GovernorD4C",
            "label": "_begin",
            "offset": 0,
            "slot": "0",
            "type": "t_uint128"
          },
          {
            "astId": 13297,
            "contract": "contracts/stdGovernance/GovernorD4C.sol:GovernorD4C",
            "label": "_end",
            "offset": 16,
            "slot": "0",
            "type": "t_uint128"
          },
          {
            "astId": 13301,
            "contract": "contracts/stdGovernance/GovernorD4C.sol:GovernorD4C",
            "label": "_data",
            "offset": 0,
            "slot": "1",
            "type": "t_mapping(t_uint128,t_bytes32)"
          }
        ],
        "numberOfBytes": "64"
      },
      "t_struct(Checkpoint208)12247_storage": {
        "encoding": "inplace",
        "label": "struct Checkpoints.Checkpoint208",
        "members": [
          {
            "astId": 12244,
            "contract": "contracts/stdGovernance/GovernorD4C.sol:GovernorD4C",
            "label": "_key",
            "offset": 0,
            "slot": "0",
            "type": "t_uint48"
          },
          {
            "astId": 12246,
            "contract": "contracts/stdGovernance/GovernorD4C.sol:GovernorD4C",
            "label": "_value",
            "offset": 6,
            "slot": "0",
            "type": "t_uint208"
          }
        ],
        "numberOfBytes": "32"
      },
      "t_struct(ProposalCore)594_storage": {
        "encoding": "inplace",
        "label": "struct Governor.ProposalCore",
        "members": [
          {
            "astId": 583,
            "contract": "contracts/stdGovernance/GovernorD4C.sol:GovernorD4C",
            "label": "proposer",
            "offset": 0,
            "slot": "0",
            "type": "t_address"
          },
          {
            "astId": 585,
            "contract": "contracts/stdGovernance/GovernorD4C.sol:GovernorD4C",
            "label": "voteStart",
            "offset": 20,
            "slot": "0",
            "type": "t_uint48"
          },
          {
            "astId": 587,
            "contract": "contracts/stdGovernance/GovernorD4C.sol:GovernorD4C",
            "label": "voteDuration",
            "offset": 26,
            "slot": "0",
            "type": "t_uint32"
          },
          {
            "astId": 589,
            "contract": "contracts/stdGovernance/GovernorD4C.sol:GovernorD4C",
            "label": "executed",
            "offset": 30,
            "slot": "0",
            "type": "t_bool"
          },
          {
            "astId": 591,
            "contract": "contracts/stdGovernance/GovernorD4C.sol:GovernorD4C",
            "label": "canceled",
            "offset": 31,
            "slot": "0",
            "type": "t_bool"
          },
          {
            "astId": 593,
            "contract": "contracts/stdGovernance/GovernorD4C.sol:GovernorD4C",
            "label": "etaSeconds",
            "offset": 0,
            "slot": "1",
            "type": "t_uint48"
          }
        ],
        "numberOfBytes": "64"
      },
      "t_struct(ProposalDetails)4237_storage": {
        "encoding": "inplace",
        "label": "struct GovernorStorage.ProposalDetails",
        "members": [
          {
            "astId": 4228,
            "contract": "contracts/stdGovernance/GovernorD4C.sol:GovernorD4C",
            "label": "targets",
            "offset": 0,
            "slot": "0",
            "type": "t_array(t_address)dyn_storage"
          },
          {
            "astId": 4231,
            "contract": "contracts/stdGovernance/GovernorD4C.sol:GovernorD4C",
            "label": "values",
            "offset": 0,
            "slot": "1",
            "type": "t_array(t_uint256)dyn_storage"
          },
          {
            "astId": 4234,
            "contract": "contracts/stdGovernance/GovernorD4C.sol:GovernorD4C",
            "label": "calldatas",
            "offset": 0,
            "slot": "2",
            "type": "t_array(t_bytes_storage)dyn_storage"
          },
          {
            "astId": 4236,
            "contract": "contracts/stdGovernance/GovernorD4C.sol:GovernorD4C",
            "label": "descriptionHash",
            "offset": 0,
            "slot": "3",
            "type": "t_bytes32"
          }
        ],
        "numberOfBytes": "128"
      },
      "t_struct(ProposalVote)3832_storage": {
        "encoding": "inplace",
        "label": "struct GovernorCountingSimple.ProposalVote",
        "members": [
          {
            "astId": 3823,
            "contract": "contracts/stdGovernance/GovernorD4C.sol:GovernorD4C",
            "label": "againstVotes",
            "offset": 0,
            "slot": "0",
            "type": "t_uint256"
          },
          {
            "astId": 3825,
            "contract": "contracts/stdGovernance/GovernorD4C.sol:GovernorD4C",
            "label": "forVotes",
            "offset": 0,
            "slot": "1",
            "type": "t_uint256"
          },
          {
            "astId": 3827,
            "contract": "contracts/stdGovernance/GovernorD4C.sol:GovernorD4C",
            "label": "abstainVotes",
            "offset": 0,
            "slot": "2",
            "type": "t_uint256"
          },
          {
            "astId": 3831,
            "contract": "contracts/stdGovernance/GovernorD4C.sol:GovernorD4C",
            "label": "hasVoted",
            "offset": 0,
            "slot": "3",
            "type": "t_mapping(t_address,t_bool)"
          }
        ],
        "numberOfBytes": "128"
      },
      "t_struct(Trace208)12242_storage": {
        "encoding": "inplace",
        "label": "struct Checkpoints.Trace208",
        "members": [
          {
            "astId": 12241,
            "contract": "contracts/stdGovernance/GovernorD4C.sol:GovernorD4C",
            "label": "_checkpoints",
            "offset": 0,
            "slot": "0",
            "type": "t_array(t_struct(Checkpoint208)12247_storage)dyn_storage"
          }
        ],
        "numberOfBytes": "32"
      },
      "t_uint128": {
        "encoding": "inplace",
        "label": "uint128",
        "numberOfBytes": "16"
      },
      "t_uint208": {
        "encoding": "inplace",
        "label": "uint208",
        "numberOfBytes": "26"
      },
      "t_uint256": {
        "encoding": "inplace",
        "label": "uint256",
        "numberOfBytes": "32"
      },
      "t_uint32": {
        "encoding": "inplace",
        "label": "uint32",
        "numberOfBytes": "4"
      },
      "t_uint48": {
        "encoding": "inplace",
        "label": "uint48",
        "numberOfBytes": "6"
      }
    }
  }
}