{
  "address": "0x9fE46736679d2D9a65F0992F2272dE9f3c7fa6e0",
  "abi": [
    {
      "inputs": [
        {
          "internalType": "uint256",
          "name": "minDelay",
          "type": "uint256"
        },
        {
          "internalType": "address[]",
          "name": "proposers",
          "type": "address[]"
        },
        {
          "internalType": "address[]",
          "name": "executors",
          "type": "address[]"
        },
        {
          "internalType": "address",
          "name": "admin",
          "type": "address"
        }
      ],
      "stateMutability": "nonpayable",
      "type": "constructor"
    },
    {
      "inputs": [],
      "name": "AccessControlBadConfirmation",
      "type": "error"
    },
    {
      "inputs": [
        {
          "internalType": "address",
          "name": "account",
          "type": "address"
        },
        {
          "internalType": "bytes32",
          "name": "neededRole",
          "type": "bytes32"
        }
      ],
      "name": "AccessControlUnauthorizedAccount",
      "type": "error"
    },
    {
      "inputs": [],
      "name": "FailedInnerCall",
      "type": "error"
    },
    {
      "inputs": [
        {
          "internalType": "uint256",
          "name": "delay",
          "type": "uint256"
        },
        {
          "internalType": "uint256",
          "name": "minDelay",
          "type": "uint256"
        }
      ],
      "name": "TimelockInsufficientDelay",
      "type": "error"
    },
    {
      "inputs": [
        {
          "internalType": "uint256",
          "name": "targets",
          "type": "uint256"
        },
        {
          "internalType": "uint256",
          "name": "payloads",
          "type": "uint256"
        },
        {
          "internalType": "uint256",
          "name": "values",
          "type": "uint256"
        }
      ],
      "name": "TimelockInvalidOperationLength",
      "type": "error"
    },
    {
      "inputs": [
        {
          "internalType": "address",
          "name": "caller",
          "type": "address"
        }
      ],
      "name": "TimelockUnauthorizedCaller",
      "type": "error"
    },
    {
      "inputs": [
        {
          "internalType": "bytes32",
          "name": "predecessorId",
          "type": "bytes32"
        }
      ],
      "name": "TimelockUnexecutedPredecessor",
      "type": "error"
    },
    {
      "inputs": [
        {
          "internalType": "bytes32",
          "name": "operationId",
          "type": "bytes32"
        },
        {
          "internalType": "bytes32",
          "name": "expectedStates",
          "type": "bytes32"
        }
      ],
      "name": "TimelockUnexpectedOperationState",
      "type": "error"
    },
    {
      "anonymous": false,
      "inputs": [
        {
          "indexed": true,
          "internalType": "bytes32",
          "name": "id",
          "type": "bytes32"
        },
        {
          "indexed": true,
          "internalType": "uint256",
          "name": "index",
          "type": "uint256"
        },
        {
          "indexed": false,
          "internalType": "address",
          "name": "target",
          "type": "address"
        },
        {
          "indexed": false,
          "internalType": "uint256",
          "name": "value",
          "type": "uint256"
        },
        {
          "indexed": false,
          "internalType": "bytes",
          "name": "data",
          "type": "bytes"
        }
      ],
      "name": "CallExecuted",
      "type": "event"
    },
    {
      "anonymous": false,
      "inputs": [
        {
          "indexed": true,
          "internalType": "bytes32",
          "name": "id",
          "type": "bytes32"
        },
        {
          "indexed": false,
          "internalType": "bytes32",
          "name": "salt",
          "type": "bytes32"
        }
      ],
      "name": "CallSalt",
      "type": "event"
    },
    {
      "anonymous": false,
      "inputs": [
        {
          "indexed": true,
          "internalType": "bytes32",
          "name": "id",
          "type": "bytes32"
        },
        {
          "indexed": true,
          "internalType": "uint256",
          "name": "index",
          "type": "uint256"
        },
        {
          "indexed": false,
          "internalType": "address",
          "name": "target",
          "type": "address"
        },
        {
          "indexed": false,
          "internalType": "uint256",
          "name": "value",
          "type": "uint256"
        },
        {
          "indexed": false,
          "internalType": "bytes",
          "name": "data",
          "type": "bytes"
        },
        {
          "indexed": false,
          "internalType": "bytes32",
          "name": "predecessor",
          "type": "bytes32"
        },
        {
          "indexed": false,
          "internalType": "uint256",
          "name": "delay",
          "type": "uint256"
        }
      ],
      "name": "CallScheduled",
      "type": "event"
    },
    {
      "anonymous": false,
      "inputs": [
        {
          "indexed": true,
          "internalType": "bytes32",
          "name": "id",
          "type": "bytes32"
        }
      ],
      "name": "Cancelled",
      "type": "event"
    },
    {
      "anonymous": false,
      "inputs": [
        {
          "indexed": false,
          "internalType": "uint256",
          "name": "oldDuration",
          "type": "uint256"
        },
        {
          "indexed": false,
          "internalType": "uint256",
          "name": "newDuration",
          "type": "uint256"
        }
      ],
      "name": "MinDelayChange",
      "type": "event"
    },
    {
      "anonymous": false,
      "inputs": [
        {
          "indexed": true,
          "internalType": "bytes32",
          "name": "role",
          "type": "bytes32"
        },
        {
          "indexed": true,
          "internalType": "bytes32",
          "name": "previousAdminRole",
          "type": "bytes32"
        },
        {
          "indexed": true,
          "internalType": "bytes32",
          "name": "newAdminRole",
          "type": "bytes32"
        }
      ],
      "name": "RoleAdminChanged",
      "type": "event"
    },
    {
      "anonymous": false,
      "inputs": [
        {
          "indexed": true,
          "internalType": "bytes32",
          "name": "role",
          "type": "bytes32"
        },
        {
          "indexed": true,
          "internalType": "address",
          "name": "account",
          "type": "address"
        },
        {
          "indexed": true,
          "internalType": "address",
          "name": "sender",
          "type": "address"
        }
      ],
      "name": "RoleGranted",
      "type": "event"
    },
    {
      "anonymous": false,
      "inputs": [
        {
          "indexed": true,
          "internalType": "bytes32",
          "name": "role",
          "type": "bytes32"
        },
        {
          "indexed": true,
          "internalType": "address",
          "name": "account",
          "type": "address"
        },
        {
          "indexed": true,
          "internalType": "address",
          "name": "sender",
          "type": "address"
        }
      ],
      "name": "RoleRevoked",
      "type": "event"
    },
    {
      "inputs": [],
      "name": "CANCELLER_ROLE",
      "outputs": [
        {
          "internalType": "bytes32",
          "name": "",
          "type": "bytes32"
        }
      ],
      "stateMutability": "view",
      "type": "function"
    },
    {
      "inputs": [],
      "name": "DEFAULT_ADMIN_ROLE",
      "outputs": [
        {
          "internalType": "bytes32",
          "name": "",
          "type": "bytes32"
        }
      ],
      "stateMutability": "view",
      "type": "function"
    },
    {
      "inputs": [],
      "name": "EXECUTOR_ROLE",
      "outputs": [
        {
          "internalType": "bytes32",
          "name": "",
          "type": "bytes32"
        }
      ],
      "stateMutability": "view",
      "type": "function"
    },
    {
      "inputs": [],
      "name": "PROPOSER_ROLE",
      "outputs": [
        {
          "internalType": "bytes32",
          "name": "",
          "type": "bytes32"
        }
      ],
      "stateMutability": "view",
      "type": "function"
    },
    {
      "inputs": [
        {
          "internalType": "bytes32",
          "name": "id",
          "type": "bytes32"
        }
      ],
      "name": "cancel",
      "outputs": [],
      "stateMutability": "nonpayable",
      "type": "function"
    },
    {
      "inputs": [
        {
          "internalType": "address",
          "name": "target",
          "type": "address"
        },
        {
          "internalType": "uint256",
          "name": "value",
          "type": "uint256"
        },
        {
          "internalType": "bytes",
          "name": "payload",
          "type": "bytes"
        },
        {
          "internalType": "bytes32",
          "name": "predecessor",
          "type": "bytes32"
        },
        {
          "internalType": "bytes32",
          "name": "salt",
          "type": "bytes32"
        }
      ],
      "name": "execute",
      "outputs": [],
      "stateMutability": "payable",
      "type": "function"
    },
    {
      "inputs": [
        {
          "internalType": "address[]",
          "name": "targets",
          "type": "address[]"
        },
        {
          "internalType": "uint256[]",
          "name": "values",
          "type": "uint256[]"
        },
        {
          "internalType": "bytes[]",
          "name": "payloads",
          "type": "bytes[]"
        },
        {
          "internalType": "bytes32",
          "name": "predecessor",
          "type": "bytes32"
        },
        {
          "internalType": "bytes32",
          "name": "salt",
          "type": "bytes32"
        }
      ],
      "name": "executeBatch",
      "outputs": [],
      "stateMutability": "payable",
      "type": "function"
    },
    {
      "inputs": [],
      "name": "getMinDelay",
      "outputs": [
        {
          "internalType": "uint256",
          "name": "",
          "type": "uint256"
        }
      ],
      "stateMutability": "view",
      "type": "function"
    },
    {
      "inputs": [
        {
          "internalType": "bytes32",
          "name": "id",
          "type": "bytes32"
        }
      ],
      "name": "getOperationState",
      "outputs": [
        {
          "internalType": "enum TimelockController.OperationState",
          "name": "",
          "type": "uint8"
        }
      ],
      "stateMutability": "view",
      "type": "function"
    },
    {
      "inputs": [
        {
          "internalType": "bytes32",
          "name": "role",
          "type": "bytes32"
        }
      ],
      "name": "getRoleAdmin",
      "outputs": [
        {
          "internalType": "bytes32",
          "name": "",
          "type": "bytes32"
        }
      ],
      "stateMutability": "view",
      "type": "function"
    },
    {
      "inputs": [
        {
          "internalType": "bytes32",
          "name": "id",
          "type": "bytes32"
        }
      ],
      "name": "getTimestamp",
      "outputs": [
        {
          "internalType": "uint256",
          "name": "",
          "type": "uint256"
        }
      ],
      "stateMutability": "view",
      "type": "function"
    },
    {
      "inputs": [
        {
          "internalType": "bytes32",
          "name": "role",
          "type": "bytes32"
        },
        {
          "internalType": "address",
          "name": "account",
          "type": "address"
        }
      ],
      "name": "grantRole",
      "outputs": [],
      "stateMutability": "nonpayable",
      "type": "function"
    },
    {
      "inputs": [
        {
          "internalType": "bytes32",
          "name": "role",
          "type": "bytes32"
        },
        {
          "internalType": "address",
          "name": "account",
          "type": "address"
        }
      ],
      "name": "hasRole",
      "outputs": [
        {
          "internalType": "bool",
          "name": "",
          "type": "bool"
        }
      ],
      "stateMutability": "view",
      "type": "function"
    },
    {
      "inputs": [
        {
          "internalType": "address",
          "name": "target",
          "type": "address"
        },
        {
          "internalType": "uint256",
          "name": "value",
          "type": "uint256"
        },
        {
          "internalType": "bytes",
          "name": "data",
          "type": "bytes"
        },
        {
          "internalType": "bytes32",
          "name": "predecessor",
          "type": "bytes32"
        },
        {
          "internalType": "bytes32",
          "name": "salt",
          "type": "bytes32"
        }
      ],
      "name": "hashOperation",
      "outputs": [
        {
          "internalType": "bytes32",
          "name": "",
          "type": "bytes32"
        }
      ],
      "stateMutability": "pure",
      "type": "function"
    },
    {
      "inputs": [
        {
          "internalType": "address[]",
          "name": "targets",
          "type": "address[]"
        },
        {
          "internalType": "uint256[]",
          "name": "values",
          "type": "uint256[]"
        },
        {
          "internalType": "bytes[]",
          "name": "payloads",
          "type": "bytes[]"
        },
        {
          "internalType": "bytes32",
          "name": "predecessor",
          "type": "bytes32"
        },
        {
          "internalType": "bytes32",
          "name": "salt",
          "type": "bytes32"
        }
      ],
      "name": "hashOperationBatch",
      "outputs": [
        {
          "internalType": "bytes32",
          "name": "",
          "type": "bytes32"
        }
      ],
      "stateMutability": "pure",
      "type": "function"
    },
    {
      "inputs": [
        {
          "internalType": "bytes32",
          "name": "id",
          "type": "bytes32"
        }
      ],
      "name": "isOperation",
      "outputs": [
        {
          "internalType": "bool",
          "name": "",
          "type": "bool"
        }
      ],
      "stateMutability": "view",
      "type": "function"
    },
    {
      "inputs": [
        {
          "internalType": "bytes32",
          "name": "id",
          "type": "bytes32"
        }
      ],
      "name": "isOperationDone",
      "outputs": [
        {
          "internalType": "bool",
          "name": "",
          "type": "bool"
        }
      ],
      "stateMutability": "view",
      "type": "function"
    },
    {
      "inputs": [
        {
          "internalType": "bytes32",
          "name": "id",
          "type": "bytes32"
        }
      ],
      "name": "isOperationPending",
      "outputs": [
        {
          "internalType": "bool",
          "name": "",
          "type": "bool"
        }
      ],
      "stateMutability": "view",
      "type": "function"
    },
    {
      "inputs": [
        {
          "internalType": "bytes32",
          "name": "id",
          "type": "bytes32"
        }
      ],
      "name": "isOperationReady",
      "outputs": [
        {
          "internalType": "bool",
          "name": "",
          "type": "bool"
        }
      ],
      "stateMutability": "view",
      "type": "function"
    },
    {
      "inputs": [
        {
          "internalType": "address",
          "name": "",
          "type": "address"
        },
        {
          "internalType": "address",
          "name": "",
          "type": "address"
        },
        {
          "internalType": "uint256[]",
          "name": "",
          "type": "uint256[]"
        },
        {
          "internalType": "uint256[]",
          "name": "",
          "type": "uint256[]"
        },
        {
          "internalType": "bytes",
          "name": "",
          "type": "bytes"
        }
      ],
      "name": "onERC1155BatchReceived",
      "outputs": [
        {
          "internalType": "bytes4",
          "name": "",
          "type": "bytes4"
        }
      ],
      "stateMutability": "nonpayable",
      "type": "function"
    },
    {
      "inputs": [
        {
          "internalType": "address",
          "name": "",
          "type": "address"
        },
        {
          "internalType": "address",
          "name": "",
          "type": "address"
        },
        {
          "internalType": "uint256",
          "name": "",
          "type": "uint256"
        },
        {
          "internalType": "uint256",
          "name": "",
          "type": "uint256"
        },
        {
          "internalType": "bytes",
          "name": "",
          "type": "bytes"
        }
      ],
      "name": "onERC1155Received",
      "outputs": [
        {
          "internalType": "bytes4",
          "name": "",
          "type": "bytes4"
        }
      ],
      "stateMutability": "nonpayable",
      "type": "function"
    },
    {
      "inputs": [
        {
          "internalType": "address",
          "name": "",
          "type": "address"
        },
        {
          "internalType": "address",
          "name": "",
          "type": "address"
        },
        {
          "internalType": "uint256",
          "name": "",
          "type": "uint256"
        },
        {
          "internalType": "bytes",
          "name": "",
          "type": "bytes"
        }
      ],
      "name": "onERC721Received",
      "outputs": [
        {
          "internalType": "bytes4",
          "name": "",
          "type": "bytes4"
        }
      ],
      "stateMutability": "nonpayable",
      "type": "function"
    },
    {
      "inputs": [
        {
          "internalType": "bytes32",
          "name": "role",
          "type": "bytes32"
        },
        {
          "internalType": "address",
          "name": "callerConfirmation",
          "type": "address"
        }
      ],
      "name": "renounceRole",
      "outputs": [],
      "stateMutability": "nonpayable",
      "type": "function"
    },
    {
      "inputs": [
        {
          "internalType": "bytes32",
          "name": "role",
          "type": "bytes32"
        },
        {
          "internalType": "address",
          "name": "account",
          "type": "address"
        }
      ],
      "name": "revokeRole",
      "outputs": [],
      "stateMutability": "nonpayable",
      "type": "function"
    },
    {
      "inputs": [
        {
          "internalType": "address",
          "name": "target",
          "type": "address"
        },
        {
          "internalType": "uint256",
          "name": "value",
          "type": "uint256"
        },
        {
          "internalType": "bytes",
          "name": "data",
          "type": "bytes"
        },
        {
          "internalType": "bytes32",
          "name": "predecessor",
          "type": "bytes32"
        },
        {
          "internalType": "bytes32",
          "name": "salt",
          "type": "bytes32"
        },
        {
          "internalType": "uint256",
          "name": "delay",
          "type": "uint256"
        }
      ],
      "name": "schedule",
      "outputs": [],
      "stateMutability": "nonpayable",
      "type": "function"
    },
    {
      "inputs": [
        {
          "internalType": "address[]",
          "name": "targets",
          "type": "address[]"
        },
        {
          "internalType": "uint256[]",
          "name": "values",
          "type": "uint256[]"
        },
        {
          "internalType": "bytes[]",
          "name": "payloads",
          "type": "bytes[]"
        },
        {
          "internalType": "bytes32",
          "name": "predecessor",
          "type": "bytes32"
        },
        {
          "internalType": "bytes32",
          "name": "salt",
          "type": "bytes32"
        },
        {
          "internalType": "uint256",
          "name": "delay",
          "type": "uint256"
        }
      ],
      "name": "scheduleBatch",
      "outputs": [],
      "stateMutability": "nonpayable",
      "type": "function"
    },
    {
      "inputs": [
        {
          "internalType": "bytes4",
          "name": "interfaceId",
          "type": "bytes4"
        }
      ],
      "name": "supportsInterface",
      "outputs": [
        {
          "internalType": "bool",
          "name": "",
          "type": "bool"
        }
      ],
      "stateMutability": "view",
      "type": "function"
    },
    {
      "inputs": [
        {
          "internalType": "uint256",
          "name": "newDelay",
          "type": "uint256"
        }
      ],
      "name": "updateDelay",
      "outputs": [],
      "stateMutability": "nonpayable",
      "type": "function"
    },
    {
      "stateMutability": "payable",
      "type": "receive"
    }
  ],
  "transactionHash": "0x2f1edf6dd65ee95f093707dd01b4a603da8c0d3b849e39baab55b862b676d911",
  "args": [
    3600,
    [],
    [],
    "0xf39Fd6e51aad88F6F4ce6aB8827279cffFb92266"
  ],
  "numDeployments": 1,
  "solcInputHash": "f68044aad933086d785f4f7a39348e8d",
  "bytecode": "0x608060405234801562000010575f80fd5b5060405162001db338038062001db3833981016040819052620000339162000339565b83838383620000435f30620001b3565b506001600160a01b038116156200006257620000605f82620001b3565b505b5f5b83518110156200010b57620000bc7fb09aa5aeb3702cfd50b6b62bc4532604938f21248a27a1d5ca736082b6819cc1858381518110620000a857620000a8620003bb565b6020026020010151620001b360201b60201c565b50620000f77ffd643c72710c63c0180259aba6b2d05451e3591a24e58b62239378085726f783858381518110620000a857620000a8620003bb565b506200010381620003cf565b905062000064565b505f5b82518110156200016657620001527fd8aa0f3194971a2a116679f7c2090f6939c8d4e01a2a8d7e41d55e5351469e63848381518110620000a857620000a8620003bb565b506200015e81620003cf565b90506200010e565b506002849055604080515f8152602081018690527f11c24f4ead16507c69ac467fbd5e4eed5fb5c699626d2cc6d66421df253886d5910160405180910390a15050505050505050620003f4565b5f828152602081815260408083206001600160a01b038516845290915281205460ff1662000256575f838152602081815260408083206001600160a01b03861684529091529020805460ff191660011790556200020d3390565b6001600160a01b0316826001600160a01b0316847f2f8788117e7eff1d82e926ec794901d17c78024a50270940304540a733656f0d60405160405180910390a450600162000259565b505f5b92915050565b634e487b7160e01b5f52604160045260245ffd5b80516001600160a01b03811681146200028a575f80fd5b919050565b5f82601f8301126200029f575f80fd5b815160206001600160401b0380831115620002be57620002be6200025f565b8260051b604051601f19603f83011681018181108482111715620002e657620002e66200025f565b60405293845285810183019383810192508785111562000304575f80fd5b83870191505b848210156200032e576200031e8262000273565b835291830191908301906200030a565b979650505050505050565b5f805f80608085870312156200034d575f80fd5b845160208601519094506001600160401b03808211156200036c575f80fd5b6200037a888389016200028f565b9450604087015191508082111562000390575f80fd5b506200039f878288016200028f565b925050620003b06060860162000273565b905092959194509250565b634e487b7160e01b5f52603260045260245ffd5b5f60018201620003ed57634e487b7160e01b5f52601160045260245ffd5b5060010190565b6119b180620004025f395ff3fe6080604052600436106101b2575f3560e01c80638065657f116100e7578063bc197c8111610087578063d547741f11610062578063d547741f14610546578063e38335e514610565578063f23a6e6114610578578063f27a0c92146105a3575f80fd5b8063bc197c81146104d1578063c4d252f5146104fc578063d45c44351461051b575f80fd5b806391d14854116100c257806391d148541461044d578063a217fddf1461046c578063b08e51c01461047f578063b1c5f427146104b2575f80fd5b80638065657f146103dc5780638f2a0bb0146103fb5780638f61f4f51461041a575f80fd5b80632ab0f5291161015257806336568abe1161012d57806336568abe14610353578063584b153e1461037257806364d62353146103915780637958004c146103b0575f80fd5b80632ab0f529146102f65780632f2ff15d1461031557806331d5075014610334575f80fd5b8063134008d31161018d578063134008d31461025357806313bc9f2014610266578063150b7a0214610285578063248a9ca3146102c8575f80fd5b806301d5062a146101bd57806301ffc9a7146101de57806307bd026514610212575f80fd5b366101b957005b5f80fd5b3480156101c8575f80fd5b506101dc6101d7366004611171565b6105b7565b005b3480156101e9575f80fd5b506101fd6101f83660046111df565b61068b565b60405190151581526020015b60405180910390f35b34801561021d575f80fd5b506102457fd8aa0f3194971a2a116679f7c2090f6939c8d4e01a2a8d7e41d55e5351469e6381565b604051908152602001610209565b6101dc610261366004611206565b61069b565b348015610271575f80fd5b506101fd61028036600461126c565b61074d565b348015610290575f80fd5b506102af61029f366004611332565b630a85bd0160e11b949350505050565b6040516001600160e01b03199091168152602001610209565b3480156102d3575f80fd5b506102456102e236600461126c565b5f9081526020819052604090206001015490565b348015610301575f80fd5b506101fd61031036600461126c565b610772565b348015610320575f80fd5b506101dc61032f366004611395565b61077a565b34801561033f575f80fd5b506101fd61034e36600461126c565b6107a4565b34801561035e575f80fd5b506101dc61036d366004611395565b6107c8565b34801561037d575f80fd5b506101fd61038c36600461126c565b610800565b34801561039c575f80fd5b506101dc6103ab36600461126c565b610845565b3480156103bb575f80fd5b506103cf6103ca36600461126c565b6108b8565b60405161020991906113d3565b3480156103e7575f80fd5b506102456103f6366004611206565b610900565b348015610406575f80fd5b506101dc610415366004611439565b61093e565b348015610425575f80fd5b506102457fb09aa5aeb3702cfd50b6b62bc4532604938f21248a27a1d5ca736082b6819cc181565b348015610458575f80fd5b506101fd610467366004611395565b610ad2565b348015610477575f80fd5b506102455f81565b34801561048a575f80fd5b506102457ffd643c72710c63c0180259aba6b2d05451e3591a24e58b62239378085726f78381565b3480156104bd575f80fd5b506102456104cc3660046114e1565b610afa565b3480156104dc575f80fd5b506102af6104eb3660046115fd565b63bc197c8160e01b95945050505050565b348015610507575f80fd5b506101dc61051636600461126c565b610b3e565b348015610526575f80fd5b5061024561053536600461126c565b5f9081526001602052604090205490565b348015610551575f80fd5b506101dc610560366004611395565b610be8565b6101dc6105733660046114e1565b610c0c565b348015610583575f80fd5b506102af61059236600461169f565b63f23a6e6160e01b95945050505050565b3480156105ae575f80fd5b50600254610245565b7fb09aa5aeb3702cfd50b6b62bc4532604938f21248a27a1d5ca736082b6819cc16105e181610d93565b5f6105f0898989898989610900565b90506105fc8184610da0565b5f817f4cf4410cc57040e44862ef0f45f3dd5a5e02db8eb8add648d4b0e236f1d07dca8b8b8b8b8b8a60405161063796959493929190611726565b60405180910390a3831561068057807f20fda5fd27a1ea7bf5b9567f143ac5470bb059374a27e8f67cb44f946f6d03878560405161067791815260200190565b60405180910390a25b505050505050505050565b5f61069582610e31565b92915050565b7fd8aa0f3194971a2a116679f7c2090f6939c8d4e01a2a8d7e41d55e5351469e636106c6815f610ad2565b6106d4576106d48133610e55565b5f6106e3888888888888610900565b90506106ef8185610e92565b6106fb88888888610ee0565b5f817fc2617efa69bab66782fa219543714338489c4e9e178271560a91b82c3f612b588a8a8a8a6040516107329493929190611762565b60405180910390a361074381610f54565b5050505050505050565b5f60025b61075a836108b8565b600381111561076b5761076b6113bf565b1492915050565b5f6003610751565b5f8281526020819052604090206001015461079481610d93565b61079e8383610f7f565b50505050565b5f806107af836108b8565b60038111156107c0576107c06113bf565b141592915050565b6001600160a01b03811633146107f15760405163334bd91960e11b815260040160405180910390fd5b6107fb828261100e565b505050565b5f8061080b836108b8565b90506001816003811115610821576108216113bf565b148061083e5750600281600381111561083c5761083c6113bf565b145b9392505050565b333081146108765760405163e2850c5960e01b81526001600160a01b03821660048201526024015b60405180910390fd5b60025460408051918252602082018490527f11c24f4ead16507c69ac467fbd5e4eed5fb5c699626d2cc6d66421df253886d5910160405180910390a150600255565b5f81815260016020526040812054805f036108d557505f92915050565b600181036108e65750600392915050565b428111156108f75750600192915050565b50600292915050565b5f86868686868660405160200161091c96959493929190611726565b6040516020818303038152906040528051906020012090509695505050505050565b7fb09aa5aeb3702cfd50b6b62bc4532604938f21248a27a1d5ca736082b6819cc161096881610d93565b88871415806109775750888514155b156109a9576040516001624fcdef60e01b03198152600481018a9052602481018690526044810188905260640161086d565b5f6109ba8b8b8b8b8b8b8b8b610afa565b90506109c68184610da0565b5f5b8a811015610a835780827f4cf4410cc57040e44862ef0f45f3dd5a5e02db8eb8add648d4b0e236f1d07dca8e8e85818110610a0557610a05611793565b9050602002016020810190610a1a91906117a7565b8d8d86818110610a2c57610a2c611793565b905060200201358c8c87818110610a4557610a45611793565b9050602002810190610a5791906117c0565b8c8b604051610a6b96959493929190611726565b60405180910390a3610a7c81611816565b90506109c8565b508315610ac557807f20fda5fd27a1ea7bf5b9567f143ac5470bb059374a27e8f67cb44f946f6d038785604051610abc91815260200190565b60405180910390a25b5050505050505050505050565b5f918252602082815260408084206001600160a01b0393909316845291905290205460ff1690565b5f8888888888888888604051602001610b1a9897969594939291906118ba565b60405160208183030381529060405280519060200120905098975050505050505050565b7ffd643c72710c63c0180259aba6b2d05451e3591a24e58b62239378085726f783610b6881610d93565b610b7182610800565b610bad5781610b806002611077565b610b8a6001611077565b604051635ead8eb560e01b8152600481019390935217602482015260440161086d565b5f828152600160205260408082208290555183917fbaa1eb22f2a492ba1a5fea61b8df4d27c6c8b5f3971e63bb58fa14ff72eedb7091a25050565b5f82815260208190526040902060010154610c0281610d93565b61079e838361100e565b7fd8aa0f3194971a2a116679f7c2090f6939c8d4e01a2a8d7e41d55e5351469e63610c37815f610ad2565b610c4557610c458133610e55565b8786141580610c545750878414155b15610c86576040516001624fcdef60e01b0319815260048101899052602481018590526044810187905260640161086d565b5f610c978a8a8a8a8a8a8a8a610afa565b9050610ca38185610e92565b5f5b89811015610d7d575f8b8b83818110610cc057610cc0611793565b9050602002016020810190610cd591906117a7565b90505f8a8a84818110610cea57610cea611793565b905060200201359050365f8a8a86818110610d0757610d07611793565b9050602002810190610d1991906117c0565b91509150610d2984848484610ee0565b84867fc2617efa69bab66782fa219543714338489c4e9e178271560a91b82c3f612b5886868686604051610d609493929190611762565b60405180910390a35050505080610d7690611816565b9050610ca5565b50610d8781610f54565b50505050505050505050565b610d9d8133610e55565b50565b610da9826107a4565b15610dda5781610db85f611077565b604051635ead8eb560e01b81526004810192909252602482015260440161086d565b5f610de460025490565b905080821015610e1157604051635433660960e01b8152600481018390526024810182905260440161086d565b610e1b8242611959565b5f93845260016020526040909320929092555050565b5f6001600160e01b03198216630271189760e51b1480610695575061069582611099565b610e5f8282610ad2565b610e8e5760405163e2517d3f60e01b81526001600160a01b03821660048201526024810183905260440161086d565b5050565b610e9b8261074d565b610eaa5781610db86002611077565b8015801590610ebf5750610ebd81610772565b155b15610e8e5760405163121534c360e31b81526004810182905260240161086d565b5f80856001600160a01b0316858585604051610efd92919061196c565b5f6040518083038185875af1925050503d805f8114610f37576040519150601f19603f3d011682016040523d82523d5f602084013e610f3c565b606091505b5091509150610f4b82826110cd565b50505050505050565b610f5d8161074d565b610f6c5780610db86002611077565b5f90815260016020819052604090912055565b5f610f8a8383610ad2565b611007575f838152602081815260408083206001600160a01b03861684529091529020805460ff19166001179055610fbf3390565b6001600160a01b0316826001600160a01b0316847f2f8788117e7eff1d82e926ec794901d17c78024a50270940304540a733656f0d60405160405180910390a4506001610695565b505f610695565b5f6110198383610ad2565b15611007575f838152602081815260408083206001600160a01b0386168085529252808320805460ff1916905551339286917ff6391f5c32d9c69d2a47ea670b442974b53935d1edc7fd64eb21e047a839171b9190a4506001610695565b5f81600381111561108a5761108a6113bf565b600160ff919091161b92915050565b5f6001600160e01b03198216637965db0b60e01b148061069557506301ffc9a760e01b6001600160e01b0319831614610695565b6060826110e2576110dd826110e9565b610695565b5080610695565b8051156110f95780518082602001fd5b604051630a12f52160e11b815260040160405180910390fd5b80356001600160a01b0381168114611128575f80fd5b919050565b5f8083601f84011261113d575f80fd5b5081356001600160401b03811115611153575f80fd5b60208301915083602082850101111561116a575f80fd5b9250929050565b5f805f805f805f60c0888a031215611187575f80fd5b61119088611112565b96506020880135955060408801356001600160401b038111156111b1575f80fd5b6111bd8a828b0161112d565b989b979a50986060810135976080820135975060a09091013595509350505050565b5f602082840312156111ef575f80fd5b81356001600160e01b03198116811461083e575f80fd5b5f805f805f8060a0878903121561121b575f80fd5b61122487611112565b95506020870135945060408701356001600160401b03811115611245575f80fd5b61125189828a0161112d565b979a9699509760608101359660809091013595509350505050565b5f6020828403121561127c575f80fd5b5035919050565b634e487b7160e01b5f52604160045260245ffd5b604051601f8201601f191681016001600160401b03811182821017156112bf576112bf611283565b604052919050565b5f82601f8301126112d6575f80fd5b81356001600160401b038111156112ef576112ef611283565b611302601f8201601f1916602001611297565b818152846020838601011115611316575f80fd5b816020850160208301375f918101602001919091529392505050565b5f805f8060808587031215611345575f80fd5b61134e85611112565b935061135c60208601611112565b92506040850135915060608501356001600160401b0381111561137d575f80fd5b611389878288016112c7565b91505092959194509250565b5f80604083850312156113a6575f80fd5b823591506113b660208401611112565b90509250929050565b634e487b7160e01b5f52602160045260245ffd5b60208101600483106113f357634e487b7160e01b5f52602160045260245ffd5b91905290565b5f8083601f840112611409575f80fd5b5081356001600160401b0381111561141f575f80fd5b6020830191508360208260051b850101111561116a575f80fd5b5f805f805f805f805f60c08a8c031215611451575f80fd5b89356001600160401b0380821115611467575f80fd5b6114738d838e016113f9565b909b50995060208c013591508082111561148b575f80fd5b6114978d838e016113f9565b909950975060408c01359150808211156114af575f80fd5b506114bc8c828d016113f9565b9a9d999c50979a969997986060880135976080810135975060a0013595509350505050565b5f805f805f805f8060a0898b0312156114f8575f80fd5b88356001600160401b038082111561150e575f80fd5b61151a8c838d016113f9565b909a50985060208b0135915080821115611532575f80fd5b61153e8c838d016113f9565b909850965060408b0135915080821115611556575f80fd5b506115638b828c016113f9565b999c989b509699959896976060870135966080013595509350505050565b5f82601f830112611590575f80fd5b813560206001600160401b038211156115ab576115ab611283565b8160051b6115ba828201611297565b92835284810182019282810190878511156115d3575f80fd5b83870192505b848310156115f2578235825291830191908301906115d9565b979650505050505050565b5f805f805f60a08688031215611611575f80fd5b61161a86611112565b945061162860208701611112565b935060408601356001600160401b0380821115611643575f80fd5b61164f89838a01611581565b94506060880135915080821115611664575f80fd5b61167089838a01611581565b93506080880135915080821115611685575f80fd5b50611692888289016112c7565b9150509295509295909350565b5f805f805f60a086880312156116b3575f80fd5b6116bc86611112565b94506116ca60208701611112565b9350604086013592506060860135915060808601356001600160401b038111156116f2575f80fd5b611692888289016112c7565b81835281816020850137505f828201602090810191909152601f909101601f19169091010190565b60018060a01b038716815285602082015260a060408201525f61174d60a0830186886116fe565b60608301949094525060800152949350505050565b60018060a01b0385168152836020820152606060408201525f6117896060830184866116fe565b9695505050505050565b634e487b7160e01b5f52603260045260245ffd5b5f602082840312156117b7575f80fd5b61083e82611112565b5f808335601e198436030181126117d5575f80fd5b8301803591506001600160401b038211156117ee575f80fd5b60200191503681900382131561116a575f80fd5b634e487b7160e01b5f52601160045260245ffd5b5f6001820161182757611827611802565b5060010190565b8183525f6020808501808196508560051b81019150845f5b878110156118ad5782840389528135601e19883603018112611866575f80fd5b870185810190356001600160401b03811115611880575f80fd5b80360382131561188e575f80fd5b6118998682846116fe565b9a87019a9550505090840190600101611846565b5091979650505050505050565b60a080825281018890525f8960c08301825b8b8110156118fa576001600160a01b036118e584611112565b168252602092830192909101906001016118cc565b5083810360208501528881526001600160fb1b03891115611919575f80fd5b8860051b9150818a60208301370182810360209081016040850152611941908201878961182e565b60608401959095525050608001529695505050505050565b8082018082111561069557610695611802565b818382375f910190815291905056fea26469706673582212208c62ec31f19183da04d1f3e5d8b5e2e2af0e1a4c3afa870deaaa13f7135f4a4c64736f6c63430008140033",
  "devdoc": {
    "errors": {
      "AccessControlBadConfirmation()": [
        {
          "details": "The caller of a function is not the expected one. NOTE: Don't confuse with {AccessControlUnauthorizedAccount}."
        }
      ],
      "AccessControlUnauthorizedAccount(address,bytes32)": [
        {
          "details": "The `account` is missing a role."
        }
      ],
      "FailedInnerCall()": [
        {
          "details": "A call to an address target failed. The target may have reverted."
        }
      ],
      "TimelockInsufficientDelay(uint256,uint256)": [
        {
          "details": "The schedule operation doesn't meet the minimum delay."
        }
      ],
      "TimelockInvalidOperationLength(uint256,uint256,uint256)": [
        {
          "details": "Mismatch between the parameters length for an operation call."
        }
      ],
      "TimelockUnauthorizedCaller(address)": [
        {
          "details": "The caller account is not authorized."
        }
      ],
      "TimelockUnexecutedPredecessor(bytes32)": [
        {
          "details": "The predecessor to an operation not yet done."
        }
      ],
      "TimelockUnexpectedOperationState(bytes32,bytes32)": [
        {
          "details": "The current state of an operation is not as required. The `expectedStates` is a bitmap with the bits enabled for each OperationState enum position counting from right to left. See {_encodeStateBitmap}."
        }
      ]
    },
    "events": {
      "CallExecuted(bytes32,uint256,address,uint256,bytes)": {
        "details": "Emitted when a call is performed as part of operation `id`."
      },
      "CallSalt(bytes32,bytes32)": {
        "details": "Emitted when new proposal is scheduled with non-zero salt."
      },
      "CallScheduled(bytes32,uint256,address,uint256,bytes,bytes32,uint256)": {
        "details": "Emitted when a call is scheduled as part of operation `id`."
      },
      "Cancelled(bytes32)": {
        "details": "Emitted when operation `id` is cancelled."
      },
      "MinDelayChange(uint256,uint256)": {
        "details": "Emitted when the minimum delay for future operations is modified."
      },
      "RoleAdminChanged(bytes32,bytes32,bytes32)": {
        "details": "Emitted when `newAdminRole` is set as ``role``'s admin role, replacing `previousAdminRole` `DEFAULT_ADMIN_ROLE` is the starting admin for all roles, despite {RoleAdminChanged} not being emitted signaling this."
      },
      "RoleGranted(bytes32,address,address)": {
        "details": "Emitted when `account` is granted `role`. `sender` is the account that originated the contract call, an admin role bearer except when using {AccessControl-_setupRole}."
      },
      "RoleRevoked(bytes32,address,address)": {
        "details": "Emitted when `account` is revoked `role`. `sender` is the account that originated the contract call:   - if using `revokeRole`, it is the admin role bearer   - if using `renounceRole`, it is the role bearer (i.e. `account`)"
      }
    },
    "kind": "dev",
    "methods": {
      "cancel(bytes32)": {
        "details": "Cancel an operation. Requirements: - the caller must have the 'canceller' role."
      },
      "execute(address,uint256,bytes,bytes32,bytes32)": {
        "details": "Execute an (ready) operation containing a single transaction. Emits a {CallExecuted} event. Requirements: - the caller must have the 'executor' role."
      },
      "executeBatch(address[],uint256[],bytes[],bytes32,bytes32)": {
        "details": "Execute an (ready) operation containing a batch of transactions. Emits one {CallExecuted} event per transaction in the batch. Requirements: - the caller must have the 'executor' role."
      },
      "getMinDelay()": {
        "details": "Returns the minimum delay in seconds for an operation to become valid. This value can be changed by executing an operation that calls `updateDelay`."
      },
      "getOperationState(bytes32)": {
        "details": "Returns operation state."
      },
      "getRoleAdmin(bytes32)": {
        "details": "Returns the admin role that controls `role`. See {grantRole} and {revokeRole}. To change a role's admin, use {_setRoleAdmin}."
      },
      "getTimestamp(bytes32)": {
        "details": "Returns the timestamp at which an operation becomes ready (0 for unset operations, 1 for done operations)."
      },
      "grantRole(bytes32,address)": {
        "details": "Grants `role` to `account`. If `account` had not been already granted `role`, emits a {RoleGranted} event. Requirements: - the caller must have ``role``'s admin role. May emit a {RoleGranted} event."
      },
      "hasRole(bytes32,address)": {
        "details": "Returns `true` if `account` has been granted `role`."
      },
      "hashOperation(address,uint256,bytes,bytes32,bytes32)": {
        "details": "Returns the identifier of an operation containing a single transaction."
      },
      "hashOperationBatch(address[],uint256[],bytes[],bytes32,bytes32)": {
        "details": "Returns the identifier of an operation containing a batch of transactions."
      },
      "isOperation(bytes32)": {
        "details": "Returns whether an id corresponds to a registered operation. This includes both Waiting, Ready, and Done operations."
      },
      "isOperationDone(bytes32)": {
        "details": "Returns whether an operation is done or not."
      },
      "isOperationPending(bytes32)": {
        "details": "Returns whether an operation is pending or not. Note that a \"pending\" operation may also be \"ready\"."
      },
      "isOperationReady(bytes32)": {
        "details": "Returns whether an operation is ready for execution. Note that a \"ready\" operation is also \"pending\"."
      },
      "onERC721Received(address,address,uint256,bytes)": {
        "details": "See {IERC721Receiver-onERC721Received}. Always returns `IERC721Receiver.onERC721Received.selector`."
      },
      "renounceRole(bytes32,address)": {
        "details": "Revokes `role` from the calling account. Roles are often managed via {grantRole} and {revokeRole}: this function's purpose is to provide a mechanism for accounts to lose their privileges if they are compromised (such as when a trusted device is misplaced). If the calling account had been revoked `role`, emits a {RoleRevoked} event. Requirements: - the caller must be `callerConfirmation`. May emit a {RoleRevoked} event."
      },
      "revokeRole(bytes32,address)": {
        "details": "Revokes `role` from `account`. If `account` had been granted `role`, emits a {RoleRevoked} event. Requirements: - the caller must have ``role``'s admin role. May emit a {RoleRevoked} event."
      },
      "schedule(address,uint256,bytes,bytes32,bytes32,uint256)": {
        "details": "Schedule an operation containing a single transaction. Emits {CallSalt} if salt is nonzero, and {CallScheduled}. Requirements: - the caller must have the 'proposer' role."
      },
      "scheduleBatch(address[],uint256[],bytes[],bytes32,bytes32,uint256)": {
        "details": "Schedule an operation containing a batch of transactions. Emits {CallSalt} if salt is nonzero, and one {CallScheduled} event per transaction in the batch. Requirements: - the caller must have the 'proposer' role."
      },
      "supportsInterface(bytes4)": {
        "details": "See {IERC165-supportsInterface}."
      },
      "updateDelay(uint256)": {
        "details": "Changes the minimum timelock duration for future operations. Emits a {MinDelayChange} event. Requirements: - the caller must be the timelock itself. This can only be achieved by scheduling and later executing an operation where the timelock is the target and the data is the ABI-encoded call to this function."
      }
    },
    "version": 1
  },
  "userdoc": {
    "kind": "user",
    "methods": {},
    "version": 1
  },
  "storageLayout": {
    "storage": [
      {
        "astId": 26,
        "contract": "contracts/stdGovernance/Timelock.sol:Timelock",
        "label": "_roles",
        "offset": 0,
        "slot": "0",
        "type": "t_mapping(t_bytes32,t_struct(RoleData)21_storage)"
      },
      {
        "astId": 2831,
        "contract": "contracts/stdGovernance/Timelock.sol:Timelock",
        "label": "_timestamps",
        "offset": 0,
        "slot": "1",
        "type": "t_mapping(t_bytes32,t_uint256)"
      },
      {
        "astId": 2833,
        "contract": "contracts/stdGovernance/Timelock.sol:Timelock",
        "label": "_minDelay",
        "offset": 0,
        "slot": "2",
        "type": "t_uint256"
      }
    ],
    "types": {
      "t_address": {
        "encoding": "inplace",
        "label": "address",
        "numberOfBytes": "20"
      },
      "t_bool": {
        "encoding": "inplace",
        "label": "bool",
        "numberOfBytes": "1"
      },
      "t_bytes32": {
        "encoding": "inplace",
        "label": "bytes32",
        "numberOfBytes": "32"
      },
      "t_mapping(t_address,t_bool)": {
        "encoding": "mapping",
        "key": "t_address",
        "label": "mapping(address => bool)",
        "numberOfBytes": "32",
        "value": "t_bool"
      },
      "t_mapping(t_bytes32,t_struct(RoleData)21_storage)": {
        "encoding": "mapping",
        "key": "t_bytes32",
        "label": "mapping(bytes32 => struct AccessControl.RoleData)",
        "numberOfBytes": "32",
        "value": "t_struct(RoleData)21_storage"
      },
      "t_mapping(t_bytes32,t_uint256)": {
        "encoding": "mapping",
        "key": "t_bytes32",
        "label": "mapping(bytes32 => uint256)",
        "numberOfBytes": "32",
        "value": "t_uint256"
      },
      "t_struct(RoleData)21_storage": {
        "encoding": "inplace",
        "label": "struct AccessControl.RoleData",
        "members": [
          {
            "astId": 18,
            "contract": "contracts/stdGovernance/Timelock.sol:Timelock",
            "label": "hasRole",
            "offset": 0,
            "slot": "0",
            "type": "t_mapping(t_address,t_bool)"
          },
          {
            "astId": 20,
            "contract": "contracts/stdGovernance/Timelock.sol:Timelock",
            "label": "adminRole",
            "offset": 0,
            "slot": "1",
            "type": "t_bytes32"
          }
        ],
        "numberOfBytes": "64"
      },
      "t_uint256": {
        "encoding": "inplace",
        "label": "uint256",
        "numberOfBytes": "32"
      }
    }
  }
}